ARM GAS  /tmp/ccnWcupz.s 			page 1


   1              		.cpu cortex-m3
   2              		.eabi_attribute 20, 1
   3              		.eabi_attribute 21, 1
   4              		.eabi_attribute 23, 3
   5              		.eabi_attribute 24, 1
   6              		.eabi_attribute 25, 1
   7              		.eabi_attribute 26, 1
   8              		.eabi_attribute 30, 1
   9              		.eabi_attribute 34, 1
  10              		.eabi_attribute 18, 4
  11              		.file	"ff.c"
  12              		.text
  13              	.Ltext0:
  14              		.cfi_sections	.debug_frame
  15              		.section	.text.mem_cpy,"ax",%progbits
  16              		.align	1
  17              		.syntax unified
  18              		.thumb
  19              		.thumb_func
  20              		.fpu softvfp
  22              	mem_cpy:
  23              	.LFB29:
  24              		.file 1 "FATFS/src/ff.c"
   1:FATFS/src/ff.c **** /*----------------------------------------------------------------------------/
   2:FATFS/src/ff.c **** /  FatFs - FAT file system module  R0.07e                    (C)ChaN, 2009
   3:FATFS/src/ff.c **** /-----------------------------------------------------------------------------/
   4:FATFS/src/ff.c **** / FatFs module is a generic FAT file system module for small embedded systems.
   5:FATFS/src/ff.c **** / This is a free software that opened for education, research and commercial
   6:FATFS/src/ff.c **** / developments under license policy of following trems.
   7:FATFS/src/ff.c **** /
   8:FATFS/src/ff.c **** /  Copyright (C) 2009, ChaN, all right reserved.
   9:FATFS/src/ff.c **** /
  10:FATFS/src/ff.c **** / * The FatFs module is a free software and there is NO WARRANTY.
  11:FATFS/src/ff.c **** / * No restriction on use. You can use, modify and redistribute it for
  12:FATFS/src/ff.c **** /   personal, non-profit or commercial products UNDER YOUR RESPONSIBILITY.
  13:FATFS/src/ff.c **** / * Redistributions of source code must retain the above copyright notice.
  14:FATFS/src/ff.c **** /
  15:FATFS/src/ff.c **** /-----------------------------------------------------------------------------/
  16:FATFS/src/ff.c **** / Feb 26,'06 R0.00  Prototype.
  17:FATFS/src/ff.c **** /
  18:FATFS/src/ff.c **** / Apr 29,'06 R0.01  First stable version.
  19:FATFS/src/ff.c **** /
  20:FATFS/src/ff.c **** / Jun 01,'06 R0.02  Added FAT12 support.
  21:FATFS/src/ff.c **** /                   Removed unbuffered mode.
  22:FATFS/src/ff.c **** /                   Fixed a problem on small (<32M) patition.
  23:FATFS/src/ff.c **** / Jun 10,'06 R0.02a Added a configuration option (_FS_MINIMUM).
  24:FATFS/src/ff.c **** /
  25:FATFS/src/ff.c **** / Sep 22,'06 R0.03  Added f_rename().
  26:FATFS/src/ff.c **** /                   Changed option _FS_MINIMUM to _FS_MINIMIZE.
  27:FATFS/src/ff.c **** / Dec 11,'06 R0.03a Improved cluster scan algolithm to write files fast.
  28:FATFS/src/ff.c **** /                   Fixed f_mkdir() creates incorrect directory on FAT32.
  29:FATFS/src/ff.c **** /
  30:FATFS/src/ff.c **** / Feb 04,'07 R0.04  Supported multiple drive system.
  31:FATFS/src/ff.c **** /                   Changed some interfaces for multiple drive system.
  32:FATFS/src/ff.c **** /                   Changed f_mountdrv() to f_mount().
  33:FATFS/src/ff.c **** /                   Added f_mkfs().
  34:FATFS/src/ff.c **** / Apr 01,'07 R0.04a Supported multiple partitions on a plysical drive.
ARM GAS  /tmp/ccnWcupz.s 			page 2


  35:FATFS/src/ff.c **** /                   Added a capability of extending file size to f_lseek().
  36:FATFS/src/ff.c **** /                   Added minimization level 3.
  37:FATFS/src/ff.c **** /                   Fixed an endian sensitive code in f_mkfs().
  38:FATFS/src/ff.c **** / May 05,'07 R0.04b Added a configuration option _USE_NTFLAG.
  39:FATFS/src/ff.c **** /                   Added FSInfo support.
  40:FATFS/src/ff.c **** /                   Fixed DBCS name can result FR_INVALID_NAME.
  41:FATFS/src/ff.c **** /                   Fixed short seek (<= csize) collapses the file object.
  42:FATFS/src/ff.c **** /
  43:FATFS/src/ff.c **** / Aug 25,'07 R0.05  Changed arguments of f_read(), f_write() and f_mkfs().
  44:FATFS/src/ff.c **** /                   Fixed f_mkfs() on FAT32 creates incorrect FSInfo.
  45:FATFS/src/ff.c **** /                   Fixed f_mkdir() on FAT32 creates incorrect directory.
  46:FATFS/src/ff.c **** / Feb 03,'08 R0.05a Added f_truncate() and f_utime().
  47:FATFS/src/ff.c **** /                   Fixed off by one error at FAT sub-type determination.
  48:FATFS/src/ff.c **** /                   Fixed btr in f_read() can be mistruncated.
  49:FATFS/src/ff.c **** /                   Fixed cached sector is not flushed when create and close
  50:FATFS/src/ff.c **** /                   without write.
  51:FATFS/src/ff.c **** /
  52:FATFS/src/ff.c **** / Apr 01,'08 R0.06  Added fputc(), fputs(), fprintf() and fgets().
  53:FATFS/src/ff.c **** /                   Improved performance of f_lseek() on moving to the same
  54:FATFS/src/ff.c **** /                   or following cluster.
  55:FATFS/src/ff.c **** /
  56:FATFS/src/ff.c **** / Apr 01,'09 R0.07  Merged Tiny-FatFs as a buffer configuration option.
  57:FATFS/src/ff.c **** /                   Added long file name support.
  58:FATFS/src/ff.c **** /                   Added multiple code page support.
  59:FATFS/src/ff.c **** /                   Added re-entrancy for multitask operation.
  60:FATFS/src/ff.c **** /                   Added auto cluster size selection to f_mkfs().
  61:FATFS/src/ff.c **** /                   Added rewind option to f_readdir().
  62:FATFS/src/ff.c **** /                   Changed result code of critical errors.
  63:FATFS/src/ff.c **** /                   Renamed string functions to avoid name collision.
  64:FATFS/src/ff.c **** / Apr 14,'09 R0.07a Separated out OS dependent code on reentrant cfg.
  65:FATFS/src/ff.c **** /                   Added multiple sector size support.
  66:FATFS/src/ff.c **** / Jun 21,'09 R0.07c Fixed f_unlink() can return FR_OK on error.
  67:FATFS/src/ff.c **** /                   Fixed wrong cache control in f_lseek().
  68:FATFS/src/ff.c **** /                   Added relative path feature.
  69:FATFS/src/ff.c **** /                   Added f_chdir() and f_chdrive().
  70:FATFS/src/ff.c **** /                   Added proper case conversion to extended char.
  71:FATFS/src/ff.c **** / Nov 03,'09 R0.07e Separated out configuration options from ff.h to ffconf.h.
  72:FATFS/src/ff.c **** /                   Fixed f_unlink() fails to remove a sub-dir on _FS_RPATH.
  73:FATFS/src/ff.c **** /                   Fixed name matching error on the 13 char boundary.
  74:FATFS/src/ff.c **** /                   Added a configuration option, _LFN_UNICODE.
  75:FATFS/src/ff.c **** /                   Changed f_readdir() to return the SFN with always upper
  76:FATFS/src/ff.c **** /                   case on non-LFN cfg.
  77:FATFS/src/ff.c **** /---------------------------------------------------------------------------*/
  78:FATFS/src/ff.c **** 
  79:FATFS/src/ff.c **** #include "ff.h"			/* FatFs configurations and declarations */
  80:FATFS/src/ff.c **** #include "diskio.h"		/* Declarations of low level disk I/O functions */
  81:FATFS/src/ff.c **** 
  82:FATFS/src/ff.c **** /*--------------------------------------------------------------------------
  83:FATFS/src/ff.c **** 
  84:FATFS/src/ff.c ****    Module Private Definitions
  85:FATFS/src/ff.c **** 
  86:FATFS/src/ff.c **** ---------------------------------------------------------------------------*/
  87:FATFS/src/ff.c **** 
  88:FATFS/src/ff.c **** #if _FATFS != 0x007E
  89:FATFS/src/ff.c **** #error Wrong include file (ff.h).
  90:FATFS/src/ff.c **** #endif
  91:FATFS/src/ff.c **** 
ARM GAS  /tmp/ccnWcupz.s 			page 3


  92:FATFS/src/ff.c **** #if _FS_REENTRANT
  93:FATFS/src/ff.c **** #if _USE_LFN == 1
  94:FATFS/src/ff.c **** #error Static LFN work area must not be used in re-entrant configuration.
  95:FATFS/src/ff.c **** #endif
  96:FATFS/src/ff.c **** #define	ENTER_FF(fs)		{ if (!lock_fs(fs)) return FR_TIMEOUT; }
  97:FATFS/src/ff.c **** #define	LEAVE_FF(fs, res)	{ unlock_fs(fs, res); return res; }
  98:FATFS/src/ff.c **** 
  99:FATFS/src/ff.c **** #else
 100:FATFS/src/ff.c **** #define	ENTER_FF(fs)
 101:FATFS/src/ff.c **** #define LEAVE_FF(fs, res)	return res
 102:FATFS/src/ff.c **** 
 103:FATFS/src/ff.c **** #endif
 104:FATFS/src/ff.c **** 
 105:FATFS/src/ff.c **** #define	ABORT(fs, res)		{ fp->flag |= FA__ERROR; LEAVE_FF(fs, res); }
 106:FATFS/src/ff.c **** 
 107:FATFS/src/ff.c **** #ifndef NULL
 108:FATFS/src/ff.c **** #define	NULL	0
 109:FATFS/src/ff.c **** #endif
 110:FATFS/src/ff.c **** 
 111:FATFS/src/ff.c **** /* Name status flags */
 112:FATFS/src/ff.c **** #define NS			11		/* Offset of name status byte */
 113:FATFS/src/ff.c **** #define NS_LOSS		0x01	/* Out of 8.3 format */
 114:FATFS/src/ff.c **** #define NS_LFN		0x02	/* Force to create LFN entry */
 115:FATFS/src/ff.c **** #define NS_LAST		0x04	/* Last segment */
 116:FATFS/src/ff.c **** #define NS_BODY		0x08	/* Lower case flag (body) */
 117:FATFS/src/ff.c **** #define NS_EXT		0x10	/* Lower case flag (ext) */
 118:FATFS/src/ff.c **** #define NS_DOT		0x20	/* Dot entry */
 119:FATFS/src/ff.c **** 
 120:FATFS/src/ff.c **** 
 121:FATFS/src/ff.c **** 
 122:FATFS/src/ff.c **** 
 123:FATFS/src/ff.c **** /*--------------------------------------------------------------------------
 124:FATFS/src/ff.c **** 
 125:FATFS/src/ff.c ****    Private Work Area
 126:FATFS/src/ff.c **** 
 127:FATFS/src/ff.c **** ---------------------------------------------------------------------------*/
 128:FATFS/src/ff.c **** 
 129:FATFS/src/ff.c **** #if _DRIVES < 1 || _DRIVES > 9
 130:FATFS/src/ff.c **** #error Number of drives must be 1-9.
 131:FATFS/src/ff.c **** #endif
 132:FATFS/src/ff.c **** static
 133:FATFS/src/ff.c **** FATFS *FatFs[_DRIVES];	/* Pointer to the file system objects (logical drives) */
 134:FATFS/src/ff.c **** 
 135:FATFS/src/ff.c **** static
 136:FATFS/src/ff.c **** WORD Fsid;				/* File system mount ID */
 137:FATFS/src/ff.c **** 
 138:FATFS/src/ff.c **** #if _FS_RPATH
 139:FATFS/src/ff.c **** static
 140:FATFS/src/ff.c **** BYTE Drive;				/* Current drive */
 141:FATFS/src/ff.c **** #endif
 142:FATFS/src/ff.c **** 
 143:FATFS/src/ff.c **** 
 144:FATFS/src/ff.c **** #if _USE_LFN == 1	/* LFN with static LFN working buffer */
 145:FATFS/src/ff.c **** static
 146:FATFS/src/ff.c **** WCHAR LfnBuf[_MAX_LFN + 1];
 147:FATFS/src/ff.c **** #define	NAMEBUF(sp,lp)	BYTE sp[12]; WCHAR *lp = LfnBuf
 148:FATFS/src/ff.c **** #define INITBUF(dj,sp,lp)	dj.fn = sp; dj.lfn = lp
ARM GAS  /tmp/ccnWcupz.s 			page 4


 149:FATFS/src/ff.c **** 
 150:FATFS/src/ff.c **** #elif _USE_LFN > 1	/* LFN with dynamic LFN working buffer */
 151:FATFS/src/ff.c **** #define	NAMEBUF(sp,lp)	BYTE sp[12]; WCHAR lbuf[_MAX_LFN + 1], *lp = lbuf
 152:FATFS/src/ff.c **** #define INITBUF(dj,sp,lp)	dj.fn = sp; dj.lfn = lp
 153:FATFS/src/ff.c **** 
 154:FATFS/src/ff.c **** #else				/* No LFN */
 155:FATFS/src/ff.c **** #define	NAMEBUF(sp,lp)	BYTE sp[12]
 156:FATFS/src/ff.c **** #define INITBUF(dj,sp,lp)	dj.fn = sp
 157:FATFS/src/ff.c **** 
 158:FATFS/src/ff.c **** #endif
 159:FATFS/src/ff.c **** 
 160:FATFS/src/ff.c **** 
 161:FATFS/src/ff.c **** 
 162:FATFS/src/ff.c **** 
 163:FATFS/src/ff.c **** /*--------------------------------------------------------------------------
 164:FATFS/src/ff.c **** 
 165:FATFS/src/ff.c ****    Module Private Functions
 166:FATFS/src/ff.c **** 
 167:FATFS/src/ff.c **** ---------------------------------------------------------------------------*/
 168:FATFS/src/ff.c **** 
 169:FATFS/src/ff.c **** 
 170:FATFS/src/ff.c **** /*-----------------------------------------------------------------------*/
 171:FATFS/src/ff.c **** /* String functions                                                      */
 172:FATFS/src/ff.c **** /*-----------------------------------------------------------------------*/
 173:FATFS/src/ff.c **** 
 174:FATFS/src/ff.c **** /* Copy memory to memory */
 175:FATFS/src/ff.c **** static
 176:FATFS/src/ff.c **** void mem_cpy (void* dst, const void* src, int cnt) {
  25              		.loc 1 176 0
  26              		.cfi_startproc
  27              		@ args = 0, pretend = 0, frame = 0
  28              		@ frame_needed = 0, uses_anonymous_args = 0
  29              		@ link register save eliminated.
  30              	.LVL0:
 177:FATFS/src/ff.c **** 	char *d = (char*)dst;
 178:FATFS/src/ff.c **** 	const char *s = (const char *)src;
 179:FATFS/src/ff.c **** 	while (cnt--) *d++ = *s++;
  31              		.loc 1 179 0
  32 0000 04E0     		b	.L2
  33              	.LVL1:
  34              	.L3:
  35              		.loc 1 179 0 is_stmt 0 discriminator 2
  36 0002 0A78     		ldrb	r2, [r1]	@ zero_extendqisi2
  37 0004 0270     		strb	r2, [r0]
  38 0006 0131     		adds	r1, r1, #1
  39              	.LVL2:
  40 0008 0130     		adds	r0, r0, #1
  41              	.LVL3:
  42 000a 1A46     		mov	r2, r3
  43              	.LVL4:
  44              	.L2:
  45              		.loc 1 179 0 discriminator 1
  46 000c 531E     		subs	r3, r2, #1
  47              	.LVL5:
  48 000e 002A     		cmp	r2, #0
  49 0010 F7D1     		bne	.L3
 180:FATFS/src/ff.c **** }
ARM GAS  /tmp/ccnWcupz.s 			page 5


  50              		.loc 1 180 0 is_stmt 1
  51 0012 7047     		bx	lr
  52              		.cfi_endproc
  53              	.LFE29:
  55              		.section	.text.mem_set,"ax",%progbits
  56              		.align	1
  57              		.syntax unified
  58              		.thumb
  59              		.thumb_func
  60              		.fpu softvfp
  62              	mem_set:
  63              	.LFB30:
 181:FATFS/src/ff.c **** 
 182:FATFS/src/ff.c **** /* Fill memory */
 183:FATFS/src/ff.c **** static
 184:FATFS/src/ff.c **** void mem_set (void* dst, int val, int cnt) {
  64              		.loc 1 184 0
  65              		.cfi_startproc
  66              		@ args = 0, pretend = 0, frame = 0
  67              		@ frame_needed = 0, uses_anonymous_args = 0
  68              		@ link register save eliminated.
  69              	.LVL6:
 185:FATFS/src/ff.c **** 	char *d = (char*)dst;
 186:FATFS/src/ff.c **** 	while (cnt--) *d++ = (char)val;
  70              		.loc 1 186 0
  71 0000 02E0     		b	.L5
  72              	.LVL7:
  73              	.L6:
  74              		.loc 1 186 0 is_stmt 0 discriminator 2
  75 0002 0170     		strb	r1, [r0]
  76 0004 0130     		adds	r0, r0, #1
  77              	.LVL8:
  78 0006 1A46     		mov	r2, r3
  79              	.LVL9:
  80              	.L5:
  81              		.loc 1 186 0 discriminator 1
  82 0008 531E     		subs	r3, r2, #1
  83              	.LVL10:
  84 000a 002A     		cmp	r2, #0
  85 000c F9D1     		bne	.L6
 187:FATFS/src/ff.c **** }
  86              		.loc 1 187 0 is_stmt 1
  87 000e 7047     		bx	lr
  88              		.cfi_endproc
  89              	.LFE30:
  91              		.section	.text.mem_cmp,"ax",%progbits
  92              		.align	1
  93              		.syntax unified
  94              		.thumb
  95              		.thumb_func
  96              		.fpu softvfp
  98              	mem_cmp:
  99              	.LFB31:
 188:FATFS/src/ff.c **** 
 189:FATFS/src/ff.c **** /* Compare memory to memory */
 190:FATFS/src/ff.c **** static
 191:FATFS/src/ff.c **** int mem_cmp (const void* dst, const void* src, int cnt) {
ARM GAS  /tmp/ccnWcupz.s 			page 6


 100              		.loc 1 191 0
 101              		.cfi_startproc
 102              		@ args = 0, pretend = 0, frame = 0
 103              		@ frame_needed = 0, uses_anonymous_args = 0
 104              		@ link register save eliminated.
 105              	.LVL11:
 106 0000 70B4     		push	{r4, r5, r6}
 107              	.LCFI0:
 108              		.cfi_def_cfa_offset 12
 109              		.cfi_offset 4, -12
 110              		.cfi_offset 5, -8
 111              		.cfi_offset 6, -4
 112 0002 0346     		mov	r3, r0
 113              	.LVL12:
 192:FATFS/src/ff.c **** 	const char *d = (const char *)dst, *s = (const char *)src;
 193:FATFS/src/ff.c **** 	int r = 0;
 114              		.loc 1 193 0
 115 0004 0020     		movs	r0, #0
 116              	.LVL13:
 194:FATFS/src/ff.c **** 	while (cnt-- && (r = *d++ - *s++) == 0) ;
 117              		.loc 1 194 0
 118 0006 01E0     		b	.L9
 119              	.LVL14:
 120              	.L10:
 121 0008 2946     		mov	r1, r5
 122 000a 3346     		mov	r3, r6
 123              	.LVL15:
 124              	.L9:
 125              		.loc 1 194 0 is_stmt 0 discriminator 2
 126 000c 541E     		subs	r4, r2, #1
 127              	.LVL16:
 128 000e 32B1     		cbz	r2, .L7
 129              		.loc 1 194 0 discriminator 1
 130 0010 5E1C     		adds	r6, r3, #1
 131              	.LVL17:
 132 0012 1878     		ldrb	r0, [r3]	@ zero_extendqisi2
 133              	.LVL18:
 134 0014 4D1C     		adds	r5, r1, #1
 135              	.LVL19:
 136 0016 0B78     		ldrb	r3, [r1]	@ zero_extendqisi2
 137              	.LVL20:
 138 0018 2246     		mov	r2, r4
 139 001a C01A     		subs	r0, r0, r3
 140              	.LVL21:
 141 001c F4D0     		beq	.L10
 142              	.LVL22:
 143              	.L7:
 195:FATFS/src/ff.c **** 	return r;
 196:FATFS/src/ff.c **** }
 144              		.loc 1 196 0 is_stmt 1
 145 001e 70BC     		pop	{r4, r5, r6}
 146              	.LCFI1:
 147              		.cfi_restore 6
 148              		.cfi_restore 5
 149              		.cfi_restore 4
 150              		.cfi_def_cfa_offset 0
 151              	.LVL23:
ARM GAS  /tmp/ccnWcupz.s 			page 7


 152 0020 7047     		bx	lr
 153              		.cfi_endproc
 154              	.LFE31:
 156              		.section	.text.chk_chr,"ax",%progbits
 157              		.align	1
 158              		.syntax unified
 159              		.thumb
 160              		.thumb_func
 161              		.fpu softvfp
 163              	chk_chr:
 164              	.LFB32:
 197:FATFS/src/ff.c **** 
 198:FATFS/src/ff.c **** /* Check if chr is contained in the string */
 199:FATFS/src/ff.c **** static
 200:FATFS/src/ff.c **** int chk_chr (const char* str, int chr) {
 165              		.loc 1 200 0
 166              		.cfi_startproc
 167              		@ args = 0, pretend = 0, frame = 0
 168              		@ frame_needed = 0, uses_anonymous_args = 0
 169              		@ link register save eliminated.
 170              	.LVL24:
 201:FATFS/src/ff.c **** 	while (*str && *str != chr) str++;
 171              		.loc 1 201 0
 172 0000 00E0     		b	.L13
 173              	.L15:
 174              		.loc 1 201 0 is_stmt 0 discriminator 3
 175 0002 0130     		adds	r0, r0, #1
 176              	.LVL25:
 177              	.L13:
 178              		.loc 1 201 0 discriminator 1
 179 0004 0378     		ldrb	r3, [r0]	@ zero_extendqisi2
 180 0006 0BB1     		cbz	r3, .L14
 181              		.loc 1 201 0 discriminator 2
 182 0008 8B42     		cmp	r3, r1
 183 000a FAD1     		bne	.L15
 184              	.L14:
 202:FATFS/src/ff.c **** 	return *str;
 203:FATFS/src/ff.c **** }
 185              		.loc 1 203 0 is_stmt 1
 186 000c 1846     		mov	r0, r3
 187              	.LVL26:
 188 000e 7047     		bx	lr
 189              		.cfi_endproc
 190              	.LFE32:
 192              		.section	.text.pick_lfn,"ax",%progbits
 193              		.align	1
 194              		.syntax unified
 195              		.thumb
 196              		.thumb_func
 197              		.fpu softvfp
 199              	pick_lfn:
 200              	.LFB43:
 204:FATFS/src/ff.c **** 
 205:FATFS/src/ff.c **** 
 206:FATFS/src/ff.c **** 
 207:FATFS/src/ff.c **** /*-----------------------------------------------------------------------*/
 208:FATFS/src/ff.c **** /* Request/Release grant to access the volume                            */
ARM GAS  /tmp/ccnWcupz.s 			page 8


 209:FATFS/src/ff.c **** /*-----------------------------------------------------------------------*/
 210:FATFS/src/ff.c **** #if _FS_REENTRANT
 211:FATFS/src/ff.c **** 
 212:FATFS/src/ff.c **** static
 213:FATFS/src/ff.c **** BOOL lock_fs (
 214:FATFS/src/ff.c **** 	FATFS *fs		/* File system object */
 215:FATFS/src/ff.c **** )
 216:FATFS/src/ff.c **** {
 217:FATFS/src/ff.c **** 	return ff_req_grant(fs->sobj);
 218:FATFS/src/ff.c **** }
 219:FATFS/src/ff.c **** 
 220:FATFS/src/ff.c **** 
 221:FATFS/src/ff.c **** static
 222:FATFS/src/ff.c **** void unlock_fs (
 223:FATFS/src/ff.c **** 	FATFS *fs,		/* File system object */
 224:FATFS/src/ff.c **** 	FRESULT res		/* Result code to be returned */
 225:FATFS/src/ff.c **** )
 226:FATFS/src/ff.c **** {
 227:FATFS/src/ff.c **** 	if (res != FR_NOT_ENABLED &&
 228:FATFS/src/ff.c **** 		res != FR_INVALID_DRIVE &&
 229:FATFS/src/ff.c **** 		res != FR_INVALID_OBJECT &&
 230:FATFS/src/ff.c **** 		res != FR_TIMEOUT) {
 231:FATFS/src/ff.c **** 		ff_rel_grant(fs->sobj);
 232:FATFS/src/ff.c **** 	}
 233:FATFS/src/ff.c **** }
 234:FATFS/src/ff.c **** #endif
 235:FATFS/src/ff.c **** 
 236:FATFS/src/ff.c **** 
 237:FATFS/src/ff.c **** 
 238:FATFS/src/ff.c **** /*-----------------------------------------------------------------------*/
 239:FATFS/src/ff.c **** /* Change window offset                                                  */
 240:FATFS/src/ff.c **** /*-----------------------------------------------------------------------*/
 241:FATFS/src/ff.c **** 
 242:FATFS/src/ff.c **** static
 243:FATFS/src/ff.c **** FRESULT move_window (
 244:FATFS/src/ff.c **** 	FATFS *fs,		/* File system object */
 245:FATFS/src/ff.c **** 	DWORD sector	/* Sector number to make apperance in the fs->win[] */
 246:FATFS/src/ff.c **** )					/* Move to zero only writes back dirty window */
 247:FATFS/src/ff.c **** {
 248:FATFS/src/ff.c **** 	DWORD wsect;
 249:FATFS/src/ff.c **** 
 250:FATFS/src/ff.c **** 
 251:FATFS/src/ff.c **** 	wsect = fs->winsect;
 252:FATFS/src/ff.c **** 	if (wsect != sector) {	/* Changed current window */
 253:FATFS/src/ff.c **** #if !_FS_READONLY
 254:FATFS/src/ff.c **** 		if (fs->wflag) {	/* Write back dirty window if needed */
 255:FATFS/src/ff.c **** 			if (disk_write(fs->drive, fs->win, wsect, 1) != RES_OK)
 256:FATFS/src/ff.c **** 				return FR_DISK_ERR;
 257:FATFS/src/ff.c **** 			fs->wflag = 0;
 258:FATFS/src/ff.c **** 			if (wsect < (fs->fatbase + fs->sects_fat)) {	/* In FAT area */
 259:FATFS/src/ff.c **** 				BYTE nf;
 260:FATFS/src/ff.c **** 				for (nf = fs->n_fats; nf > 1; nf--) {	/* Refrect the change to all FAT copies */
 261:FATFS/src/ff.c **** 					wsect += fs->sects_fat;
 262:FATFS/src/ff.c **** 					disk_write(fs->drive, fs->win, wsect, 1);
 263:FATFS/src/ff.c **** 				}
 264:FATFS/src/ff.c **** 			}
 265:FATFS/src/ff.c **** 		}
ARM GAS  /tmp/ccnWcupz.s 			page 9


 266:FATFS/src/ff.c **** #endif
 267:FATFS/src/ff.c **** 		if (sector) {
 268:FATFS/src/ff.c **** 			if (disk_read(fs->drive, fs->win, sector, 1) != RES_OK)
 269:FATFS/src/ff.c **** 				return FR_DISK_ERR;
 270:FATFS/src/ff.c **** 			fs->winsect = sector;
 271:FATFS/src/ff.c **** 		}
 272:FATFS/src/ff.c **** 	}
 273:FATFS/src/ff.c **** 
 274:FATFS/src/ff.c **** 	return FR_OK;
 275:FATFS/src/ff.c **** }
 276:FATFS/src/ff.c **** 
 277:FATFS/src/ff.c **** 
 278:FATFS/src/ff.c **** 
 279:FATFS/src/ff.c **** 
 280:FATFS/src/ff.c **** /*-----------------------------------------------------------------------*/
 281:FATFS/src/ff.c **** /* Clean-up cached data                                                  */
 282:FATFS/src/ff.c **** /*-----------------------------------------------------------------------*/
 283:FATFS/src/ff.c **** #if !_FS_READONLY
 284:FATFS/src/ff.c **** static
 285:FATFS/src/ff.c **** FRESULT sync (	/* FR_OK: successful, FR_DISK_ERR: failed */
 286:FATFS/src/ff.c **** 	FATFS *fs	/* File system object */
 287:FATFS/src/ff.c **** )
 288:FATFS/src/ff.c **** {
 289:FATFS/src/ff.c **** 	FRESULT res;
 290:FATFS/src/ff.c **** 
 291:FATFS/src/ff.c **** 
 292:FATFS/src/ff.c **** 	res = move_window(fs, 0);
 293:FATFS/src/ff.c **** 	if (res == FR_OK) {
 294:FATFS/src/ff.c **** 		/* Update FSInfo sector if needed */
 295:FATFS/src/ff.c **** 		if (fs->fs_type == FS_FAT32 && fs->fsi_flag) {
 296:FATFS/src/ff.c **** 			fs->winsect = 0;
 297:FATFS/src/ff.c **** 			mem_set(fs->win, 0, 512);
 298:FATFS/src/ff.c **** 			ST_WORD(fs->win+BS_55AA, 0xAA55);
 299:FATFS/src/ff.c **** 			ST_DWORD(fs->win+FSI_LeadSig, 0x41615252);
 300:FATFS/src/ff.c **** 			ST_DWORD(fs->win+FSI_StrucSig, 0x61417272);
 301:FATFS/src/ff.c **** 			ST_DWORD(fs->win+FSI_Free_Count, fs->free_clust);
 302:FATFS/src/ff.c **** 			ST_DWORD(fs->win+FSI_Nxt_Free, fs->last_clust);
 303:FATFS/src/ff.c **** 			disk_write(fs->drive, fs->win, fs->fsi_sector, 1);
 304:FATFS/src/ff.c **** 			fs->fsi_flag = 0;
 305:FATFS/src/ff.c **** 		}
 306:FATFS/src/ff.c **** 		/* Make sure that no pending write process in the physical drive */
 307:FATFS/src/ff.c **** 		if (disk_ioctl(fs->drive, CTRL_SYNC, (void*)NULL) != RES_OK)
 308:FATFS/src/ff.c **** 			res = FR_DISK_ERR;
 309:FATFS/src/ff.c **** 	}
 310:FATFS/src/ff.c **** 
 311:FATFS/src/ff.c **** 	return res;
 312:FATFS/src/ff.c **** }
 313:FATFS/src/ff.c **** #endif
 314:FATFS/src/ff.c **** 
 315:FATFS/src/ff.c **** 
 316:FATFS/src/ff.c **** 
 317:FATFS/src/ff.c **** 
 318:FATFS/src/ff.c **** /*-----------------------------------------------------------------------*/
 319:FATFS/src/ff.c **** /* FAT access - Read value of a FAT entry                                */
 320:FATFS/src/ff.c **** /*-----------------------------------------------------------------------*/
 321:FATFS/src/ff.c **** 
 322:FATFS/src/ff.c **** 
ARM GAS  /tmp/ccnWcupz.s 			page 10


 323:FATFS/src/ff.c **** DWORD get_fat (	/* 0xFFFFFFFF:Disk error, 1:Interal error, Else:Cluster status */
 324:FATFS/src/ff.c **** 	FATFS *fs,	/* File system object */
 325:FATFS/src/ff.c **** 	DWORD clst	/* Cluster# to get the link information */
 326:FATFS/src/ff.c **** )
 327:FATFS/src/ff.c **** {
 328:FATFS/src/ff.c **** 	UINT wc, bc;
 329:FATFS/src/ff.c **** 	DWORD fsect;
 330:FATFS/src/ff.c **** 
 331:FATFS/src/ff.c **** 
 332:FATFS/src/ff.c **** 	if (clst < 2 || clst >= fs->max_clust)	/* Range check */
 333:FATFS/src/ff.c **** 		return 1;
 334:FATFS/src/ff.c **** 
 335:FATFS/src/ff.c **** 	fsect = fs->fatbase;
 336:FATFS/src/ff.c **** 	switch (fs->fs_type) {
 337:FATFS/src/ff.c **** 	case FS_FAT12 :
 338:FATFS/src/ff.c **** 		bc = clst; bc += bc / 2;
 339:FATFS/src/ff.c **** 		if (move_window(fs, fsect + (bc / SS(fs)))) break;
 340:FATFS/src/ff.c **** 		wc = fs->win[bc & (SS(fs) - 1)]; bc++;
 341:FATFS/src/ff.c **** 		if (move_window(fs, fsect + (bc / SS(fs)))) break;
 342:FATFS/src/ff.c **** 		wc |= (WORD)fs->win[bc & (SS(fs) - 1)] << 8;
 343:FATFS/src/ff.c **** 		return (clst & 1) ? (wc >> 4) : (wc & 0xFFF);
 344:FATFS/src/ff.c **** 
 345:FATFS/src/ff.c **** 	case FS_FAT16 :
 346:FATFS/src/ff.c **** 		if (move_window(fs, fsect + (clst / (SS(fs) / 2)))) break;
 347:FATFS/src/ff.c **** 		return LD_WORD(&fs->win[((WORD)clst * 2) & (SS(fs) - 1)]);
 348:FATFS/src/ff.c **** 
 349:FATFS/src/ff.c **** 	case FS_FAT32 :
 350:FATFS/src/ff.c **** 		if (move_window(fs, fsect + (clst / (SS(fs) / 4)))) break;
 351:FATFS/src/ff.c **** 		return LD_DWORD(&fs->win[((WORD)clst * 4) & (SS(fs) - 1)]) & 0x0FFFFFFF;
 352:FATFS/src/ff.c **** 	}
 353:FATFS/src/ff.c **** 
 354:FATFS/src/ff.c **** 	return 0xFFFFFFFF;	/* An error occured at the disk I/O layer */
 355:FATFS/src/ff.c **** }
 356:FATFS/src/ff.c **** 
 357:FATFS/src/ff.c **** 
 358:FATFS/src/ff.c **** 
 359:FATFS/src/ff.c **** 
 360:FATFS/src/ff.c **** /*-----------------------------------------------------------------------*/
 361:FATFS/src/ff.c **** /* FAT access - Change value of a FAT entry                              */
 362:FATFS/src/ff.c **** /*-----------------------------------------------------------------------*/
 363:FATFS/src/ff.c **** #if !_FS_READONLY
 364:FATFS/src/ff.c **** 
 365:FATFS/src/ff.c **** FRESULT put_fat (
 366:FATFS/src/ff.c **** 	FATFS *fs,	/* File system object */
 367:FATFS/src/ff.c **** 	DWORD clst,	/* Cluster# to be changed in range of 2 to fs->max_clust - 1 */
 368:FATFS/src/ff.c **** 	DWORD val	/* New value to mark the cluster */
 369:FATFS/src/ff.c **** )
 370:FATFS/src/ff.c **** {
 371:FATFS/src/ff.c **** 	UINT bc;
 372:FATFS/src/ff.c **** 	BYTE *p;
 373:FATFS/src/ff.c **** 	DWORD fsect;
 374:FATFS/src/ff.c **** 	FRESULT res;
 375:FATFS/src/ff.c **** 
 376:FATFS/src/ff.c **** 
 377:FATFS/src/ff.c **** 	if (clst < 2 || clst >= fs->max_clust) {	/* Range check */
 378:FATFS/src/ff.c **** 		res = FR_INT_ERR;
 379:FATFS/src/ff.c **** 
ARM GAS  /tmp/ccnWcupz.s 			page 11


 380:FATFS/src/ff.c **** 	} else {
 381:FATFS/src/ff.c **** 		fsect = fs->fatbase;
 382:FATFS/src/ff.c **** 		switch (fs->fs_type) {
 383:FATFS/src/ff.c **** 		case FS_FAT12 :
 384:FATFS/src/ff.c **** 			bc = clst; bc += bc / 2;
 385:FATFS/src/ff.c **** 			res = move_window(fs, fsect + (bc / SS(fs)));
 386:FATFS/src/ff.c **** 			if (res != FR_OK) break;
 387:FATFS/src/ff.c **** 			p = &fs->win[bc & (SS(fs) - 1)];
 388:FATFS/src/ff.c **** 			*p = (clst & 1) ? ((*p & 0x0F) | ((BYTE)val << 4)) : (BYTE)val;
 389:FATFS/src/ff.c **** 			bc++;
 390:FATFS/src/ff.c **** 			fs->wflag = 1;
 391:FATFS/src/ff.c **** 			res = move_window(fs, fsect + (bc / SS(fs)));
 392:FATFS/src/ff.c **** 			if (res != FR_OK) break;
 393:FATFS/src/ff.c **** 			p = &fs->win[bc & (SS(fs) - 1)];
 394:FATFS/src/ff.c **** 			*p = (clst & 1) ? (BYTE)(val >> 4) : ((*p & 0xF0) | ((BYTE)(val >> 8) & 0x0F));
 395:FATFS/src/ff.c **** 			break;
 396:FATFS/src/ff.c **** 
 397:FATFS/src/ff.c **** 		case FS_FAT16 :
 398:FATFS/src/ff.c **** 			res = move_window(fs, fsect + (clst / (SS(fs) / 2)));
 399:FATFS/src/ff.c **** 			if (res != FR_OK) break;
 400:FATFS/src/ff.c **** 			ST_WORD(&fs->win[((WORD)clst * 2) & (SS(fs) - 1)], (WORD)val);
 401:FATFS/src/ff.c **** 			break;
 402:FATFS/src/ff.c **** 
 403:FATFS/src/ff.c **** 		case FS_FAT32 :
 404:FATFS/src/ff.c **** 			res = move_window(fs, fsect + (clst / (SS(fs) / 4)));
 405:FATFS/src/ff.c **** 			if (res != FR_OK) break;
 406:FATFS/src/ff.c **** 			ST_DWORD(&fs->win[((WORD)clst * 4) & (SS(fs) - 1)], val);
 407:FATFS/src/ff.c **** 			break;
 408:FATFS/src/ff.c **** 
 409:FATFS/src/ff.c **** 		default :
 410:FATFS/src/ff.c **** 			res = FR_INT_ERR;
 411:FATFS/src/ff.c **** 		}
 412:FATFS/src/ff.c **** 		fs->wflag = 1;
 413:FATFS/src/ff.c **** 	}
 414:FATFS/src/ff.c **** 
 415:FATFS/src/ff.c **** 	return res;
 416:FATFS/src/ff.c **** }
 417:FATFS/src/ff.c **** #endif /* !_FS_READONLY */
 418:FATFS/src/ff.c **** 
 419:FATFS/src/ff.c **** 
 420:FATFS/src/ff.c **** 
 421:FATFS/src/ff.c **** 
 422:FATFS/src/ff.c **** /*-----------------------------------------------------------------------*/
 423:FATFS/src/ff.c **** /* FAT handling - Remove a cluster chain                                 */
 424:FATFS/src/ff.c **** /*-----------------------------------------------------------------------*/
 425:FATFS/src/ff.c **** #if !_FS_READONLY
 426:FATFS/src/ff.c **** static
 427:FATFS/src/ff.c **** FRESULT remove_chain (
 428:FATFS/src/ff.c **** 	FATFS *fs,			/* File system object */
 429:FATFS/src/ff.c **** 	DWORD clst			/* Cluster# to remove a chain from */
 430:FATFS/src/ff.c **** )
 431:FATFS/src/ff.c **** {
 432:FATFS/src/ff.c **** 	FRESULT res;
 433:FATFS/src/ff.c **** 	DWORD nxt;
 434:FATFS/src/ff.c **** 
 435:FATFS/src/ff.c **** 
 436:FATFS/src/ff.c **** 	if (clst < 2 || clst >= fs->max_clust) {	/* Check the range of cluster# */
ARM GAS  /tmp/ccnWcupz.s 			page 12


 437:FATFS/src/ff.c **** 		res = FR_INT_ERR;
 438:FATFS/src/ff.c **** 
 439:FATFS/src/ff.c **** 	} else {
 440:FATFS/src/ff.c **** 		res = FR_OK;
 441:FATFS/src/ff.c **** 		while (clst < fs->max_clust) {			/* Not a last link? */
 442:FATFS/src/ff.c **** 			nxt = get_fat(fs, clst);			/* Get cluster status */
 443:FATFS/src/ff.c **** 			if (nxt == 0) break;				/* Empty cluster? */
 444:FATFS/src/ff.c **** 			if (nxt == 1) { res = FR_INT_ERR; break; }	/* Internal error? */
 445:FATFS/src/ff.c **** 			if (nxt == 0xFFFFFFFF) { res = FR_DISK_ERR; break; }	/* Disk error? */
 446:FATFS/src/ff.c **** 			res = put_fat(fs, clst, 0);			/* Mark the cluster "empty" */
 447:FATFS/src/ff.c **** 			if (res != FR_OK) break;
 448:FATFS/src/ff.c **** 			if (fs->free_clust != 0xFFFFFFFF) {	/* Update FSInfo */
 449:FATFS/src/ff.c **** 				fs->free_clust++;
 450:FATFS/src/ff.c **** 				fs->fsi_flag = 1;
 451:FATFS/src/ff.c **** 			}
 452:FATFS/src/ff.c **** 			clst = nxt;	/* Next cluster */
 453:FATFS/src/ff.c **** 		}
 454:FATFS/src/ff.c **** 	}
 455:FATFS/src/ff.c **** 
 456:FATFS/src/ff.c **** 	return res;
 457:FATFS/src/ff.c **** }
 458:FATFS/src/ff.c **** #endif
 459:FATFS/src/ff.c **** 
 460:FATFS/src/ff.c **** 
 461:FATFS/src/ff.c **** 
 462:FATFS/src/ff.c **** 
 463:FATFS/src/ff.c **** /*-----------------------------------------------------------------------*/
 464:FATFS/src/ff.c **** /* FAT handling - Stretch or Create a cluster chain                      */
 465:FATFS/src/ff.c **** /*-----------------------------------------------------------------------*/
 466:FATFS/src/ff.c **** #if !_FS_READONLY
 467:FATFS/src/ff.c **** static
 468:FATFS/src/ff.c **** DWORD create_chain (	/* 0:No free cluster, 1:Internal error, 0xFFFFFFFF:Disk error, >=2:New cluster
 469:FATFS/src/ff.c **** 	FATFS *fs,			/* File system object */
 470:FATFS/src/ff.c **** 	DWORD clst			/* Cluster# to stretch. 0 means create a new chain. */
 471:FATFS/src/ff.c **** )
 472:FATFS/src/ff.c **** {
 473:FATFS/src/ff.c **** 	DWORD cs, ncl, scl, mcl;
 474:FATFS/src/ff.c **** 
 475:FATFS/src/ff.c **** 
 476:FATFS/src/ff.c **** 	mcl = fs->max_clust;
 477:FATFS/src/ff.c **** 	if (clst == 0) {		/* Create new chain */
 478:FATFS/src/ff.c **** 		scl = fs->last_clust;			/* Get suggested start point */
 479:FATFS/src/ff.c **** 		if (scl == 0 || scl >= mcl) scl = 1;
 480:FATFS/src/ff.c **** 	}
 481:FATFS/src/ff.c **** 	else {					/* Stretch existing chain */
 482:FATFS/src/ff.c **** 		cs = get_fat(fs, clst);			/* Check the cluster status */
 483:FATFS/src/ff.c **** 		if (cs < 2) return 1;			/* It is an invalid cluster */
 484:FATFS/src/ff.c **** 		if (cs < mcl) return cs;		/* It is already followed by next cluster */
 485:FATFS/src/ff.c **** 		scl = clst;
 486:FATFS/src/ff.c **** 	}
 487:FATFS/src/ff.c **** 
 488:FATFS/src/ff.c **** 	ncl = scl;				/* Start cluster */
 489:FATFS/src/ff.c **** 	for (;;) {
 490:FATFS/src/ff.c **** 		ncl++;							/* Next cluster */
 491:FATFS/src/ff.c **** 		if (ncl >= mcl) {				/* Wrap around */
 492:FATFS/src/ff.c **** 			ncl = 2;
 493:FATFS/src/ff.c **** 			if (ncl > scl) return 0;	/* No free custer */
ARM GAS  /tmp/ccnWcupz.s 			page 13


 494:FATFS/src/ff.c **** 		}
 495:FATFS/src/ff.c **** 		cs = get_fat(fs, ncl);			/* Get the cluster status */
 496:FATFS/src/ff.c **** 		if (cs == 0) break;				/* Found a free cluster */
 497:FATFS/src/ff.c **** 		if (cs == 0xFFFFFFFF || cs == 1)/* An error occured */
 498:FATFS/src/ff.c **** 			return cs;
 499:FATFS/src/ff.c **** 		if (ncl == scl) return 0;		/* No free custer */
 500:FATFS/src/ff.c **** 	}
 501:FATFS/src/ff.c **** 
 502:FATFS/src/ff.c **** 	if (put_fat(fs, ncl, 0x0FFFFFFF))	/* Mark the new cluster "in use" */
 503:FATFS/src/ff.c **** 		return 0xFFFFFFFF;
 504:FATFS/src/ff.c **** 	if (clst != 0) {					/* Link it to the previous one if needed */
 505:FATFS/src/ff.c **** 		if (put_fat(fs, clst, ncl))
 506:FATFS/src/ff.c **** 			return 0xFFFFFFFF;
 507:FATFS/src/ff.c **** 	}
 508:FATFS/src/ff.c **** 
 509:FATFS/src/ff.c **** 	fs->last_clust = ncl;				/* Update FSINFO */
 510:FATFS/src/ff.c **** 	if (fs->free_clust != 0xFFFFFFFF) {
 511:FATFS/src/ff.c **** 		fs->free_clust--;
 512:FATFS/src/ff.c **** 		fs->fsi_flag = 1;
 513:FATFS/src/ff.c **** 	}
 514:FATFS/src/ff.c **** 
 515:FATFS/src/ff.c **** 	return ncl;		/* Return new cluster number */
 516:FATFS/src/ff.c **** }
 517:FATFS/src/ff.c **** #endif /* !_FS_READONLY */
 518:FATFS/src/ff.c **** 
 519:FATFS/src/ff.c **** 
 520:FATFS/src/ff.c **** 
 521:FATFS/src/ff.c **** 
 522:FATFS/src/ff.c **** /*-----------------------------------------------------------------------*/
 523:FATFS/src/ff.c **** /* Get sector# from cluster#                                             */
 524:FATFS/src/ff.c **** /*-----------------------------------------------------------------------*/
 525:FATFS/src/ff.c **** 
 526:FATFS/src/ff.c **** 
 527:FATFS/src/ff.c **** DWORD clust2sect (	/* !=0: Sector number, 0: Failed - invalid cluster# */
 528:FATFS/src/ff.c **** 	FATFS *fs,		/* File system object */
 529:FATFS/src/ff.c **** 	DWORD clst		/* Cluster# to be converted */
 530:FATFS/src/ff.c **** )
 531:FATFS/src/ff.c **** {
 532:FATFS/src/ff.c **** 	clst -= 2;
 533:FATFS/src/ff.c **** 	if (clst >= (fs->max_clust - 2)) return 0;		/* Invalid cluster# */
 534:FATFS/src/ff.c **** 	return clst * fs->csize + fs->database;
 535:FATFS/src/ff.c **** }
 536:FATFS/src/ff.c **** 
 537:FATFS/src/ff.c **** 
 538:FATFS/src/ff.c **** 
 539:FATFS/src/ff.c **** 
 540:FATFS/src/ff.c **** /*-----------------------------------------------------------------------*/
 541:FATFS/src/ff.c **** /* Directory handling - Seek directory index                             */
 542:FATFS/src/ff.c **** /*-----------------------------------------------------------------------*/
 543:FATFS/src/ff.c **** 
 544:FATFS/src/ff.c **** static
 545:FATFS/src/ff.c **** FRESULT dir_seek (
 546:FATFS/src/ff.c **** 	DIR *dj,		/* Pointer to directory object */
 547:FATFS/src/ff.c **** 	WORD idx		/* Directory index number */
 548:FATFS/src/ff.c **** )
 549:FATFS/src/ff.c **** {
 550:FATFS/src/ff.c **** 	DWORD clst;
ARM GAS  /tmp/ccnWcupz.s 			page 14


 551:FATFS/src/ff.c **** 	WORD ic;
 552:FATFS/src/ff.c **** 
 553:FATFS/src/ff.c **** 
 554:FATFS/src/ff.c **** 	dj->index = idx;
 555:FATFS/src/ff.c **** 	clst = dj->sclust;
 556:FATFS/src/ff.c **** 	if (clst == 1 || clst >= dj->fs->max_clust)	/* Check start cluster range */
 557:FATFS/src/ff.c **** 		return FR_INT_ERR;
 558:FATFS/src/ff.c **** 	if (!clst && dj->fs->fs_type == FS_FAT32)	/* Replace cluster# 0 with root cluster# if in FAT32 */
 559:FATFS/src/ff.c **** 		clst = dj->fs->dirbase;
 560:FATFS/src/ff.c **** 
 561:FATFS/src/ff.c **** 	if (clst == 0) {	/* Static table */
 562:FATFS/src/ff.c **** 		dj->clust = clst;
 563:FATFS/src/ff.c **** 		if (idx >= dj->fs->n_rootdir)		/* Index is out of range */
 564:FATFS/src/ff.c **** 			return FR_INT_ERR;
 565:FATFS/src/ff.c **** 		dj->sect = dj->fs->dirbase + idx / (SS(dj->fs) / 32);	/* Sector# */
 566:FATFS/src/ff.c **** 	}
 567:FATFS/src/ff.c **** 	else {				/* Dynamic table */
 568:FATFS/src/ff.c **** 		ic = SS(dj->fs) / 32 * dj->fs->csize;	/* Entries per cluster */
 569:FATFS/src/ff.c **** 		while (idx >= ic) {	/* Follow cluster chain */
 570:FATFS/src/ff.c **** 			clst = get_fat(dj->fs, clst);				/* Get next cluster */
 571:FATFS/src/ff.c **** 			if (clst == 0xFFFFFFFF) return FR_DISK_ERR;	/* Disk error */
 572:FATFS/src/ff.c **** 			if (clst < 2 || clst >= dj->fs->max_clust)	/* Reached to end of table or int error */
 573:FATFS/src/ff.c **** 				return FR_INT_ERR;
 574:FATFS/src/ff.c **** 			idx -= ic;
 575:FATFS/src/ff.c **** 		}
 576:FATFS/src/ff.c **** 		dj->clust = clst;
 577:FATFS/src/ff.c **** 		dj->sect = clust2sect(dj->fs, clst) + idx / (SS(dj->fs) / 32);	/* Sector# */
 578:FATFS/src/ff.c **** 	}
 579:FATFS/src/ff.c **** 
 580:FATFS/src/ff.c **** 	dj->dir = dj->fs->win + (idx % (SS(dj->fs) / 32)) * 32;	/* Ptr to the entry in the sector */
 581:FATFS/src/ff.c **** 
 582:FATFS/src/ff.c **** 	return FR_OK;	/* Seek succeeded */
 583:FATFS/src/ff.c **** }
 584:FATFS/src/ff.c **** 
 585:FATFS/src/ff.c **** 
 586:FATFS/src/ff.c **** 
 587:FATFS/src/ff.c **** 
 588:FATFS/src/ff.c **** /*-----------------------------------------------------------------------*/
 589:FATFS/src/ff.c **** /* Directory handling - Move directory index next                        */
 590:FATFS/src/ff.c **** /*-----------------------------------------------------------------------*/
 591:FATFS/src/ff.c **** 
 592:FATFS/src/ff.c **** static
 593:FATFS/src/ff.c **** FRESULT dir_next (	/* FR_OK:Succeeded, FR_NO_FILE:End of table, FR_DENIED:EOT and could not streach
 594:FATFS/src/ff.c **** 	DIR *dj,		/* Pointer to directory object */
 595:FATFS/src/ff.c **** 	BOOL streach	/* FALSE: Do not streach table, TRUE: Streach table if needed */
 596:FATFS/src/ff.c **** )
 597:FATFS/src/ff.c **** {
 598:FATFS/src/ff.c **** 	DWORD clst;
 599:FATFS/src/ff.c **** 	WORD i;
 600:FATFS/src/ff.c **** 
 601:FATFS/src/ff.c **** 
 602:FATFS/src/ff.c **** 	i = dj->index + 1;
 603:FATFS/src/ff.c **** 	if (!i || !dj->sect)	/* Report EOT when index has reached 65535 */
 604:FATFS/src/ff.c **** 		return FR_NO_FILE;
 605:FATFS/src/ff.c **** 
 606:FATFS/src/ff.c **** 	if (!(i % (SS(dj->fs) / 32))) {	/* Sector changed? */
 607:FATFS/src/ff.c **** 		dj->sect++;					/* Next sector */
ARM GAS  /tmp/ccnWcupz.s 			page 15


 608:FATFS/src/ff.c **** 
 609:FATFS/src/ff.c **** 		if (dj->clust == 0) {	/* Static table */
 610:FATFS/src/ff.c **** 			if (i >= dj->fs->n_rootdir)	/* Report EOT when end of table */
 611:FATFS/src/ff.c **** 				return FR_NO_FILE;
 612:FATFS/src/ff.c **** 		}
 613:FATFS/src/ff.c **** 		else {					/* Dynamic table */
 614:FATFS/src/ff.c **** 			if (((i / (SS(dj->fs) / 32)) & (dj->fs->csize - 1)) == 0) {	/* Cluster changed? */
 615:FATFS/src/ff.c **** 				clst = get_fat(dj->fs, dj->clust);				/* Get next cluster */
 616:FATFS/src/ff.c **** 				if (clst <= 1) return FR_INT_ERR;
 617:FATFS/src/ff.c **** 				if (clst == 0xFFFFFFFF) return FR_DISK_ERR;
 618:FATFS/src/ff.c **** 				if (clst >= dj->fs->max_clust) {				/* When it reached end of dynamic table */
 619:FATFS/src/ff.c **** #if !_FS_READONLY
 620:FATFS/src/ff.c **** 					BYTE c;
 621:FATFS/src/ff.c **** 					if (!streach) return FR_NO_FILE;			/* When do not streach, report EOT */
 622:FATFS/src/ff.c **** 					clst = create_chain(dj->fs, dj->clust);		/* Streach cluster chain */
 623:FATFS/src/ff.c **** 					if (clst == 0) return FR_DENIED;			/* No free cluster */
 624:FATFS/src/ff.c **** 					if (clst == 1) return FR_INT_ERR;
 625:FATFS/src/ff.c **** 					if (clst == 0xFFFFFFFF) return FR_DISK_ERR;
 626:FATFS/src/ff.c **** 					/* Clean-up streached table */
 627:FATFS/src/ff.c **** 					if (move_window(dj->fs, 0)) return FR_DISK_ERR;	/* Flush active window */
 628:FATFS/src/ff.c **** 					mem_set(dj->fs->win, 0, SS(dj->fs));			/* Clear window buffer */
 629:FATFS/src/ff.c **** 					dj->fs->winsect = clust2sect(dj->fs, clst);	/* Cluster start sector */
 630:FATFS/src/ff.c **** 					for (c = 0; c < dj->fs->csize; c++) {		/* Fill the new cluster with 0 */
 631:FATFS/src/ff.c **** 						dj->fs->wflag = 1;
 632:FATFS/src/ff.c **** 						if (move_window(dj->fs, 0)) return FR_DISK_ERR;
 633:FATFS/src/ff.c **** 						dj->fs->winsect++;
 634:FATFS/src/ff.c **** 					}
 635:FATFS/src/ff.c **** 					dj->fs->winsect -= c;						/* Rewind window address */
 636:FATFS/src/ff.c **** #else
 637:FATFS/src/ff.c **** 					return FR_NO_FILE;			/* Report EOT */
 638:FATFS/src/ff.c **** #endif
 639:FATFS/src/ff.c **** 				}
 640:FATFS/src/ff.c **** 				dj->clust = clst;				/* Initialize data for new cluster */
 641:FATFS/src/ff.c **** 				dj->sect = clust2sect(dj->fs, clst);
 642:FATFS/src/ff.c **** 			}
 643:FATFS/src/ff.c **** 		}
 644:FATFS/src/ff.c **** 	}
 645:FATFS/src/ff.c **** 
 646:FATFS/src/ff.c **** 	dj->index = i;
 647:FATFS/src/ff.c **** 	dj->dir = dj->fs->win + (i % (SS(dj->fs) / 32)) * 32;
 648:FATFS/src/ff.c **** 
 649:FATFS/src/ff.c **** 	return FR_OK;
 650:FATFS/src/ff.c **** }
 651:FATFS/src/ff.c **** 
 652:FATFS/src/ff.c **** 
 653:FATFS/src/ff.c **** 
 654:FATFS/src/ff.c **** 
 655:FATFS/src/ff.c **** /*-----------------------------------------------------------------------*/
 656:FATFS/src/ff.c **** /* LFN handling - Test/Pick/Fit an LFN segment from/to directory entry   */
 657:FATFS/src/ff.c **** /*-----------------------------------------------------------------------*/
 658:FATFS/src/ff.c **** #if _USE_LFN
 659:FATFS/src/ff.c **** static
 660:FATFS/src/ff.c **** const BYTE LfnOfs[] = {1,3,5,7,9,14,16,18,20,22,24,28,30};	/* Offset of LFN chars in the directory 
 661:FATFS/src/ff.c **** 
 662:FATFS/src/ff.c **** 
 663:FATFS/src/ff.c **** static
 664:FATFS/src/ff.c **** BOOL cmp_lfn (			/* TRUE:Matched, FALSE:Not matched */
ARM GAS  /tmp/ccnWcupz.s 			page 16


 665:FATFS/src/ff.c **** 	WCHAR *lfnbuf,		/* Pointer to the LFN to be compared */
 666:FATFS/src/ff.c **** 	BYTE *dir			/* Pointer to the directory entry containing a part of LFN */
 667:FATFS/src/ff.c **** )
 668:FATFS/src/ff.c **** {
 669:FATFS/src/ff.c **** 	int i, s;
 670:FATFS/src/ff.c **** 	WCHAR wc, uc;
 671:FATFS/src/ff.c **** 
 672:FATFS/src/ff.c **** 
 673:FATFS/src/ff.c **** 	i = ((dir[LDIR_Ord] & 0xBF) - 1) * 13;	/* Get offset in the LFN buffer */
 674:FATFS/src/ff.c **** 	s = 0; wc = 1;
 675:FATFS/src/ff.c **** 	do {
 676:FATFS/src/ff.c **** 		uc = LD_WORD(dir+LfnOfs[s]);	/* Pick an LFN character from the entry */
 677:FATFS/src/ff.c **** 		if (wc) {	/* Last char has not been processed */
 678:FATFS/src/ff.c **** 			wc = ff_wtoupper(uc);		/* Convert it to upper case */
 679:FATFS/src/ff.c **** 			if (i >= _MAX_LFN || wc != ff_wtoupper(lfnbuf[i++]))	/* Compare it */
 680:FATFS/src/ff.c **** 				return FALSE;			/* Not matched */
 681:FATFS/src/ff.c **** 		} else {
 682:FATFS/src/ff.c **** 			if (uc != 0xFFFF) return FALSE;	/* Check filler */
 683:FATFS/src/ff.c **** 		}
 684:FATFS/src/ff.c **** 	} while (++s < 13);				/* Repeat until all chars in the entry are checked */
 685:FATFS/src/ff.c **** 
 686:FATFS/src/ff.c **** 	if ((dir[LDIR_Ord] & 0x40) && wc && lfnbuf[i])	/* Last segment matched but different length */
 687:FATFS/src/ff.c **** 		return FALSE;
 688:FATFS/src/ff.c **** 
 689:FATFS/src/ff.c **** 	return TRUE;					/* The part of LFN matched */
 690:FATFS/src/ff.c **** }
 691:FATFS/src/ff.c **** 
 692:FATFS/src/ff.c **** 
 693:FATFS/src/ff.c **** 
 694:FATFS/src/ff.c **** static
 695:FATFS/src/ff.c **** BOOL pick_lfn (			/* TRUE:Succeeded, FALSE:Buffer overflow */
 696:FATFS/src/ff.c **** 	WCHAR *lfnbuf,		/* Pointer to the Unicode-LFN buffer */
 697:FATFS/src/ff.c **** 	BYTE *dir			/* Pointer to the directory entry */
 698:FATFS/src/ff.c **** )
 699:FATFS/src/ff.c **** {
 201              		.loc 1 699 0
 202              		.cfi_startproc
 203              		@ args = 0, pretend = 0, frame = 0
 204              		@ frame_needed = 0, uses_anonymous_args = 0
 205              		@ link register save eliminated.
 206              	.LVL27:
 207 0000 F0B4     		push	{r4, r5, r6, r7}
 208              	.LCFI2:
 209              		.cfi_def_cfa_offset 16
 210              		.cfi_offset 4, -16
 211              		.cfi_offset 5, -12
 212              		.cfi_offset 6, -8
 213              		.cfi_offset 7, -4
 700:FATFS/src/ff.c **** 	int i, s;
 701:FATFS/src/ff.c **** 	WCHAR wc, uc;
 702:FATFS/src/ff.c **** 
 703:FATFS/src/ff.c **** 
 704:FATFS/src/ff.c **** 	i = ((dir[LDIR_Ord] & 0x3F) - 1) * 13;	/* Offset in the LFN buffer */
 214              		.loc 1 704 0
 215 0002 0C78     		ldrb	r4, [r1]	@ zero_extendqisi2
 216 0004 04F03F04 		and	r4, r4, #63
 217 0008 013C     		subs	r4, r4, #1
ARM GAS  /tmp/ccnWcupz.s 			page 17


 218 000a 04EB4403 		add	r3, r4, r4, lsl #1
 219 000e 04EB8304 		add	r4, r4, r3, lsl #2
 220              	.LVL28:
 705:FATFS/src/ff.c **** 
 706:FATFS/src/ff.c **** 	s = 0; wc = 1;
 221              		.loc 1 706 0
 222 0012 0127     		movs	r7, #1
 223 0014 0022     		movs	r2, #0
 224 0016 06E0     		b	.L20
 225              	.LVL29:
 226              	.L17:
 707:FATFS/src/ff.c **** 	do {
 708:FATFS/src/ff.c **** 		uc = LD_WORD(dir+LfnOfs[s]);			/* Pick an LFN character from the entry */
 709:FATFS/src/ff.c **** 		if (wc) {	/* Last char has not been processed */
 710:FATFS/src/ff.c **** 			if (i >= _MAX_LFN) return FALSE;	/* Buffer overflow? */
 711:FATFS/src/ff.c **** 			lfnbuf[i++] = wc = uc;				/* Store it */
 712:FATFS/src/ff.c **** 		} else {
 713:FATFS/src/ff.c **** 			if (uc != 0xFFFF) return FALSE;		/* Check filler */
 227              		.loc 1 713 0
 228 0018 4FF6FF75 		movw	r5, #65535
 229 001c AB42     		cmp	r3, r5
 230 001e 1FD1     		bne	.L22
 231              	.LVL30:
 232              	.L19:
 714:FATFS/src/ff.c **** 		}
 715:FATFS/src/ff.c **** 	} while (++s < 13);						/* Read all character in the entry */
 233              		.loc 1 715 0
 234 0020 0132     		adds	r2, r2, #1
 235              	.LVL31:
 236 0022 0C2A     		cmp	r2, #12
 237 0024 0FDC     		bgt	.L26
 238              	.LVL32:
 239              	.L20:
 708:FATFS/src/ff.c **** 		if (wc) {	/* Last char has not been processed */
 240              		.loc 1 708 0
 241 0026 124B     		ldr	r3, .L27
 242 0028 9D5C     		ldrb	r5, [r3, r2]	@ zero_extendqisi2
 243 002a 6B1C     		adds	r3, r5, #1
 244 002c CE5C     		ldrb	r6, [r1, r3]	@ zero_extendqisi2
 245 002e 4B5D     		ldrb	r3, [r1, r5]	@ zero_extendqisi2
 246 0030 43EA0623 		orr	r3, r3, r6, lsl #8
 247              	.LVL33:
 709:FATFS/src/ff.c **** 			if (i >= _MAX_LFN) return FALSE;	/* Buffer overflow? */
 248              		.loc 1 709 0
 249 0034 002F     		cmp	r7, #0
 250 0036 EFD0     		beq	.L17
 710:FATFS/src/ff.c **** 			lfnbuf[i++] = wc = uc;				/* Store it */
 251              		.loc 1 710 0
 252 0038 FE2C     		cmp	r4, #254
 253 003a 0FDC     		bgt	.L21
 254              	.LVL34:
 711:FATFS/src/ff.c **** 		} else {
 255              		.loc 1 711 0
 256 003c 20F81430 		strh	r3, [r0, r4, lsl #1]	@ movhi
 257 0040 1F46     		mov	r7, r3
 258 0042 0134     		adds	r4, r4, #1
 259              	.LVL35:
ARM GAS  /tmp/ccnWcupz.s 			page 18


 260 0044 ECE7     		b	.L19
 261              	.LVL36:
 262              	.L26:
 716:FATFS/src/ff.c **** 
 717:FATFS/src/ff.c **** 	if (dir[LDIR_Ord] & 0x40) {				/* Put terminator if it is the last LFN part */
 263              		.loc 1 717 0
 264 0046 0B78     		ldrb	r3, [r1]	@ zero_extendqisi2
 265              	.LVL37:
 266 0048 13F0400F 		tst	r3, #64
 267 004c 0AD0     		beq	.L23
 718:FATFS/src/ff.c **** 		if (i >= _MAX_LFN) return FALSE;	/* Buffer overflow? */
 268              		.loc 1 718 0
 269 004e FE2C     		cmp	r4, #254
 270 0050 0BDC     		bgt	.L24
 719:FATFS/src/ff.c **** 		lfnbuf[i] = 0;
 271              		.loc 1 719 0
 272 0052 0023     		movs	r3, #0
 273 0054 20F81430 		strh	r3, [r0, r4, lsl #1]	@ movhi
 720:FATFS/src/ff.c **** 	}
 721:FATFS/src/ff.c **** 
 722:FATFS/src/ff.c **** 	return TRUE;
 274              		.loc 1 722 0
 275 0058 0120     		movs	r0, #1
 276              	.LVL38:
 277 005a 04E0     		b	.L18
 278              	.LVL39:
 279              	.L21:
 710:FATFS/src/ff.c **** 			lfnbuf[i++] = wc = uc;				/* Store it */
 280              		.loc 1 710 0
 281 005c 0020     		movs	r0, #0
 282              	.LVL40:
 283 005e 02E0     		b	.L18
 284              	.LVL41:
 285              	.L22:
 713:FATFS/src/ff.c **** 		}
 286              		.loc 1 713 0
 287 0060 0020     		movs	r0, #0
 288              	.LVL42:
 289 0062 00E0     		b	.L18
 290              	.LVL43:
 291              	.L23:
 292              		.loc 1 722 0
 293 0064 0120     		movs	r0, #1
 294              	.LVL44:
 295              	.L18:
 723:FATFS/src/ff.c **** }
 296              		.loc 1 723 0
 297 0066 F0BC     		pop	{r4, r5, r6, r7}
 298              	.LCFI3:
 299              		.cfi_remember_state
 300              		.cfi_restore 7
 301              		.cfi_restore 6
 302              		.cfi_restore 5
 303              		.cfi_restore 4
 304              		.cfi_def_cfa_offset 0
 305              	.LVL45:
 306 0068 7047     		bx	lr
ARM GAS  /tmp/ccnWcupz.s 			page 19


 307              	.LVL46:
 308              	.L24:
 309              	.LCFI4:
 310              		.cfi_restore_state
 718:FATFS/src/ff.c **** 		lfnbuf[i] = 0;
 311              		.loc 1 718 0
 312 006a 0020     		movs	r0, #0
 313              	.LVL47:
 314 006c FBE7     		b	.L18
 315              	.L28:
 316 006e 00BF     		.align	2
 317              	.L27:
 318 0070 00000000 		.word	.LANCHOR0
 319              		.cfi_endproc
 320              	.LFE43:
 322              		.section	.text.fit_lfn,"ax",%progbits
 323              		.align	1
 324              		.syntax unified
 325              		.thumb
 326              		.thumb_func
 327              		.fpu softvfp
 329              	fit_lfn:
 330              	.LFB44:
 724:FATFS/src/ff.c **** 
 725:FATFS/src/ff.c **** 
 726:FATFS/src/ff.c **** #if !_FS_READONLY
 727:FATFS/src/ff.c **** static
 728:FATFS/src/ff.c **** void fit_lfn (
 729:FATFS/src/ff.c **** 	const WCHAR *lfnbuf,	/* Pointer to the LFN buffer */
 730:FATFS/src/ff.c **** 	BYTE *dir,				/* Pointer to the directory entry */
 731:FATFS/src/ff.c **** 	BYTE ord,				/* LFN order (1-20) */
 732:FATFS/src/ff.c **** 	BYTE sum				/* SFN sum */
 733:FATFS/src/ff.c **** )
 734:FATFS/src/ff.c **** {
 331              		.loc 1 734 0
 332              		.cfi_startproc
 333              		@ args = 0, pretend = 0, frame = 0
 334              		@ frame_needed = 0, uses_anonymous_args = 0
 335              		@ link register save eliminated.
 336              	.LVL48:
 337 0000 F0B4     		push	{r4, r5, r6, r7}
 338              	.LCFI5:
 339              		.cfi_def_cfa_offset 16
 340              		.cfi_offset 4, -16
 341              		.cfi_offset 5, -12
 342              		.cfi_offset 6, -8
 343              		.cfi_offset 7, -4
 735:FATFS/src/ff.c **** 	int i, s;
 736:FATFS/src/ff.c **** 	WCHAR wc;
 737:FATFS/src/ff.c **** 
 738:FATFS/src/ff.c **** 
 739:FATFS/src/ff.c **** 	dir[LDIR_Chksum] = sum;			/* Set check sum */
 344              		.loc 1 739 0
 345 0002 4B73     		strb	r3, [r1, #13]
 740:FATFS/src/ff.c **** 	dir[LDIR_Attr] = AM_LFN;		/* Set attribute. LFN entry */
 346              		.loc 1 740 0
 347 0004 0F23     		movs	r3, #15
ARM GAS  /tmp/ccnWcupz.s 			page 20


 348              	.LVL49:
 349 0006 CB72     		strb	r3, [r1, #11]
 741:FATFS/src/ff.c **** 	dir[LDIR_Type] = 0;
 350              		.loc 1 741 0
 351 0008 0025     		movs	r5, #0
 352 000a 0D73     		strb	r5, [r1, #12]
 742:FATFS/src/ff.c **** 	ST_WORD(dir+LDIR_FstClusLO, 0);
 353              		.loc 1 742 0
 354 000c 8D76     		strb	r5, [r1, #26]
 355 000e CD76     		strb	r5, [r1, #27]
 743:FATFS/src/ff.c **** 
 744:FATFS/src/ff.c **** 	i = (ord - 1) * 13;				/* Get offset in the LFN buffer */
 356              		.loc 1 744 0
 357 0010 561E     		subs	r6, r2, #1
 358 0012 06EB4603 		add	r3, r6, r6, lsl #1
 359 0016 06EB8306 		add	r6, r6, r3, lsl #2
 360              	.LVL50:
 745:FATFS/src/ff.c **** 	s = wc = 0;
 361              		.loc 1 745 0
 362 001a 2B46     		mov	r3, r5
 363 001c 02E0     		b	.L32
 364              	.LVL51:
 365              	.L31:
 746:FATFS/src/ff.c **** 	do {
 747:FATFS/src/ff.c **** 		if (wc != 0xFFFF) wc = lfnbuf[i++];	/* Get an effective char */
 748:FATFS/src/ff.c **** 		ST_WORD(dir+LfnOfs[s], wc);	/* Put it */
 749:FATFS/src/ff.c **** 		if (!wc) wc = 0xFFFF;		/* Padding chars following last char */
 750:FATFS/src/ff.c **** 	} while (++s < 13);
 366              		.loc 1 750 0
 367 001e 0135     		adds	r5, r5, #1
 368              	.LVL52:
 369 0020 0C2D     		cmp	r5, #12
 370 0022 11DC     		bgt	.L37
 371              	.LVL53:
 372              	.L32:
 747:FATFS/src/ff.c **** 		ST_WORD(dir+LfnOfs[s], wc);	/* Put it */
 373              		.loc 1 747 0
 374 0024 4FF6FF74 		movw	r4, #65535
 375 0028 A342     		cmp	r3, r4
 376 002a 02D0     		beq	.L30
 377              	.LVL54:
 747:FATFS/src/ff.c **** 		ST_WORD(dir+LfnOfs[s], wc);	/* Put it */
 378              		.loc 1 747 0 is_stmt 0 discriminator 1
 379 002c 30F81630 		ldrh	r3, [r0, r6, lsl #1]
 380              	.LVL55:
 381 0030 0136     		adds	r6, r6, #1
 382              	.LVL56:
 383              	.L30:
 748:FATFS/src/ff.c **** 		if (!wc) wc = 0xFFFF;		/* Padding chars following last char */
 384              		.loc 1 748 0 is_stmt 1
 385 0032 0B4C     		ldr	r4, .L38
 386 0034 645D     		ldrb	r4, [r4, r5]	@ zero_extendqisi2
 387 0036 0B55     		strb	r3, [r1, r4]
 388 0038 0134     		adds	r4, r4, #1
 389 003a 1F0A     		lsrs	r7, r3, #8
 390 003c 0F55     		strb	r7, [r1, r4]
 749:FATFS/src/ff.c **** 	} while (++s < 13);
ARM GAS  /tmp/ccnWcupz.s 			page 21


 391              		.loc 1 749 0
 392 003e 002B     		cmp	r3, #0
 393 0040 EDD1     		bne	.L31
 394 0042 4FF6FF73 		movw	r3, #65535
 395              	.LVL57:
 396 0046 EAE7     		b	.L31
 397              	.LVL58:
 398              	.L37:
 751:FATFS/src/ff.c **** 	if (wc == 0xFFFF || !lfnbuf[i]) ord |= 0x40;	/* Bottom LFN part is the start of LFN sequence */
 399              		.loc 1 751 0
 400 0048 4FF6FF74 		movw	r4, #65535
 401 004c A342     		cmp	r3, r4
 402 004e 02D0     		beq	.L33
 403              		.loc 1 751 0 is_stmt 0 discriminator 2
 404 0050 30F81630 		ldrh	r3, [r0, r6, lsl #1]
 405              	.LVL59:
 406 0054 0BB9     		cbnz	r3, .L34
 407              	.L33:
 408              		.loc 1 751 0 discriminator 3
 409 0056 42F04002 		orr	r2, r2, #64
 410              	.LVL60:
 411              	.L34:
 752:FATFS/src/ff.c **** 	dir[LDIR_Ord] = ord;			/* Set the LFN order */
 412              		.loc 1 752 0 is_stmt 1
 413 005a 0A70     		strb	r2, [r1]
 753:FATFS/src/ff.c **** }
 414              		.loc 1 753 0
 415 005c F0BC     		pop	{r4, r5, r6, r7}
 416              	.LCFI6:
 417              		.cfi_restore 7
 418              		.cfi_restore 6
 419              		.cfi_restore 5
 420              		.cfi_restore 4
 421              		.cfi_def_cfa_offset 0
 422              	.LVL61:
 423 005e 7047     		bx	lr
 424              	.L39:
 425              		.align	2
 426              	.L38:
 427 0060 00000000 		.word	.LANCHOR0
 428              		.cfi_endproc
 429              	.LFE44:
 431              		.section	.text.sum_sfn,"ax",%progbits
 432              		.align	1
 433              		.syntax unified
 434              		.thumb
 435              		.thumb_func
 436              		.fpu softvfp
 438              	sum_sfn:
 439              	.LFB46:
 754:FATFS/src/ff.c **** 
 755:FATFS/src/ff.c **** #endif
 756:FATFS/src/ff.c **** #endif
 757:FATFS/src/ff.c **** 
 758:FATFS/src/ff.c **** 
 759:FATFS/src/ff.c **** 
 760:FATFS/src/ff.c **** /*-----------------------------------------------------------------------*/
ARM GAS  /tmp/ccnWcupz.s 			page 22


 761:FATFS/src/ff.c **** /* Create numbered name                                                  */
 762:FATFS/src/ff.c **** /*-----------------------------------------------------------------------*/
 763:FATFS/src/ff.c **** #if _USE_LFN
 764:FATFS/src/ff.c **** void gen_numname (
 765:FATFS/src/ff.c **** 	BYTE *dst,			/* Pointer to genartated SFN */
 766:FATFS/src/ff.c **** 	const BYTE *src,	/* Pointer to source SFN to be modified */
 767:FATFS/src/ff.c **** 	const WCHAR *lfn,	/* Pointer to LFN */
 768:FATFS/src/ff.c **** 	WORD num			/* Sequense number */
 769:FATFS/src/ff.c **** )
 770:FATFS/src/ff.c **** {
 771:FATFS/src/ff.c **** 	char ns[8];
 772:FATFS/src/ff.c **** 	int i, j;
 773:FATFS/src/ff.c **** 
 774:FATFS/src/ff.c **** 
 775:FATFS/src/ff.c **** 	mem_cpy(dst, src, 11);
 776:FATFS/src/ff.c **** 
 777:FATFS/src/ff.c **** 	if (num > 5) {	/* On many collisions, generate a hash number instead of sequencial number */
 778:FATFS/src/ff.c **** 		do num = (num >> 1) + (num << 15) + (WORD)*lfn++; while (*lfn);
 779:FATFS/src/ff.c **** 	}
 780:FATFS/src/ff.c **** 
 781:FATFS/src/ff.c **** 	/* itoa */
 782:FATFS/src/ff.c **** 	i = 7;
 783:FATFS/src/ff.c **** 	do {
 784:FATFS/src/ff.c **** 		ns[i--] = (num % 10) + '0';
 785:FATFS/src/ff.c **** 		num /= 10;
 786:FATFS/src/ff.c **** 	} while (num);
 787:FATFS/src/ff.c **** 	ns[i] = '~';
 788:FATFS/src/ff.c **** 
 789:FATFS/src/ff.c **** 	/* Append the number */
 790:FATFS/src/ff.c **** 	for (j = 0; j < i && dst[j] != ' '; j++) {
 791:FATFS/src/ff.c **** 		if (IsDBCS1(dst[j])) {
 792:FATFS/src/ff.c **** 			if (j == i - 1) break;
 793:FATFS/src/ff.c **** 			j++;
 794:FATFS/src/ff.c **** 		}
 795:FATFS/src/ff.c **** 	}
 796:FATFS/src/ff.c **** 	do {
 797:FATFS/src/ff.c **** 		dst[j++] = (i < 8) ? ns[i++] : ' ';
 798:FATFS/src/ff.c **** 	} while (j < 8);
 799:FATFS/src/ff.c **** }
 800:FATFS/src/ff.c **** #endif
 801:FATFS/src/ff.c **** 
 802:FATFS/src/ff.c **** 
 803:FATFS/src/ff.c **** 
 804:FATFS/src/ff.c **** 
 805:FATFS/src/ff.c **** /*-----------------------------------------------------------------------*/
 806:FATFS/src/ff.c **** /* Calculate sum of an SFN                                               */
 807:FATFS/src/ff.c **** /*-----------------------------------------------------------------------*/
 808:FATFS/src/ff.c **** #if _USE_LFN
 809:FATFS/src/ff.c **** static
 810:FATFS/src/ff.c **** BYTE sum_sfn (
 811:FATFS/src/ff.c **** 	const BYTE *dir		/* Ptr to directory entry */
 812:FATFS/src/ff.c **** )
 813:FATFS/src/ff.c **** {
 440              		.loc 1 813 0
 441              		.cfi_startproc
 442              		@ args = 0, pretend = 0, frame = 0
 443              		@ frame_needed = 0, uses_anonymous_args = 0
ARM GAS  /tmp/ccnWcupz.s 			page 23


 444              		@ link register save eliminated.
 445              	.LVL62:
 446 0000 0146     		mov	r1, r0
 447              	.LVL63:
 814:FATFS/src/ff.c **** 	BYTE sum = 0;
 815:FATFS/src/ff.c **** 	int n = 11;
 448              		.loc 1 815 0
 449 0002 0B22     		movs	r2, #11
 814:FATFS/src/ff.c **** 	BYTE sum = 0;
 450              		.loc 1 814 0
 451 0004 0020     		movs	r0, #0
 452              	.LVL64:
 453              	.L41:
 816:FATFS/src/ff.c **** 
 817:FATFS/src/ff.c **** 	do sum = (sum >> 1) + (sum << 7) + *dir++; while (--n);
 454              		.loc 1 817 0 discriminator 1
 455 0006 C301     		lsls	r3, r0, #7
 456 0008 43EA5003 		orr	r3, r3, r0, lsr #1
 457 000c DBB2     		uxtb	r3, r3
 458              	.LVL65:
 459 000e 0878     		ldrb	r0, [r1]	@ zero_extendqisi2
 460              	.LVL66:
 461 0010 0344     		add	r3, r3, r0
 462 0012 D8B2     		uxtb	r0, r3
 463              	.LVL67:
 464 0014 0131     		adds	r1, r1, #1
 465              	.LVL68:
 466 0016 013A     		subs	r2, r2, #1
 467              	.LVL69:
 468 0018 F5D1     		bne	.L41
 818:FATFS/src/ff.c **** 	return sum;
 819:FATFS/src/ff.c **** }
 469              		.loc 1 819 0
 470 001a 7047     		bx	lr
 471              		.cfi_endproc
 472              	.LFE46:
 474              		.section	.text.move_window,"ax",%progbits
 475              		.align	1
 476              		.syntax unified
 477              		.thumb
 478              		.thumb_func
 479              		.fpu softvfp
 481              	move_window:
 482              	.LFB33:
 247:FATFS/src/ff.c **** 	DWORD wsect;
 483              		.loc 1 247 0
 484              		.cfi_startproc
 485              		@ args = 0, pretend = 0, frame = 0
 486              		@ frame_needed = 0, uses_anonymous_args = 0
 487              	.LVL70:
 488 0000 2DE9F041 		push	{r4, r5, r6, r7, r8, lr}
 489              	.LCFI7:
 490              		.cfi_def_cfa_offset 24
 491              		.cfi_offset 4, -24
 492              		.cfi_offset 5, -20
 493              		.cfi_offset 6, -16
 494              		.cfi_offset 7, -12
ARM GAS  /tmp/ccnWcupz.s 			page 24


 495              		.cfi_offset 8, -8
 496              		.cfi_offset 14, -4
 251:FATFS/src/ff.c **** 	if (wsect != sector) {	/* Changed current window */
 497              		.loc 1 251 0
 498 0004 066B     		ldr	r6, [r0, #48]
 499              	.LVL71:
 252:FATFS/src/ff.c **** #if !_FS_READONLY
 500              		.loc 1 252 0
 501 0006 8E42     		cmp	r6, r1
 502 0008 30D0     		beq	.L47
 503 000a 0D46     		mov	r5, r1
 504 000c 0446     		mov	r4, r0
 254:FATFS/src/ff.c **** 			if (disk_write(fs->drive, fs->win, wsect, 1) != RES_OK)
 505              		.loc 1 254 0
 506 000e 0379     		ldrb	r3, [r0, #4]	@ zero_extendqisi2
 507 0010 1BB9     		cbnz	r3, .L52
 508              	.LVL72:
 509              	.L44:
 267:FATFS/src/ff.c **** 			if (disk_read(fs->drive, fs->win, sector, 1) != RES_OK)
 510              		.loc 1 267 0
 511 0012 0DBB     		cbnz	r5, .L53
 274:FATFS/src/ff.c **** }
 512              		.loc 1 274 0
 513 0014 0020     		movs	r0, #0
 514              	.LVL73:
 515              	.L43:
 275:FATFS/src/ff.c **** 
 516              		.loc 1 275 0
 517 0016 BDE8F081 		pop	{r4, r5, r6, r7, r8, pc}
 518              	.LVL74:
 519              	.L52:
 255:FATFS/src/ff.c **** 				return FR_DISK_ERR;
 520              		.loc 1 255 0
 521 001a 00F13408 		add	r8, r0, #52
 522 001e 0123     		movs	r3, #1
 523 0020 3246     		mov	r2, r6
 524 0022 4146     		mov	r1, r8
 525              	.LVL75:
 526 0024 4078     		ldrb	r0, [r0, #1]	@ zero_extendqisi2
 527              	.LVL76:
 528 0026 FFF7FEFF 		bl	disk_write
 529              	.LVL77:
 530 002a 08BB     		cbnz	r0, .L48
 257:FATFS/src/ff.c **** 			if (wsect < (fs->fatbase + fs->sects_fat)) {	/* In FAT area */
 531              		.loc 1 257 0
 532 002c 0023     		movs	r3, #0
 533 002e 2371     		strb	r3, [r4, #4]
 258:FATFS/src/ff.c **** 				BYTE nf;
 534              		.loc 1 258 0
 535 0030 636A     		ldr	r3, [r4, #36]
 536 0032 E269     		ldr	r2, [r4, #28]
 537 0034 1344     		add	r3, r3, r2
 538 0036 B342     		cmp	r3, r6
 539 0038 EBD9     		bls	.L44
 540              	.LBB2:
 260:FATFS/src/ff.c **** 					wsect += fs->sects_fat;
 541              		.loc 1 260 0
ARM GAS  /tmp/ccnWcupz.s 			page 25


 542 003a E778     		ldrb	r7, [r4, #3]	@ zero_extendqisi2
 543              	.LVL78:
 544 003c 09E0     		b	.L45
 545              	.L46:
 261:FATFS/src/ff.c **** 					disk_write(fs->drive, fs->win, wsect, 1);
 546              		.loc 1 261 0 discriminator 3
 547 003e E369     		ldr	r3, [r4, #28]
 548 0040 1E44     		add	r6, r6, r3
 549              	.LVL79:
 262:FATFS/src/ff.c **** 				}
 550              		.loc 1 262 0 discriminator 3
 551 0042 0123     		movs	r3, #1
 552 0044 3246     		mov	r2, r6
 553 0046 4146     		mov	r1, r8
 554 0048 6078     		ldrb	r0, [r4, #1]	@ zero_extendqisi2
 555 004a FFF7FEFF 		bl	disk_write
 556              	.LVL80:
 260:FATFS/src/ff.c **** 					wsect += fs->sects_fat;
 557              		.loc 1 260 0 discriminator 3
 558 004e 013F     		subs	r7, r7, #1
 559              	.LVL81:
 560 0050 FFB2     		uxtb	r7, r7
 561              	.LVL82:
 562              	.L45:
 260:FATFS/src/ff.c **** 					wsect += fs->sects_fat;
 563              		.loc 1 260 0 is_stmt 0 discriminator 1
 564 0052 012F     		cmp	r7, #1
 565 0054 F3D8     		bhi	.L46
 566 0056 DCE7     		b	.L44
 567              	.LVL83:
 568              	.L53:
 569              	.LBE2:
 268:FATFS/src/ff.c **** 				return FR_DISK_ERR;
 570              		.loc 1 268 0 is_stmt 1
 571 0058 0123     		movs	r3, #1
 572 005a 2A46     		mov	r2, r5
 573 005c 04F13401 		add	r1, r4, #52
 574 0060 6078     		ldrb	r0, [r4, #1]	@ zero_extendqisi2
 575 0062 FFF7FEFF 		bl	disk_read
 576              	.LVL84:
 577 0066 28B9     		cbnz	r0, .L50
 270:FATFS/src/ff.c **** 		}
 578              		.loc 1 270 0
 579 0068 2563     		str	r5, [r4, #48]
 580 006a D4E7     		b	.L43
 581              	.LVL85:
 582              	.L47:
 274:FATFS/src/ff.c **** }
 583              		.loc 1 274 0
 584 006c 0020     		movs	r0, #0
 585              	.LVL86:
 586 006e D2E7     		b	.L43
 587              	.LVL87:
 588              	.L48:
 256:FATFS/src/ff.c **** 			fs->wflag = 0;
 589              		.loc 1 256 0
 590 0070 0120     		movs	r0, #1
ARM GAS  /tmp/ccnWcupz.s 			page 26


 591 0072 D0E7     		b	.L43
 592              	.L50:
 269:FATFS/src/ff.c **** 			fs->winsect = sector;
 593              		.loc 1 269 0
 594 0074 0120     		movs	r0, #1
 595 0076 CEE7     		b	.L43
 596              		.cfi_endproc
 597              	.LFE33:
 599              		.section	.text.check_fs,"ax",%progbits
 600              		.align	1
 601              		.syntax unified
 602              		.thumb
 603              		.thumb_func
 604              		.fpu softvfp
 606              	check_fs:
 607              	.LFB54:
 820:FATFS/src/ff.c **** #endif
 821:FATFS/src/ff.c **** 
 822:FATFS/src/ff.c **** 
 823:FATFS/src/ff.c **** 
 824:FATFS/src/ff.c **** 
 825:FATFS/src/ff.c **** /*-----------------------------------------------------------------------*/
 826:FATFS/src/ff.c **** /* Directory handling - Find an object in the directory                  */
 827:FATFS/src/ff.c **** /*-----------------------------------------------------------------------*/
 828:FATFS/src/ff.c **** 
 829:FATFS/src/ff.c **** static
 830:FATFS/src/ff.c **** FRESULT dir_find (
 831:FATFS/src/ff.c **** 	DIR *dj			/* Pointer to the directory object linked to the file name */
 832:FATFS/src/ff.c **** )
 833:FATFS/src/ff.c **** {
 834:FATFS/src/ff.c **** 	FRESULT res;
 835:FATFS/src/ff.c **** 	BYTE c, *dir;
 836:FATFS/src/ff.c **** #if _USE_LFN
 837:FATFS/src/ff.c **** 	BYTE a, ord, sum;
 838:FATFS/src/ff.c **** #endif
 839:FATFS/src/ff.c **** 
 840:FATFS/src/ff.c **** 	res = dir_seek(dj, 0);			/* Rewind directory object */
 841:FATFS/src/ff.c **** 	if (res != FR_OK) return res;
 842:FATFS/src/ff.c **** 
 843:FATFS/src/ff.c **** #if _USE_LFN
 844:FATFS/src/ff.c **** 	ord = sum = 0xFF;
 845:FATFS/src/ff.c **** #endif
 846:FATFS/src/ff.c **** 	do {
 847:FATFS/src/ff.c **** 		res = move_window(dj->fs, dj->sect);
 848:FATFS/src/ff.c **** 		if (res != FR_OK) break;
 849:FATFS/src/ff.c **** 		dir = dj->dir;					/* Ptr to the directory entry of current index */
 850:FATFS/src/ff.c **** 		c = dir[DIR_Name];
 851:FATFS/src/ff.c **** 		if (c == 0) { res = FR_NO_FILE; break; }	/* Reached to end of table */
 852:FATFS/src/ff.c **** #if _USE_LFN	/* LFN configuration */
 853:FATFS/src/ff.c **** 		a = dir[DIR_Attr] & AM_MASK;
 854:FATFS/src/ff.c **** 		if (c == 0xE5 || ((a & AM_VOL) && a != AM_LFN)) {	/* An entry without valid data */
 855:FATFS/src/ff.c **** 			ord = 0xFF;
 856:FATFS/src/ff.c **** 		} else {
 857:FATFS/src/ff.c **** 			if (a == AM_LFN) {			/* An LFN entry is found */
 858:FATFS/src/ff.c **** 				if (dj->lfn) {
 859:FATFS/src/ff.c **** 					if (c & 0x40) {		/* Is it start of LFN sequence? */
 860:FATFS/src/ff.c **** 						sum = dir[LDIR_Chksum];
ARM GAS  /tmp/ccnWcupz.s 			page 27


 861:FATFS/src/ff.c **** 						c &= 0xBF; ord = c;	/* LFN start order */
 862:FATFS/src/ff.c **** 						dj->lfn_idx = dj->index;
 863:FATFS/src/ff.c **** 					}
 864:FATFS/src/ff.c **** 					/* Check validity of the LFN entry and compare it with given name */
 865:FATFS/src/ff.c **** 					ord = (c == ord && sum == dir[LDIR_Chksum] && cmp_lfn(dj->lfn, dir)) ? ord - 1 : 0xFF;
 866:FATFS/src/ff.c **** 				}
 867:FATFS/src/ff.c **** 			} else {					/* An SFN entry is found */
 868:FATFS/src/ff.c **** 				if (!ord && sum == sum_sfn(dir)) break;	/* LFN matched? */
 869:FATFS/src/ff.c **** 				ord = 0xFF; dj->lfn_idx = 0xFFFF;	/* Reset LFN sequence */
 870:FATFS/src/ff.c **** 				if (!(dj->fn[NS] & NS_LOSS) && !mem_cmp(dir, dj->fn, 11)) break;	/* SFN matched? */
 871:FATFS/src/ff.c **** 			}
 872:FATFS/src/ff.c **** 		}
 873:FATFS/src/ff.c **** #else		/* Non LFN configuration */
 874:FATFS/src/ff.c **** 		if (!(dir[DIR_Attr] & AM_VOL) && !mem_cmp(dir, dj->fn, 11)) /* Is it a valid entry? */
 875:FATFS/src/ff.c **** 			break;
 876:FATFS/src/ff.c **** #endif
 877:FATFS/src/ff.c **** 		res = dir_next(dj, FALSE);		/* Next entry */
 878:FATFS/src/ff.c **** 	} while (res == FR_OK);
 879:FATFS/src/ff.c **** 
 880:FATFS/src/ff.c **** 	return res;
 881:FATFS/src/ff.c **** }
 882:FATFS/src/ff.c **** 
 883:FATFS/src/ff.c **** 
 884:FATFS/src/ff.c **** 
 885:FATFS/src/ff.c **** 
 886:FATFS/src/ff.c **** /*-----------------------------------------------------------------------*/
 887:FATFS/src/ff.c **** /* Read an object from the directory                                     */
 888:FATFS/src/ff.c **** /*-----------------------------------------------------------------------*/
 889:FATFS/src/ff.c **** #if _FS_MINIMIZE <= 1
 890:FATFS/src/ff.c **** static
 891:FATFS/src/ff.c **** FRESULT dir_read (
 892:FATFS/src/ff.c **** 	DIR *dj			/* Pointer to the directory object that pointing the entry to be read */
 893:FATFS/src/ff.c **** )
 894:FATFS/src/ff.c **** {
 895:FATFS/src/ff.c **** 	FRESULT res;
 896:FATFS/src/ff.c **** 	BYTE c, *dir;
 897:FATFS/src/ff.c **** #if _USE_LFN
 898:FATFS/src/ff.c **** 	BYTE a, ord = 0xFF, sum = 0xFF;
 899:FATFS/src/ff.c **** #endif
 900:FATFS/src/ff.c **** 
 901:FATFS/src/ff.c **** 	res = FR_NO_FILE;
 902:FATFS/src/ff.c **** 	while (dj->sect) {
 903:FATFS/src/ff.c **** 		res = move_window(dj->fs, dj->sect);
 904:FATFS/src/ff.c **** 		if (res != FR_OK) break;
 905:FATFS/src/ff.c **** 		dir = dj->dir;					/* Ptr to the directory entry of current index */
 906:FATFS/src/ff.c **** 		c = dir[DIR_Name];
 907:FATFS/src/ff.c **** 		if (c == 0) { res = FR_NO_FILE; break; }	/* Reached to end of table */
 908:FATFS/src/ff.c **** #if _USE_LFN	/* LFN configuration */
 909:FATFS/src/ff.c **** 		a = dir[DIR_Attr] & AM_MASK;
 910:FATFS/src/ff.c **** 		if (c == 0xE5 || (!_FS_RPATH && c == '.') || ((a & AM_VOL) && a != AM_LFN)) {	/* An entry without
 911:FATFS/src/ff.c **** 			ord = 0xFF;
 912:FATFS/src/ff.c **** 		} else {
 913:FATFS/src/ff.c **** 			if (a == AM_LFN) {			/* An LFN entry is found */
 914:FATFS/src/ff.c **** 				if (c & 0x40) {			/* Is it start of LFN sequence? */
 915:FATFS/src/ff.c **** 					sum = dir[LDIR_Chksum];
 916:FATFS/src/ff.c **** 					c &= 0xBF; ord = c;
 917:FATFS/src/ff.c **** 					dj->lfn_idx = dj->index;
ARM GAS  /tmp/ccnWcupz.s 			page 28


 918:FATFS/src/ff.c **** 				}
 919:FATFS/src/ff.c **** 				/* Check LFN validity and capture it */
 920:FATFS/src/ff.c **** 				ord = (c == ord && sum == dir[LDIR_Chksum] && pick_lfn(dj->lfn, dir)) ? ord - 1 : 0xFF;
 921:FATFS/src/ff.c **** 			} else {					/* An SFN entry is found */
 922:FATFS/src/ff.c **** 				if (ord || sum != sum_sfn(dir))	/* Is there a valid LFN? */
 923:FATFS/src/ff.c **** 					dj->lfn_idx = 0xFFFF;		/* It has no LFN. */
 924:FATFS/src/ff.c **** 				break;
 925:FATFS/src/ff.c **** 			}
 926:FATFS/src/ff.c **** 		}
 927:FATFS/src/ff.c **** #else		/* Non LFN configuration */
 928:FATFS/src/ff.c **** 		if (c != 0xE5 && (_FS_RPATH || c != '.') && !(dir[DIR_Attr] & AM_VOL))	/* Is it a valid entry? */
 929:FATFS/src/ff.c **** 			break;
 930:FATFS/src/ff.c **** #endif
 931:FATFS/src/ff.c **** 		res = dir_next(dj, FALSE);				/* Next entry */
 932:FATFS/src/ff.c **** 		if (res != FR_OK) break;
 933:FATFS/src/ff.c **** 	}
 934:FATFS/src/ff.c **** 
 935:FATFS/src/ff.c **** 	if (res != FR_OK) dj->sect = 0;
 936:FATFS/src/ff.c **** 
 937:FATFS/src/ff.c **** 	return res;
 938:FATFS/src/ff.c **** }
 939:FATFS/src/ff.c **** #endif
 940:FATFS/src/ff.c **** 
 941:FATFS/src/ff.c **** 
 942:FATFS/src/ff.c **** 
 943:FATFS/src/ff.c **** /*-----------------------------------------------------------------------*/
 944:FATFS/src/ff.c **** /* Register an object to the directory                                   */
 945:FATFS/src/ff.c **** /*-----------------------------------------------------------------------*/
 946:FATFS/src/ff.c **** #if !_FS_READONLY
 947:FATFS/src/ff.c **** static
 948:FATFS/src/ff.c **** FRESULT dir_register (	/* FR_OK:Successful, FR_DENIED:No free entry or too many SFN collision, FR_D
 949:FATFS/src/ff.c **** 	DIR *dj				/* Target directory with object name to be created */
 950:FATFS/src/ff.c **** )
 951:FATFS/src/ff.c **** {
 952:FATFS/src/ff.c **** 	FRESULT res;
 953:FATFS/src/ff.c **** 	BYTE c, *dir;
 954:FATFS/src/ff.c **** #if _USE_LFN	/* LFN configuration */
 955:FATFS/src/ff.c **** 	WORD n, ne, is;
 956:FATFS/src/ff.c **** 	BYTE sn[12], *fn, sum;
 957:FATFS/src/ff.c **** 	WCHAR *lfn;
 958:FATFS/src/ff.c **** 
 959:FATFS/src/ff.c **** 
 960:FATFS/src/ff.c **** 	fn = dj->fn; lfn = dj->lfn;
 961:FATFS/src/ff.c **** 	mem_cpy(sn, fn, 12);
 962:FATFS/src/ff.c **** 
 963:FATFS/src/ff.c **** 	if (_FS_RPATH && (sn[NS] & NS_DOT)) return FR_INVALID_NAME;	/* Cannot create dot entry */
 964:FATFS/src/ff.c **** 
 965:FATFS/src/ff.c **** 	if (sn[NS] & NS_LOSS) {			/* When LFN is out of 8.3 format, generate a numbered name */
 966:FATFS/src/ff.c **** 		fn[NS] = 0; dj->lfn = NULL;			/* Find only SFN */
 967:FATFS/src/ff.c **** 		for (n = 1; n < 100; n++) {
 968:FATFS/src/ff.c **** 			gen_numname(fn, sn, lfn, n);	/* Generate a numbered name */
 969:FATFS/src/ff.c **** 			res = dir_find(dj);				/* Check if the name collides with existing SFN */
 970:FATFS/src/ff.c **** 			if (res != FR_OK) break;
 971:FATFS/src/ff.c **** 		}
 972:FATFS/src/ff.c **** 		if (n == 100) return FR_DENIED;		/* Abort if too many collisions */
 973:FATFS/src/ff.c **** 		if (res != FR_NO_FILE) return res;	/* Abort if the result is other than 'not collided' */
 974:FATFS/src/ff.c **** 		fn[NS] = sn[NS]; dj->lfn = lfn;
ARM GAS  /tmp/ccnWcupz.s 			page 29


 975:FATFS/src/ff.c **** 	}
 976:FATFS/src/ff.c **** 
 977:FATFS/src/ff.c **** 	if (sn[NS] & NS_LFN) {			/* When LFN is to be created, reserve reserve an SFN + LFN entries. */
 978:FATFS/src/ff.c **** 		for (ne = 0; lfn[ne]; ne++) ;
 979:FATFS/src/ff.c **** 		ne = (ne + 25) / 13;
 980:FATFS/src/ff.c **** 	} else {						/* Otherwise reserve only an SFN entry. */
 981:FATFS/src/ff.c **** 		ne = 1;
 982:FATFS/src/ff.c **** 	}
 983:FATFS/src/ff.c **** 
 984:FATFS/src/ff.c **** 	/* Reserve contiguous entries */
 985:FATFS/src/ff.c **** 	res = dir_seek(dj, 0);
 986:FATFS/src/ff.c **** 	if (res != FR_OK) return res;
 987:FATFS/src/ff.c **** 	n = is = 0;
 988:FATFS/src/ff.c **** 	do {
 989:FATFS/src/ff.c **** 		res = move_window(dj->fs, dj->sect);
 990:FATFS/src/ff.c **** 		if (res != FR_OK) break;
 991:FATFS/src/ff.c **** 		c = *dj->dir;				/* Check the entry status */
 992:FATFS/src/ff.c **** 		if (c == 0xE5 || c == 0) {	/* Is it a blank entry? */
 993:FATFS/src/ff.c **** 			if (n == 0) is = dj->index;	/* First index of the contigulus entry */
 994:FATFS/src/ff.c **** 			if (++n == ne) break;	/* A contiguous entry that requiered count is found */
 995:FATFS/src/ff.c **** 		} else {
 996:FATFS/src/ff.c **** 			n = 0;					/* Not a blank entry. Restart to search */
 997:FATFS/src/ff.c **** 		}
 998:FATFS/src/ff.c **** 		res = dir_next(dj, TRUE);	/* Next entry with table streach */
 999:FATFS/src/ff.c **** 	} while (res == FR_OK);
1000:FATFS/src/ff.c **** 
1001:FATFS/src/ff.c **** 	if (res == FR_OK && ne > 1) {	/* Initialize LFN entry if needed */
1002:FATFS/src/ff.c **** 		res = dir_seek(dj, is);
1003:FATFS/src/ff.c **** 		if (res == FR_OK) {
1004:FATFS/src/ff.c **** 			sum = sum_sfn(dj->fn);	/* Sum of the SFN tied to the LFN */
1005:FATFS/src/ff.c **** 			ne--;
1006:FATFS/src/ff.c **** 			do {					/* Store LFN entries in bottom first */
1007:FATFS/src/ff.c **** 				res = move_window(dj->fs, dj->sect);
1008:FATFS/src/ff.c **** 				if (res != FR_OK) break;
1009:FATFS/src/ff.c **** 				fit_lfn(dj->lfn, dj->dir, (BYTE)ne, sum);
1010:FATFS/src/ff.c **** 				dj->fs->wflag = 1;
1011:FATFS/src/ff.c **** 				res = dir_next(dj, FALSE);	/* Next entry */
1012:FATFS/src/ff.c **** 			} while (res == FR_OK && --ne);
1013:FATFS/src/ff.c **** 		}
1014:FATFS/src/ff.c **** 	}
1015:FATFS/src/ff.c **** 
1016:FATFS/src/ff.c **** #else	/* Non LFN configuration */
1017:FATFS/src/ff.c **** 	res = dir_seek(dj, 0);
1018:FATFS/src/ff.c **** 	if (res == FR_OK) {
1019:FATFS/src/ff.c **** 		do {	/* Find a blank entry for the SFN */
1020:FATFS/src/ff.c **** 			res = move_window(dj->fs, dj->sect);
1021:FATFS/src/ff.c **** 			if (res != FR_OK) break;
1022:FATFS/src/ff.c **** 			c = *dj->dir;
1023:FATFS/src/ff.c **** 			if (c == 0xE5 || c == 0) break;	/* Is it a blank entry? */
1024:FATFS/src/ff.c **** 			res = dir_next(dj, TRUE);		/* Next entry with table streach */
1025:FATFS/src/ff.c **** 		} while (res == FR_OK);
1026:FATFS/src/ff.c **** 	}
1027:FATFS/src/ff.c **** #endif
1028:FATFS/src/ff.c **** 
1029:FATFS/src/ff.c **** 	if (res == FR_OK) {		/* Initialize the SFN entry */
1030:FATFS/src/ff.c **** 		res = move_window(dj->fs, dj->sect);
1031:FATFS/src/ff.c **** 		if (res == FR_OK) {
ARM GAS  /tmp/ccnWcupz.s 			page 30


1032:FATFS/src/ff.c **** 			dir = dj->dir;
1033:FATFS/src/ff.c **** 			mem_set(dir, 0, 32);		/* Clean the entry */
1034:FATFS/src/ff.c **** 			mem_cpy(dir, dj->fn, 11);	/* Put SFN */
1035:FATFS/src/ff.c **** 			dir[DIR_NTres] = *(dj->fn+NS) & (NS_BODY | NS_EXT);	/* Put NT flag */
1036:FATFS/src/ff.c **** 			dj->fs->wflag = 1;
1037:FATFS/src/ff.c **** 		}
1038:FATFS/src/ff.c **** 	}
1039:FATFS/src/ff.c **** 
1040:FATFS/src/ff.c **** 	return res;
1041:FATFS/src/ff.c **** }
1042:FATFS/src/ff.c **** #endif /* !_FS_READONLY */
1043:FATFS/src/ff.c **** 
1044:FATFS/src/ff.c **** 
1045:FATFS/src/ff.c **** 
1046:FATFS/src/ff.c **** 
1047:FATFS/src/ff.c **** /*-----------------------------------------------------------------------*/
1048:FATFS/src/ff.c **** /* Remove an object from the directory                                   */
1049:FATFS/src/ff.c **** /*-----------------------------------------------------------------------*/
1050:FATFS/src/ff.c **** #if !_FS_READONLY && !_FS_MINIMIZE
1051:FATFS/src/ff.c **** static
1052:FATFS/src/ff.c **** FRESULT dir_remove (	/* FR_OK: Successful, FR_DISK_ERR: A disk error */
1053:FATFS/src/ff.c **** 	DIR *dj				/* Directory object pointing the entry to be removed */
1054:FATFS/src/ff.c **** )
1055:FATFS/src/ff.c **** {
1056:FATFS/src/ff.c **** 	FRESULT res;
1057:FATFS/src/ff.c **** #if _USE_LFN	/* LFN configuration */
1058:FATFS/src/ff.c **** 	WORD i;
1059:FATFS/src/ff.c **** 
1060:FATFS/src/ff.c **** 	i = dj->index;	/* SFN index */
1061:FATFS/src/ff.c **** 	res = dir_seek(dj, (WORD)((dj->lfn_idx == 0xFFFF) ? i : dj->lfn_idx));	/* Goto the SFN or top of t
1062:FATFS/src/ff.c **** 	if (res == FR_OK) {
1063:FATFS/src/ff.c **** 		do {
1064:FATFS/src/ff.c **** 			res = move_window(dj->fs, dj->sect);
1065:FATFS/src/ff.c **** 			if (res != FR_OK) break;
1066:FATFS/src/ff.c **** 			*dj->dir = 0xE5;			/* Mark the entry "deleted" */
1067:FATFS/src/ff.c **** 			dj->fs->wflag = 1;
1068:FATFS/src/ff.c **** 			if (dj->index >= i) break;	/* When reached SFN, all entries of the object has been deleted. */
1069:FATFS/src/ff.c **** 			res = dir_next(dj, FALSE);	/* Next entry */
1070:FATFS/src/ff.c **** 		} while (res == FR_OK);
1071:FATFS/src/ff.c **** 		if (res == FR_NO_FILE) res = FR_INT_ERR;
1072:FATFS/src/ff.c **** 	}
1073:FATFS/src/ff.c **** 
1074:FATFS/src/ff.c **** #else			/* Non LFN configuration */
1075:FATFS/src/ff.c **** 	res = dir_seek(dj, dj->index);
1076:FATFS/src/ff.c **** 	if (res == FR_OK) {
1077:FATFS/src/ff.c **** 		res = move_window(dj->fs, dj->sect);
1078:FATFS/src/ff.c **** 		if (res == FR_OK) {
1079:FATFS/src/ff.c **** 			*dj->dir = 0xE5;			/* Mark the entry "deleted" */
1080:FATFS/src/ff.c **** 			dj->fs->wflag = 1;
1081:FATFS/src/ff.c **** 		}
1082:FATFS/src/ff.c **** 	}
1083:FATFS/src/ff.c **** #endif
1084:FATFS/src/ff.c **** 
1085:FATFS/src/ff.c **** 	return res;
1086:FATFS/src/ff.c **** }
1087:FATFS/src/ff.c **** #endif /* !_FS_READONLY */
1088:FATFS/src/ff.c **** 
ARM GAS  /tmp/ccnWcupz.s 			page 31


1089:FATFS/src/ff.c **** 
1090:FATFS/src/ff.c **** 
1091:FATFS/src/ff.c **** 
1092:FATFS/src/ff.c **** /*-----------------------------------------------------------------------*/
1093:FATFS/src/ff.c **** /* Pick a segment and create the object name in directory form           */
1094:FATFS/src/ff.c **** /*-----------------------------------------------------------------------*/
1095:FATFS/src/ff.c **** 
1096:FATFS/src/ff.c **** static
1097:FATFS/src/ff.c **** FRESULT create_name (
1098:FATFS/src/ff.c **** 	DIR *dj,			/* Pointer to the directory object */
1099:FATFS/src/ff.c **** 	const XCHAR **path	/* Pointer to pointer to the segment in the path string */
1100:FATFS/src/ff.c **** )
1101:FATFS/src/ff.c **** {
1102:FATFS/src/ff.c **** #ifdef _EXCVT
1103:FATFS/src/ff.c **** 	static const BYTE cvt[] = _EXCVT;
1104:FATFS/src/ff.c **** #endif
1105:FATFS/src/ff.c **** 
1106:FATFS/src/ff.c **** #if _USE_LFN	/* LFN configuration */
1107:FATFS/src/ff.c **** 	BYTE b, cf;
1108:FATFS/src/ff.c **** 	WCHAR w, *lfn;
1109:FATFS/src/ff.c **** 	int i, ni, si, di;
1110:FATFS/src/ff.c **** 	const XCHAR *p;
1111:FATFS/src/ff.c **** 
1112:FATFS/src/ff.c **** 	/* Create LFN in Unicode */
1113:FATFS/src/ff.c **** 	si = di = 0;
1114:FATFS/src/ff.c **** 	p = *path;
1115:FATFS/src/ff.c **** 	lfn = dj->lfn;
1116:FATFS/src/ff.c **** 	for (;;) {
1117:FATFS/src/ff.c **** 		w = p[si++];					/* Get a character */
1118:FATFS/src/ff.c **** 		if (w < ' ' || w == '/' || w == '\\') break;	/* Break on end of segment */
1119:FATFS/src/ff.c **** 		if (di >= _MAX_LFN)				/* Reject too long name */
1120:FATFS/src/ff.c **** 			return FR_INVALID_NAME;
1121:FATFS/src/ff.c **** #if !_LFN_UNICODE
1122:FATFS/src/ff.c **** 		w &= 0xFF;
1123:FATFS/src/ff.c **** 		if (IsDBCS1(w)) {				/* If it is a DBC 1st byte */
1124:FATFS/src/ff.c **** 			b = p[si++];				/* Get 2nd byte */
1125:FATFS/src/ff.c **** 			if (!IsDBCS2(b))			/* Reject invalid code for DBC */
1126:FATFS/src/ff.c **** 				return FR_INVALID_NAME;
1127:FATFS/src/ff.c **** 			w = (w << 8) + b;
1128:FATFS/src/ff.c **** 		}
1129:FATFS/src/ff.c **** 		w = ff_convert(w, 1);			/* Convert OEM to Unicode */
1130:FATFS/src/ff.c **** 		if (!w) return FR_INVALID_NAME;	/* Reject invalid code */
1131:FATFS/src/ff.c **** #endif
1132:FATFS/src/ff.c **** 		if (w < 0x80 && chk_chr("\"*:<>\?|\x7F", w)) /* Reject illegal chars for LFN */
1133:FATFS/src/ff.c **** 			return FR_INVALID_NAME;
1134:FATFS/src/ff.c **** 		lfn[di++] = w;					/* Store the Unicode char */
1135:FATFS/src/ff.c **** 	}
1136:FATFS/src/ff.c **** 	*path = &p[si];						/* Rerurn pointer to the next segment */
1137:FATFS/src/ff.c **** 	cf = (w < ' ') ? NS_LAST : 0;		/* Set last segment flag if end of path */
1138:FATFS/src/ff.c **** #if _FS_RPATH
1139:FATFS/src/ff.c **** 	if ((di == 1 && lfn[di - 1] == '.') || /* Is this a dot entry? */
1140:FATFS/src/ff.c **** 		(di == 2 && lfn[di - 1] == '.' && lfn[di - 2] == '.')) {
1141:FATFS/src/ff.c **** 		lfn[di] = 0;
1142:FATFS/src/ff.c **** 		for (i = 0; i < 11; i++)
1143:FATFS/src/ff.c **** 			dj->fn[i] = (i < di) ? '.' : ' ';
1144:FATFS/src/ff.c **** 		dj->fn[i] = cf | NS_DOT;		/* This is a dot entry */
1145:FATFS/src/ff.c **** 		return FR_OK;
ARM GAS  /tmp/ccnWcupz.s 			page 32


1146:FATFS/src/ff.c **** 	}
1147:FATFS/src/ff.c **** #endif
1148:FATFS/src/ff.c **** 	while (di) {						/* Strip trailing spaces and dots */
1149:FATFS/src/ff.c **** 		w = lfn[di - 1];
1150:FATFS/src/ff.c **** 		if (w != ' ' && w != '.') break;
1151:FATFS/src/ff.c **** 		di--;
1152:FATFS/src/ff.c **** 	}
1153:FATFS/src/ff.c **** 	if (!di) return FR_INVALID_NAME;	/* Reject null string */
1154:FATFS/src/ff.c **** 
1155:FATFS/src/ff.c **** 	lfn[di] = 0;						/* LFN is created */
1156:FATFS/src/ff.c **** 
1157:FATFS/src/ff.c **** 	/* Create SFN in directory form */
1158:FATFS/src/ff.c **** 	mem_set(dj->fn, ' ', 11);
1159:FATFS/src/ff.c **** 	for (si = 0; lfn[si] == ' ' || lfn[si] == '.'; si++) ;	/* Strip leading spaces and dots */
1160:FATFS/src/ff.c **** 	if (si) cf |= NS_LOSS | NS_LFN;
1161:FATFS/src/ff.c **** 	while (di && lfn[di - 1] != '.') di--;	/* Find extension (di<=si: no extension) */
1162:FATFS/src/ff.c **** 
1163:FATFS/src/ff.c **** 	b = i = 0; ni = 8;
1164:FATFS/src/ff.c **** 	for (;;) {
1165:FATFS/src/ff.c **** 		w = lfn[si++];					/* Get an LFN char */
1166:FATFS/src/ff.c **** 		if (!w) break;					/* Break on enf of the LFN */
1167:FATFS/src/ff.c **** 		if (w == ' ' || (w == '.' && si != di)) {	/* Remove spaces and dots */
1168:FATFS/src/ff.c **** 			cf |= NS_LOSS | NS_LFN; continue;
1169:FATFS/src/ff.c **** 		}
1170:FATFS/src/ff.c **** 
1171:FATFS/src/ff.c **** 		if (i >= ni || si == di) {		/* Extension or end of SFN */
1172:FATFS/src/ff.c **** 			if (ni == 11) {				/* Long extension */
1173:FATFS/src/ff.c **** 				cf |= NS_LOSS | NS_LFN; break;
1174:FATFS/src/ff.c **** 			}
1175:FATFS/src/ff.c **** 			if (si != di) cf |= NS_LOSS | NS_LFN;	/* Out of 8.3 format */
1176:FATFS/src/ff.c **** 			if (si > di) break;			/* No extension */
1177:FATFS/src/ff.c **** 			si = di; i = 8; ni = 11;	/* Enter extension section */
1178:FATFS/src/ff.c **** 			b <<= 2; continue;
1179:FATFS/src/ff.c **** 		}
1180:FATFS/src/ff.c **** 
1181:FATFS/src/ff.c **** 		if (w >= 0x80) {				/* Non ASCII char */
1182:FATFS/src/ff.c **** #ifdef _EXCVT
1183:FATFS/src/ff.c **** 			w = ff_convert(w, 0);		/* Unicode -> OEM code */
1184:FATFS/src/ff.c **** 			if (w) w = cvt[w - 0x80];	/* Convert extended char to upper (SBCS) */
1185:FATFS/src/ff.c **** #else
1186:FATFS/src/ff.c **** 			w = ff_convert(ff_wtoupper(w), 0);	/* Upper converted Unicode -> OEM code */
1187:FATFS/src/ff.c **** #endif
1188:FATFS/src/ff.c **** 			cf |= NS_LFN;				/* Force create LFN entry */
1189:FATFS/src/ff.c **** 		}
1190:FATFS/src/ff.c **** 
1191:FATFS/src/ff.c **** 		if (_DF1S && w >= 0x100) {		/* Double byte char */
1192:FATFS/src/ff.c **** 			if (i >= ni - 1) {
1193:FATFS/src/ff.c **** 				cf |= NS_LOSS | NS_LFN; i = ni; continue;
1194:FATFS/src/ff.c **** 			}
1195:FATFS/src/ff.c **** 			dj->fn[i++] = (BYTE)(w >> 8);
1196:FATFS/src/ff.c **** 		} else {						/* Single byte char */
1197:FATFS/src/ff.c **** 			if (!w || chk_chr("+,;[=]", w)) {		/* Replace illegal chars for SFN */
1198:FATFS/src/ff.c **** 				w = '_'; cf |= NS_LOSS | NS_LFN;	/* Lossy conversion */
1199:FATFS/src/ff.c **** 			} else {
1200:FATFS/src/ff.c **** 				if (IsUpper(w)) {		/* ASCII large capital */
1201:FATFS/src/ff.c **** 					b |= 2;
1202:FATFS/src/ff.c **** 				} else {
ARM GAS  /tmp/ccnWcupz.s 			page 33


1203:FATFS/src/ff.c **** 					if (IsLower(w)) {	/* ASCII small capital */
1204:FATFS/src/ff.c **** 						b |= 1; w -= 0x20;
1205:FATFS/src/ff.c **** 					}
1206:FATFS/src/ff.c **** 				}
1207:FATFS/src/ff.c **** 			}
1208:FATFS/src/ff.c **** 		}
1209:FATFS/src/ff.c **** 		dj->fn[i++] = (BYTE)w;
1210:FATFS/src/ff.c **** 	}
1211:FATFS/src/ff.c **** 
1212:FATFS/src/ff.c **** 	if (dj->fn[0] == 0xE5) dj->fn[0] = 0x05;	/* If the first char collides with deleted mark, replace 
1213:FATFS/src/ff.c **** 
1214:FATFS/src/ff.c **** 	if (ni == 8) b <<= 2;
1215:FATFS/src/ff.c **** 	if ((b & 0x0C) == 0x0C || (b & 0x03) == 0x03)	/* Create LFN entry when there are composite capital
1216:FATFS/src/ff.c **** 		cf |= NS_LFN;
1217:FATFS/src/ff.c **** 	if (!(cf & NS_LFN)) {						/* When LFN is in 8.3 format without extended char, NT flags are create
1218:FATFS/src/ff.c **** 		if ((b & 0x03) == 0x01) cf |= NS_EXT;	/* NT flag (Extension has only small capital) */
1219:FATFS/src/ff.c **** 		if ((b & 0x0C) == 0x04) cf |= NS_BODY;	/* NT flag (Filename has only small capital) */
1220:FATFS/src/ff.c **** 	}
1221:FATFS/src/ff.c **** 
1222:FATFS/src/ff.c **** 	dj->fn[NS] = cf;	/* SFN is created */
1223:FATFS/src/ff.c **** 
1224:FATFS/src/ff.c **** 	return FR_OK;
1225:FATFS/src/ff.c **** 
1226:FATFS/src/ff.c **** 
1227:FATFS/src/ff.c **** #else	/* Non-LFN configuration */
1228:FATFS/src/ff.c **** 	BYTE b, c, d, *sfn;
1229:FATFS/src/ff.c **** 	int ni, si, i;
1230:FATFS/src/ff.c **** 	const char *p;
1231:FATFS/src/ff.c **** 
1232:FATFS/src/ff.c **** 	/* Create file name in directory form */
1233:FATFS/src/ff.c **** 	sfn = dj->fn;
1234:FATFS/src/ff.c **** 	mem_set(sfn, ' ', 11);
1235:FATFS/src/ff.c **** 	si = i = b = 0; ni = 8;
1236:FATFS/src/ff.c **** 	p = *path;
1237:FATFS/src/ff.c **** #if _FS_RPATH
1238:FATFS/src/ff.c **** 	if (p[si] == '.') { /* Is this a dot entry? */
1239:FATFS/src/ff.c **** 		for (;;) {
1240:FATFS/src/ff.c **** 			c = p[si++];
1241:FATFS/src/ff.c **** 			if (c != '.' || si >= 3) break;
1242:FATFS/src/ff.c **** 			sfn[i++] = c;
1243:FATFS/src/ff.c **** 		}
1244:FATFS/src/ff.c **** 		if (c != '/' && c != '\\' && c > ' ') return FR_INVALID_NAME;
1245:FATFS/src/ff.c **** 		*path = &p[si];									/* Rerurn pointer to the next segment */
1246:FATFS/src/ff.c **** 		sfn[NS] = (c <= ' ') ? NS_LAST | NS_DOT : NS_DOT;	/* Set last segment flag if end of path */
1247:FATFS/src/ff.c **** 		return FR_OK;
1248:FATFS/src/ff.c **** 	}
1249:FATFS/src/ff.c **** #endif
1250:FATFS/src/ff.c **** 	for (;;) {
1251:FATFS/src/ff.c **** 		c = p[si++];
1252:FATFS/src/ff.c **** 		if (c <= ' ' || c == '/' || c == '\\') break;	/* Break on end of segment */
1253:FATFS/src/ff.c **** 		if (c == '.' || i >= ni) {
1254:FATFS/src/ff.c **** 			if (ni != 8 || c != '.') return FR_INVALID_NAME;
1255:FATFS/src/ff.c **** 			i = 8; ni = 11;
1256:FATFS/src/ff.c **** 			b <<= 2; continue;
1257:FATFS/src/ff.c **** 		}
1258:FATFS/src/ff.c **** 		if (c >= 0x80) {				/* Extended char */
1259:FATFS/src/ff.c **** #ifdef _EXCVT
ARM GAS  /tmp/ccnWcupz.s 			page 34


1260:FATFS/src/ff.c **** 			c = cvt[c - 0x80];			/* Convert extend char (SBCS) */
1261:FATFS/src/ff.c **** #else
1262:FATFS/src/ff.c **** 			b |= 3;						/* Eliminate NT flag if ext char is exist */
1263:FATFS/src/ff.c **** #if !_DF1S	/* ASCII only cfg */
1264:FATFS/src/ff.c **** 			return FR_INVALID_NAME;
1265:FATFS/src/ff.c **** #endif
1266:FATFS/src/ff.c **** #endif
1267:FATFS/src/ff.c **** 		}
1268:FATFS/src/ff.c **** 		if (IsDBCS1(c)) {				/* DBC 1st byte? */
1269:FATFS/src/ff.c **** 			d = p[si++];				/* Get 2nd byte */
1270:FATFS/src/ff.c **** 			if (!IsDBCS2(d) || i >= ni - 1)	/* Reject invalid DBC */
1271:FATFS/src/ff.c **** 				return FR_INVALID_NAME;
1272:FATFS/src/ff.c **** 			sfn[i++] = c;
1273:FATFS/src/ff.c **** 			sfn[i++] = d;
1274:FATFS/src/ff.c **** 		} else {						/* Single byte code */
1275:FATFS/src/ff.c **** 			if (chk_chr(" \"*+,[=]|\x7F", c))	/* Reject illegal chrs for SFN */
1276:FATFS/src/ff.c **** 				return FR_INVALID_NAME;
1277:FATFS/src/ff.c **** 			if (IsUpper(c)) {			/* ASCII large capital? */
1278:FATFS/src/ff.c **** 				b |= 2;
1279:FATFS/src/ff.c **** 			} else {
1280:FATFS/src/ff.c **** 				if (IsLower(c)) {		/* ASCII small capital? */
1281:FATFS/src/ff.c **** 					b |= 1; c -= 0x20;
1282:FATFS/src/ff.c **** 				}
1283:FATFS/src/ff.c **** 			}
1284:FATFS/src/ff.c **** 			sfn[i++] = c;
1285:FATFS/src/ff.c **** 		}
1286:FATFS/src/ff.c **** 	}
1287:FATFS/src/ff.c **** 	*path = &p[si];						/* Rerurn pointer to the next segment */
1288:FATFS/src/ff.c **** 	c = (c <= ' ') ? NS_LAST : 0;		/* Set last segment flag if end of path */
1289:FATFS/src/ff.c **** 
1290:FATFS/src/ff.c **** 	if (!i) return FR_INVALID_NAME;		/* Reject null string */
1291:FATFS/src/ff.c **** 	if (sfn[0] == 0xE5) sfn[0] = 0x05;	/* When first char collides with 0xE5, replace it with 0x05 */
1292:FATFS/src/ff.c **** 
1293:FATFS/src/ff.c **** 	if (ni == 8) b <<= 2;
1294:FATFS/src/ff.c **** 	if ((b & 0x03) == 0x01) c |= NS_EXT;	/* NT flag (Extension has only small capital) */
1295:FATFS/src/ff.c **** 	if ((b & 0x0C) == 0x04) c |= NS_BODY;	/* NT flag (Filename has only small capital) */
1296:FATFS/src/ff.c **** 
1297:FATFS/src/ff.c **** 	sfn[NS] = c;		/* Store NT flag, File name is created */
1298:FATFS/src/ff.c **** 
1299:FATFS/src/ff.c **** 	return FR_OK;
1300:FATFS/src/ff.c **** #endif
1301:FATFS/src/ff.c **** }
1302:FATFS/src/ff.c **** 
1303:FATFS/src/ff.c **** 
1304:FATFS/src/ff.c **** 
1305:FATFS/src/ff.c **** 
1306:FATFS/src/ff.c **** /*-----------------------------------------------------------------------*/
1307:FATFS/src/ff.c **** /* Get file information from directory entry                             */
1308:FATFS/src/ff.c **** /*-----------------------------------------------------------------------*/
1309:FATFS/src/ff.c **** #if _FS_MINIMIZE <= 1
1310:FATFS/src/ff.c **** static
1311:FATFS/src/ff.c **** void get_fileinfo (		/* No return code */
1312:FATFS/src/ff.c **** 	DIR *dj,			/* Pointer to the directory object */
1313:FATFS/src/ff.c **** 	FILINFO *fno	 	/* Pointer to the file information to be filled */
1314:FATFS/src/ff.c **** )
1315:FATFS/src/ff.c **** {
1316:FATFS/src/ff.c **** 	int i;
ARM GAS  /tmp/ccnWcupz.s 			page 35


1317:FATFS/src/ff.c **** 	BYTE c, nt, *dir;
1318:FATFS/src/ff.c **** 	char *p;
1319:FATFS/src/ff.c **** 
1320:FATFS/src/ff.c **** 
1321:FATFS/src/ff.c **** 	p = fno->fname;
1322:FATFS/src/ff.c **** 	if (dj->sect) {
1323:FATFS/src/ff.c **** 		dir = dj->dir;
1324:FATFS/src/ff.c **** 		nt = dir[DIR_NTres];		/* NT flag */
1325:FATFS/src/ff.c **** 		for (i = 0; i < 8; i++) {	/* Copy name body */
1326:FATFS/src/ff.c **** 			c = dir[i];
1327:FATFS/src/ff.c **** 			if (c == ' ') break;
1328:FATFS/src/ff.c **** 			if (c == 0x05) c = 0xE5;
1329:FATFS/src/ff.c **** 			if (_USE_LFN && (nt & NS_BODY) && IsUpper(c)) c += 0x20;
1330:FATFS/src/ff.c **** 			*p++ = c;
1331:FATFS/src/ff.c **** 		}
1332:FATFS/src/ff.c **** 		if (dir[8] != ' ') {		/* Copy name extension */
1333:FATFS/src/ff.c **** 			*p++ = '.';
1334:FATFS/src/ff.c **** 			for (i = 8; i < 11; i++) {
1335:FATFS/src/ff.c **** 				c = dir[i];
1336:FATFS/src/ff.c **** 				if (c == ' ') break;
1337:FATFS/src/ff.c **** 				if (_USE_LFN && (nt & NS_EXT) && IsUpper(c)) c += 0x20;
1338:FATFS/src/ff.c **** 				*p++ = c;
1339:FATFS/src/ff.c **** 			}
1340:FATFS/src/ff.c **** 		}
1341:FATFS/src/ff.c **** 		fno->fattrib = dir[DIR_Attr];				/* Attribute */
1342:FATFS/src/ff.c **** 		fno->fsize = LD_DWORD(dir+DIR_FileSize);	/* Size */
1343:FATFS/src/ff.c **** 		fno->fdate = LD_WORD(dir+DIR_WrtDate);		/* Date */
1344:FATFS/src/ff.c **** 		fno->ftime = LD_WORD(dir+DIR_WrtTime);		/* Time */
1345:FATFS/src/ff.c **** 	}
1346:FATFS/src/ff.c **** 	*p = 0;
1347:FATFS/src/ff.c **** 
1348:FATFS/src/ff.c **** #if _USE_LFN
1349:FATFS/src/ff.c **** 	if (fno->lfname) {
1350:FATFS/src/ff.c **** 		XCHAR *tp = fno->lfname;
1351:FATFS/src/ff.c **** 		WCHAR w, *lfn;
1352:FATFS/src/ff.c **** 
1353:FATFS/src/ff.c **** 		i = 0;
1354:FATFS/src/ff.c **** 		if (dj->sect && dj->lfn_idx != 0xFFFF) {/* Get LFN if available */
1355:FATFS/src/ff.c **** 			lfn = dj->lfn;
1356:FATFS/src/ff.c **** 			while ((w = *lfn++) != 0) {			/* Get an LFN char */
1357:FATFS/src/ff.c **** #if !_LFN_UNICODE
1358:FATFS/src/ff.c **** 				w = ff_convert(w, 0);			/* Unicode -> OEM conversion */
1359:FATFS/src/ff.c **** 				if (!w) { i = 0; break; }		/* Could not convert, no LFN */
1360:FATFS/src/ff.c **** 				if (_DF1S && w >= 0x100)		/* Put 1st byte if it is a DBC */
1361:FATFS/src/ff.c **** 					tp[i++] = (XCHAR)(w >> 8);
1362:FATFS/src/ff.c **** #endif
1363:FATFS/src/ff.c **** 				if (i >= fno->lfsize - 1) { i = 0; break; }	/* Buffer overrun, no LFN */
1364:FATFS/src/ff.c **** 				tp[i++] = (XCHAR)w;
1365:FATFS/src/ff.c **** 			}
1366:FATFS/src/ff.c **** 		}
1367:FATFS/src/ff.c **** 		tp[i] = 0;	/* Terminator */
1368:FATFS/src/ff.c **** 	}
1369:FATFS/src/ff.c **** #endif
1370:FATFS/src/ff.c **** }
1371:FATFS/src/ff.c **** #endif /* _FS_MINIMIZE <= 1 */
1372:FATFS/src/ff.c **** 
1373:FATFS/src/ff.c **** 
ARM GAS  /tmp/ccnWcupz.s 			page 36


1374:FATFS/src/ff.c **** 
1375:FATFS/src/ff.c **** 
1376:FATFS/src/ff.c **** /*-----------------------------------------------------------------------*/
1377:FATFS/src/ff.c **** /* Follow a file path                                                    */
1378:FATFS/src/ff.c **** /*-----------------------------------------------------------------------*/
1379:FATFS/src/ff.c **** 
1380:FATFS/src/ff.c **** static
1381:FATFS/src/ff.c **** FRESULT follow_path (	/* FR_OK(0): successful, !=0: error code */
1382:FATFS/src/ff.c **** 	DIR *dj,			/* Directory object to return last directory and found object */
1383:FATFS/src/ff.c **** 	const XCHAR *path	/* Full-path string to find a file or directory */
1384:FATFS/src/ff.c **** )
1385:FATFS/src/ff.c **** {
1386:FATFS/src/ff.c **** 	FRESULT res;
1387:FATFS/src/ff.c **** 	BYTE *dir, last;
1388:FATFS/src/ff.c **** 
1389:FATFS/src/ff.c **** 
1390:FATFS/src/ff.c **** 	while (!_USE_LFN && *path == ' ') path++;	/* Skip leading spaces */
1391:FATFS/src/ff.c **** #if _FS_RPATH
1392:FATFS/src/ff.c **** 	if (*path == '/' || *path == '\\') { /* There is a heading separator */
1393:FATFS/src/ff.c **** 		path++;	dj->sclust = 0;		/* Strip it and start from the root dir */
1394:FATFS/src/ff.c **** 	} else {							/* No heading saparator */
1395:FATFS/src/ff.c **** 		dj->sclust = dj->fs->cdir;	/* Start from the current dir */
1396:FATFS/src/ff.c **** 	}
1397:FATFS/src/ff.c **** #else
1398:FATFS/src/ff.c **** 	if (*path == '/' || *path == '\\')	/* Strip heading separator if exist */
1399:FATFS/src/ff.c **** 		path++;
1400:FATFS/src/ff.c **** 	dj->sclust = 0;						/* Start from the root dir */
1401:FATFS/src/ff.c **** #endif
1402:FATFS/src/ff.c **** 
1403:FATFS/src/ff.c **** 	if ((UINT)*path < ' ') {			/* Null path means the start directory itself */
1404:FATFS/src/ff.c **** 		res = dir_seek(dj, 0);
1405:FATFS/src/ff.c **** 		dj->dir = NULL;
1406:FATFS/src/ff.c **** 
1407:FATFS/src/ff.c **** 	} else {							/* Follow path */
1408:FATFS/src/ff.c **** 		for (;;) {
1409:FATFS/src/ff.c **** 			res = create_name(dj, &path);	/* Get a segment */
1410:FATFS/src/ff.c **** 			if (res != FR_OK) break;
1411:FATFS/src/ff.c **** 			res = dir_find(dj);				/* Find it */
1412:FATFS/src/ff.c **** 			last = *(dj->fn+NS) & NS_LAST;
1413:FATFS/src/ff.c **** 			if (res != FR_OK) {				/* Could not find the object */
1414:FATFS/src/ff.c **** 				if (res == FR_NO_FILE && !last)
1415:FATFS/src/ff.c **** 					res = FR_NO_PATH;
1416:FATFS/src/ff.c **** 				break;
1417:FATFS/src/ff.c **** 			}
1418:FATFS/src/ff.c **** 			if (last) break;				/* Last segment match. Function completed. */
1419:FATFS/src/ff.c **** 			dir = dj->dir;					/* There is next segment. Follow the sub directory */
1420:FATFS/src/ff.c **** 			if (!(dir[DIR_Attr] & AM_DIR)) { /* Cannot follow because it is a file */
1421:FATFS/src/ff.c **** 				res = FR_NO_PATH; break;
1422:FATFS/src/ff.c **** 			}
1423:FATFS/src/ff.c **** 			dj->sclust = ((DWORD)LD_WORD(dir+DIR_FstClusHI) << 16) | LD_WORD(dir+DIR_FstClusLO);
1424:FATFS/src/ff.c **** 		}
1425:FATFS/src/ff.c **** 	}
1426:FATFS/src/ff.c **** 
1427:FATFS/src/ff.c **** 	return res;
1428:FATFS/src/ff.c **** }
1429:FATFS/src/ff.c **** 
1430:FATFS/src/ff.c **** 
ARM GAS  /tmp/ccnWcupz.s 			page 37


1431:FATFS/src/ff.c **** 
1432:FATFS/src/ff.c **** 
1433:FATFS/src/ff.c **** /*-----------------------------------------------------------------------*/
1434:FATFS/src/ff.c **** /* Load boot record and check if it is an FAT boot record                */
1435:FATFS/src/ff.c **** /*-----------------------------------------------------------------------*/
1436:FATFS/src/ff.c **** 
1437:FATFS/src/ff.c **** static
1438:FATFS/src/ff.c **** BYTE check_fs (	/* 0:The FAT boot record, 1:Valid boot record but not an FAT, 2:Not a boot record, 
1439:FATFS/src/ff.c **** 	FATFS *fs,	/* File system object */
1440:FATFS/src/ff.c **** 	DWORD sect	/* Sector# (lba) to check if it is an FAT boot record or not */
1441:FATFS/src/ff.c **** )
1442:FATFS/src/ff.c **** {
 608              		.loc 1 1442 0
 609              		.cfi_startproc
 610              		@ args = 0, pretend = 0, frame = 0
 611              		@ frame_needed = 0, uses_anonymous_args = 0
 612              	.LVL88:
 613 0000 10B5     		push	{r4, lr}
 614              	.LCFI8:
 615              		.cfi_def_cfa_offset 8
 616              		.cfi_offset 4, -8
 617              		.cfi_offset 14, -4
 618 0002 0446     		mov	r4, r0
1443:FATFS/src/ff.c **** 	if (disk_read(fs->drive, fs->win, sect, 1) != RES_OK)	/* Load boot record */
 619              		.loc 1 1443 0
 620 0004 0123     		movs	r3, #1
 621 0006 0A46     		mov	r2, r1
 622 0008 00F13401 		add	r1, r0, #52
 623              	.LVL89:
 624 000c 4078     		ldrb	r0, [r0, #1]	@ zero_extendqisi2
 625              	.LVL90:
 626 000e FFF7FEFF 		bl	disk_read
 627              	.LVL91:
 628 0012 88BB     		cbnz	r0, .L56
1444:FATFS/src/ff.c **** 		return 3;
1445:FATFS/src/ff.c **** 	if (LD_WORD(&fs->win[BS_55AA]) != 0xAA55)		/* Check record signature (always placed at offset 510 
 629              		.loc 1 1445 0
 630 0014 94F83322 		ldrb	r2, [r4, #563]	@ zero_extendqisi2
 631 0018 94F83232 		ldrb	r3, [r4, #562]	@ zero_extendqisi2
 632 001c 43EA0223 		orr	r3, r3, r2, lsl #8
 633 0020 1BB2     		sxth	r3, r3
 634 0022 184A     		ldr	r2, .L61
 635 0024 9342     		cmp	r3, r2
 636 0026 29D1     		bne	.L57
1446:FATFS/src/ff.c **** 		return 2;
1447:FATFS/src/ff.c **** 
1448:FATFS/src/ff.c **** 	if ((LD_DWORD(&fs->win[BS_FilSysType]) & 0xFFFFFF) == 0x544146)	/* Check "FAT" string */
 637              		.loc 1 1448 0
 638 0028 94F86D20 		ldrb	r2, [r4, #109]	@ zero_extendqisi2
 639 002c 94F86C30 		ldrb	r3, [r4, #108]	@ zero_extendqisi2
 640 0030 1B04     		lsls	r3, r3, #16
 641 0032 43EA0263 		orr	r3, r3, r2, lsl #24
 642 0036 94F86B20 		ldrb	r2, [r4, #107]	@ zero_extendqisi2
 643 003a 43EA0223 		orr	r3, r3, r2, lsl #8
 644 003e 94F86A20 		ldrb	r2, [r4, #106]	@ zero_extendqisi2
 645 0042 1343     		orrs	r3, r3, r2
 646 0044 23F07F43 		bic	r3, r3, #-16777216
ARM GAS  /tmp/ccnWcupz.s 			page 38


 647 0048 0F4A     		ldr	r2, .L61+4
 648 004a 9342     		cmp	r3, r2
 649 004c 18D0     		beq	.L58
1449:FATFS/src/ff.c **** 		return 0;
1450:FATFS/src/ff.c **** 	if ((LD_DWORD(&fs->win[BS_FilSysType32]) & 0xFFFFFF) == 0x544146)
 650              		.loc 1 1450 0
 651 004e 94F88920 		ldrb	r2, [r4, #137]	@ zero_extendqisi2
 652 0052 94F88830 		ldrb	r3, [r4, #136]	@ zero_extendqisi2
 653 0056 1B04     		lsls	r3, r3, #16
 654 0058 43EA0263 		orr	r3, r3, r2, lsl #24
 655 005c 94F88720 		ldrb	r2, [r4, #135]	@ zero_extendqisi2
 656 0060 43EA0223 		orr	r3, r3, r2, lsl #8
 657 0064 94F88620 		ldrb	r2, [r4, #134]	@ zero_extendqisi2
 658 0068 1343     		orrs	r3, r3, r2
 659 006a 23F07F43 		bic	r3, r3, #-16777216
 660 006e 064A     		ldr	r2, .L61+4
 661 0070 9342     		cmp	r3, r2
 662 0072 04D0     		beq	.L55
1451:FATFS/src/ff.c **** 		return 0;
1452:FATFS/src/ff.c **** 
1453:FATFS/src/ff.c **** 	return 1;
 663              		.loc 1 1453 0
 664 0074 0120     		movs	r0, #1
 665 0076 02E0     		b	.L55
 666              	.L56:
1444:FATFS/src/ff.c **** 	if (LD_WORD(&fs->win[BS_55AA]) != 0xAA55)		/* Check record signature (always placed at offset 510 
 667              		.loc 1 1444 0
 668 0078 0320     		movs	r0, #3
 669 007a 00E0     		b	.L55
 670              	.L57:
1446:FATFS/src/ff.c **** 
 671              		.loc 1 1446 0
 672 007c 0220     		movs	r0, #2
 673              	.L55:
1454:FATFS/src/ff.c **** }
 674              		.loc 1 1454 0
 675 007e 10BD     		pop	{r4, pc}
 676              	.LVL92:
 677              	.L58:
1449:FATFS/src/ff.c **** 	if ((LD_DWORD(&fs->win[BS_FilSysType32]) & 0xFFFFFF) == 0x544146)
 678              		.loc 1 1449 0
 679 0080 0020     		movs	r0, #0
 680 0082 FCE7     		b	.L55
 681              	.L62:
 682              		.align	2
 683              	.L61:
 684 0084 55AAFFFF 		.word	-21931
 685 0088 46415400 		.word	5521734
 686              		.cfi_endproc
 687              	.LFE54:
 689              		.section	.text.validate,"ax",%progbits
 690              		.align	1
 691              		.syntax unified
 692              		.thumb
 693              		.thumb_func
 694              		.fpu softvfp
 696              	validate:
ARM GAS  /tmp/ccnWcupz.s 			page 39


 697              	.LFB56:
1455:FATFS/src/ff.c **** 
1456:FATFS/src/ff.c **** 
1457:FATFS/src/ff.c **** 
1458:FATFS/src/ff.c **** 
1459:FATFS/src/ff.c **** /*-----------------------------------------------------------------------*/
1460:FATFS/src/ff.c **** /* Make sure that the file system is valid                               */
1461:FATFS/src/ff.c **** /*-----------------------------------------------------------------------*/
1462:FATFS/src/ff.c **** 
1463:FATFS/src/ff.c **** 
1464:FATFS/src/ff.c **** FRESULT chk_mounted (	/* FR_OK(0): successful, !=0: any error occured */
1465:FATFS/src/ff.c **** 	const XCHAR **path,	/* Pointer to pointer to the path name (drive number) */
1466:FATFS/src/ff.c **** 	FATFS **rfs,		/* Pointer to pointer to the found file system object */
1467:FATFS/src/ff.c **** 	BYTE chk_wp			/* !=0: Check media write protection for write access */
1468:FATFS/src/ff.c **** )
1469:FATFS/src/ff.c **** {
1470:FATFS/src/ff.c **** 	BYTE fmt, *tbl;
1471:FATFS/src/ff.c **** 	UINT vol;
1472:FATFS/src/ff.c **** 	DSTATUS stat;
1473:FATFS/src/ff.c **** 	DWORD bsect, fsize, tsect, mclst;
1474:FATFS/src/ff.c **** 	const XCHAR *p = *path;
1475:FATFS/src/ff.c **** 	FATFS *fs;
1476:FATFS/src/ff.c **** 
1477:FATFS/src/ff.c **** 	/* Get logical drive number from the path name */
1478:FATFS/src/ff.c **** 	vol = p[0] - '0';				/* Is there a drive number? */
1479:FATFS/src/ff.c **** 	if (vol <= 9 && p[1] == ':') {	/* Found a drive number, get and strip it */
1480:FATFS/src/ff.c **** 		p += 2; *path = p;			/* Return pointer to the path name */
1481:FATFS/src/ff.c **** 	} else {						/* No drive number is given */
1482:FATFS/src/ff.c **** #if _FS_RPATH
1483:FATFS/src/ff.c **** 		vol = Drive;				/* Use current drive */
1484:FATFS/src/ff.c **** #else
1485:FATFS/src/ff.c **** 		vol = 0;					/* Use drive 0 */
1486:FATFS/src/ff.c **** #endif
1487:FATFS/src/ff.c **** 	}
1488:FATFS/src/ff.c **** 
1489:FATFS/src/ff.c **** 	/* Check if the logical drive is valid or not */
1490:FATFS/src/ff.c **** 	if (vol >= _DRIVES) 			/* Is the drive number valid? */
1491:FATFS/src/ff.c **** 		return FR_INVALID_DRIVE;
1492:FATFS/src/ff.c **** 	*rfs = fs = FatFs[vol];			/* Returen pointer to the corresponding file system object */
1493:FATFS/src/ff.c **** 	if (!fs) return FR_NOT_ENABLED;	/* Is the file system object available? */
1494:FATFS/src/ff.c **** 
1495:FATFS/src/ff.c **** 	ENTER_FF(fs);					/* Lock file system */
1496:FATFS/src/ff.c **** 
1497:FATFS/src/ff.c **** 	if (fs->fs_type) {				/* If the logical drive has been mounted */
1498:FATFS/src/ff.c **** 		stat = disk_status(fs->drive);
1499:FATFS/src/ff.c **** 		if (!(stat & STA_NOINIT)) {	/* and the physical drive is kept initialized (has not been changed),
1500:FATFS/src/ff.c **** #if !_FS_READONLY
1501:FATFS/src/ff.c **** 			if (chk_wp && (stat & STA_PROTECT))	/* Check write protection if needed */
1502:FATFS/src/ff.c **** 				return FR_WRITE_PROTECTED;
1503:FATFS/src/ff.c **** #endif
1504:FATFS/src/ff.c **** 			return FR_OK;			/* The file system object is valid */
1505:FATFS/src/ff.c **** 		}
1506:FATFS/src/ff.c **** 	}
1507:FATFS/src/ff.c **** 
1508:FATFS/src/ff.c **** 	/* The logical drive must be mounted. Following code attempts to mount the volume */
1509:FATFS/src/ff.c **** 
1510:FATFS/src/ff.c **** 	fs->fs_type = 0;					/* Clear the file system object */
ARM GAS  /tmp/ccnWcupz.s 			page 40


1511:FATFS/src/ff.c **** 	fs->drive = (BYTE)LD2PD(vol);		/* Bind the logical drive and a physical drive */
1512:FATFS/src/ff.c **** 	stat = disk_initialize(fs->drive);	/* Initialize low level disk I/O layer */
1513:FATFS/src/ff.c **** 	if (stat & STA_NOINIT)				/* Check if the drive is ready */
1514:FATFS/src/ff.c **** 		return FR_NOT_READY;
1515:FATFS/src/ff.c **** #if _MAX_SS != 512						/* Get disk sector size if needed */
1516:FATFS/src/ff.c **** 	if (disk_ioctl(fs->drive, GET_SECTOR_SIZE, &SS(fs)) != RES_OK || SS(fs) > _MAX_SS)
1517:FATFS/src/ff.c **** 		return FR_NO_FILESYSTEM;
1518:FATFS/src/ff.c **** #endif
1519:FATFS/src/ff.c **** #if !_FS_READONLY
1520:FATFS/src/ff.c **** 	if (chk_wp && (stat & STA_PROTECT))	/* Check disk write protection if needed */
1521:FATFS/src/ff.c **** 		return FR_WRITE_PROTECTED;
1522:FATFS/src/ff.c **** #endif
1523:FATFS/src/ff.c **** 	/* Search FAT partition on the drive */
1524:FATFS/src/ff.c **** 	fmt = check_fs(fs, bsect = 0);		/* Check sector 0 as an SFD format */
1525:FATFS/src/ff.c **** 	if (fmt == 1) {						/* Not an FAT boot record, it may be patitioned */
1526:FATFS/src/ff.c **** 		/* Check a partition listed in top of the partition table */
1527:FATFS/src/ff.c **** 		tbl = &fs->win[MBR_Table + LD2PT(vol) * 16];	/* Partition table */
1528:FATFS/src/ff.c **** 		if (tbl[4]) {									/* Is the partition existing? */
1529:FATFS/src/ff.c **** 			bsect = LD_DWORD(&tbl[8]);					/* Partition offset in LBA */
1530:FATFS/src/ff.c **** 			fmt = check_fs(fs, bsect);					/* Check the partition */
1531:FATFS/src/ff.c **** 		}
1532:FATFS/src/ff.c **** 	}
1533:FATFS/src/ff.c **** 	if (fmt == 3) return FR_DISK_ERR;
1534:FATFS/src/ff.c **** 	if (fmt || LD_WORD(fs->win+BPB_BytsPerSec) != SS(fs))	/* No valid FAT patition is found */
1535:FATFS/src/ff.c **** 		return FR_NO_FILESYSTEM;
1536:FATFS/src/ff.c **** 
1537:FATFS/src/ff.c **** 	/* Initialize the file system object */
1538:FATFS/src/ff.c **** 	fsize = LD_WORD(fs->win+BPB_FATSz16);				/* Number of sectors per FAT */
1539:FATFS/src/ff.c **** 	if (!fsize) fsize = LD_DWORD(fs->win+BPB_FATSz32);
1540:FATFS/src/ff.c **** 	fs->sects_fat = fsize;
1541:FATFS/src/ff.c **** 	fs->n_fats = fs->win[BPB_NumFATs];					/* Number of FAT copies */
1542:FATFS/src/ff.c **** 	fsize *= fs->n_fats;								/* (Number of sectors in FAT area) */
1543:FATFS/src/ff.c **** 	fs->fatbase = bsect + LD_WORD(fs->win+BPB_RsvdSecCnt); /* FAT start sector (lba) */
1544:FATFS/src/ff.c **** 	fs->csize = fs->win[BPB_SecPerClus];				/* Number of sectors per cluster */
1545:FATFS/src/ff.c **** 	fs->n_rootdir = LD_WORD(fs->win+BPB_RootEntCnt);	/* Nmuber of root directory entries */
1546:FATFS/src/ff.c **** 	tsect = LD_WORD(fs->win+BPB_TotSec16);				/* Number of sectors on the volume */
1547:FATFS/src/ff.c **** 	if (!tsect) tsect = LD_DWORD(fs->win+BPB_TotSec32);
1548:FATFS/src/ff.c **** 	fs->max_clust = mclst = (tsect						/* Last cluster# + 1 (Number of clusters + 2) */
1549:FATFS/src/ff.c **** 		- LD_WORD(fs->win+BPB_RsvdSecCnt) - fsize - fs->n_rootdir / (SS(fs)/32)
1550:FATFS/src/ff.c **** 		) / fs->csize + 2;
1551:FATFS/src/ff.c **** 
1552:FATFS/src/ff.c **** 	fmt = FS_FAT12;										/* Determine the FAT sub type */
1553:FATFS/src/ff.c **** 	if (mclst >= 0xFF7) fmt = FS_FAT16;					/* Number of clusters >= 0xFF5 */
1554:FATFS/src/ff.c **** 	if (mclst >= 0xFFF7) fmt = FS_FAT32;				/* Number of clusters >= 0xFFF5 */
1555:FATFS/src/ff.c **** 
1556:FATFS/src/ff.c **** 	if (fmt == FS_FAT32)
1557:FATFS/src/ff.c **** 		fs->dirbase = LD_DWORD(fs->win+BPB_RootClus);	/* Root directory start cluster */
1558:FATFS/src/ff.c **** 	else
1559:FATFS/src/ff.c **** 		fs->dirbase = fs->fatbase + fsize;				/* Root directory start sector (lba) */
1560:FATFS/src/ff.c **** 	fs->database = fs->fatbase + fsize + fs->n_rootdir / (SS(fs)/32);	/* Data start sector (lba) */
1561:FATFS/src/ff.c **** 
1562:FATFS/src/ff.c **** #if !_FS_READONLY
1563:FATFS/src/ff.c **** 	/* Initialize allocation information */
1564:FATFS/src/ff.c **** 	fs->free_clust = 0xFFFFFFFF;
1565:FATFS/src/ff.c **** 	fs->wflag = 0;
1566:FATFS/src/ff.c **** 	/* Get fsinfo if needed */
1567:FATFS/src/ff.c **** 	if (fmt == FS_FAT32) {
ARM GAS  /tmp/ccnWcupz.s 			page 41


1568:FATFS/src/ff.c **** 	 	fs->fsi_flag = 0;
1569:FATFS/src/ff.c **** 		fs->fsi_sector = bsect + LD_WORD(fs->win+BPB_FSInfo);
1570:FATFS/src/ff.c **** 		if (disk_read(fs->drive, fs->win, fs->fsi_sector, 1) == RES_OK &&
1571:FATFS/src/ff.c **** 			LD_WORD(fs->win+BS_55AA) == 0xAA55 &&
1572:FATFS/src/ff.c **** 			LD_DWORD(fs->win+FSI_LeadSig) == 0x41615252 &&
1573:FATFS/src/ff.c **** 			LD_DWORD(fs->win+FSI_StrucSig) == 0x61417272) {
1574:FATFS/src/ff.c **** 			fs->last_clust = LD_DWORD(fs->win+FSI_Nxt_Free);
1575:FATFS/src/ff.c **** 			fs->free_clust = LD_DWORD(fs->win+FSI_Free_Count);
1576:FATFS/src/ff.c **** 		}
1577:FATFS/src/ff.c **** 	}
1578:FATFS/src/ff.c **** #endif
1579:FATFS/src/ff.c **** 	fs->fs_type = fmt;		/* FAT sub-type */
1580:FATFS/src/ff.c **** 	fs->winsect = 0;		/* Invalidate sector cache */
1581:FATFS/src/ff.c **** #if _FS_RPATH
1582:FATFS/src/ff.c **** 	fs->cdir = 0;			/* Current directory (root dir) */
1583:FATFS/src/ff.c **** #endif
1584:FATFS/src/ff.c **** 	fs->id = ++Fsid;		/* File system mount ID */
1585:FATFS/src/ff.c **** 
1586:FATFS/src/ff.c **** 	return FR_OK;
1587:FATFS/src/ff.c **** }
1588:FATFS/src/ff.c **** 
1589:FATFS/src/ff.c **** 
1590:FATFS/src/ff.c **** 
1591:FATFS/src/ff.c **** 
1592:FATFS/src/ff.c **** /*-----------------------------------------------------------------------*/
1593:FATFS/src/ff.c **** /* Check if the file/dir object is valid or not                          */
1594:FATFS/src/ff.c **** /*-----------------------------------------------------------------------*/
1595:FATFS/src/ff.c **** 
1596:FATFS/src/ff.c **** static
1597:FATFS/src/ff.c **** FRESULT validate (	/* FR_OK(0): The object is valid, !=0: Invalid */
1598:FATFS/src/ff.c **** 	FATFS *fs,		/* Pointer to the file system object */
1599:FATFS/src/ff.c **** 	WORD id			/* Member id of the target object to be checked */
1600:FATFS/src/ff.c **** )
1601:FATFS/src/ff.c **** {
 698              		.loc 1 1601 0
 699              		.cfi_startproc
 700              		@ args = 0, pretend = 0, frame = 0
 701              		@ frame_needed = 0, uses_anonymous_args = 0
 702              	.LVL93:
1602:FATFS/src/ff.c **** 	if (!fs || !fs->fs_type || fs->id != id)
 703              		.loc 1 1602 0
 704 0000 88B1     		cbz	r0, .L65
1601:FATFS/src/ff.c **** 	if (!fs || !fs->fs_type || fs->id != id)
 705              		.loc 1 1601 0 discriminator 1
 706 0002 08B5     		push	{r3, lr}
 707              	.LCFI9:
 708              		.cfi_def_cfa_offset 8
 709              		.cfi_offset 3, -8
 710              		.cfi_offset 14, -4
 711              		.loc 1 1602 0 discriminator 1
 712 0004 0278     		ldrb	r2, [r0]	@ zero_extendqisi2
 713 0006 82B1     		cbz	r2, .L66
 714              		.loc 1 1602 0 is_stmt 0 discriminator 2
 715 0008 C288     		ldrh	r2, [r0, #6]
 716 000a 8A42     		cmp	r2, r1
 717 000c 01D0     		beq	.L73
1603:FATFS/src/ff.c **** 		return FR_INVALID_OBJECT;
ARM GAS  /tmp/ccnWcupz.s 			page 42


 718              		.loc 1 1603 0 is_stmt 1
 719 000e 0920     		movs	r0, #9
 720              	.LVL94:
 721              	.L64:
1604:FATFS/src/ff.c **** 
1605:FATFS/src/ff.c **** 	ENTER_FF(fs);		/* Lock file system */
1606:FATFS/src/ff.c **** 
1607:FATFS/src/ff.c **** 	if (disk_status(fs->drive) & STA_NOINIT)
1608:FATFS/src/ff.c **** 		return FR_NOT_READY;
1609:FATFS/src/ff.c **** 
1610:FATFS/src/ff.c **** 	return FR_OK;
1611:FATFS/src/ff.c **** }
 722              		.loc 1 1611 0
 723 0010 08BD     		pop	{r3, pc}
 724              	.LVL95:
 725              	.L73:
1607:FATFS/src/ff.c **** 		return FR_NOT_READY;
 726              		.loc 1 1607 0
 727 0012 4078     		ldrb	r0, [r0, #1]	@ zero_extendqisi2
 728              	.LVL96:
 729 0014 FFF7FEFF 		bl	disk_status
 730              	.LVL97:
 731 0018 10F0010F 		tst	r0, #1
 732 001c 01D1     		bne	.L74
1610:FATFS/src/ff.c **** }
 733              		.loc 1 1610 0
 734 001e 0020     		movs	r0, #0
 735 0020 F6E7     		b	.L64
 736              	.L74:
1608:FATFS/src/ff.c **** 
 737              		.loc 1 1608 0
 738 0022 0320     		movs	r0, #3
 739 0024 F4E7     		b	.L64
 740              	.LVL98:
 741              	.L65:
 742              	.LCFI10:
 743              		.cfi_def_cfa_offset 0
 744              		.cfi_restore 3
 745              		.cfi_restore 14
1603:FATFS/src/ff.c **** 
 746              		.loc 1 1603 0
 747 0026 0920     		movs	r0, #9
 748              	.LVL99:
 749              		.loc 1 1611 0
 750 0028 7047     		bx	lr
 751              	.LVL100:
 752              	.L66:
 753              	.LCFI11:
 754              		.cfi_def_cfa_offset 8
 755              		.cfi_offset 3, -8
 756              		.cfi_offset 14, -4
1603:FATFS/src/ff.c **** 
 757              		.loc 1 1603 0
 758 002a 0920     		movs	r0, #9
 759              	.LVL101:
 760 002c F0E7     		b	.L64
 761              		.cfi_endproc
ARM GAS  /tmp/ccnWcupz.s 			page 43


 762              	.LFE56:
 764              		.section	.text.create_name,"ax",%progbits
 765              		.align	1
 766              		.syntax unified
 767              		.thumb
 768              		.thumb_func
 769              		.fpu softvfp
 771              	create_name:
 772              	.LFB51:
1101:FATFS/src/ff.c **** #ifdef _EXCVT
 773              		.loc 1 1101 0
 774              		.cfi_startproc
 775              		@ args = 0, pretend = 0, frame = 8
 776              		@ frame_needed = 0, uses_anonymous_args = 0
 777              	.LVL102:
 778 0000 2DE9F04F 		push	{r4, r5, r6, r7, r8, r9, r10, fp, lr}
 779              	.LCFI12:
 780              		.cfi_def_cfa_offset 36
 781              		.cfi_offset 4, -36
 782              		.cfi_offset 5, -32
 783              		.cfi_offset 6, -28
 784              		.cfi_offset 7, -24
 785              		.cfi_offset 8, -20
 786              		.cfi_offset 9, -16
 787              		.cfi_offset 10, -12
 788              		.cfi_offset 11, -8
 789              		.cfi_offset 14, -4
 790 0004 83B0     		sub	sp, sp, #12
 791              	.LCFI13:
 792              		.cfi_def_cfa_offset 48
 793 0006 0646     		mov	r6, r0
 794 0008 8A46     		mov	r10, r1
 795              	.LVL103:
1114:FATFS/src/ff.c **** 	lfn = dj->lfn;
 796              		.loc 1 1114 0
 797 000a D1F80080 		ldr	r8, [r1]
 798              	.LVL104:
1115:FATFS/src/ff.c **** 	for (;;) {
 799              		.loc 1 1115 0
 800 000e C569     		ldr	r5, [r0, #28]
 801              	.LVL105:
1113:FATFS/src/ff.c **** 	p = *path;
 802              		.loc 1 1113 0
 803 0010 0024     		movs	r4, #0
 804 0012 02E0     		b	.L79
 805              	.LVL106:
 806              	.L78:
1134:FATFS/src/ff.c **** 	}
 807              		.loc 1 1134 0
 808 0014 25F81940 		strh	r4, [r5, r9, lsl #1]	@ movhi
1117:FATFS/src/ff.c **** 		if (w < ' ' || w == '/' || w == '\\') break;	/* Break on end of segment */
 809              		.loc 1 1117 0
 810 0018 3C46     		mov	r4, r7
 811              	.LVL107:
 812              	.L79:
 813 001a 671C     		adds	r7, r4, #1
 814              	.LVL108:
ARM GAS  /tmp/ccnWcupz.s 			page 44


 815 001c A146     		mov	r9, r4
 816 001e 18F80400 		ldrb	r0, [r8, r4]	@ zero_extendqisi2
 817              	.LVL109:
1118:FATFS/src/ff.c **** 		if (di >= _MAX_LFN)				/* Reject too long name */
 818              		.loc 1 1118 0
 819 0022 1F28     		cmp	r0, #31
 820 0024 17D9     		bls	.L76
1118:FATFS/src/ff.c **** 		if (di >= _MAX_LFN)				/* Reject too long name */
 821              		.loc 1 1118 0 is_stmt 0 discriminator 1
 822 0026 2F28     		cmp	r0, #47
 823 0028 15D0     		beq	.L76
1118:FATFS/src/ff.c **** 		if (di >= _MAX_LFN)				/* Reject too long name */
 824              		.loc 1 1118 0 discriminator 2
 825 002a 5C28     		cmp	r0, #92
 826 002c 13D0     		beq	.L76
1119:FATFS/src/ff.c **** 			return FR_INVALID_NAME;
 827              		.loc 1 1119 0 is_stmt 1
 828 002e FE2C     		cmp	r4, #254
 829 0030 00F31281 		bgt	.L118
1129:FATFS/src/ff.c **** 		if (!w) return FR_INVALID_NAME;	/* Reject invalid code */
 830              		.loc 1 1129 0
 831 0034 0121     		movs	r1, #1
 832 0036 FFF7FEFF 		bl	ff_convert
 833              	.LVL110:
1130:FATFS/src/ff.c **** #endif
 834              		.loc 1 1130 0
 835 003a 0446     		mov	r4, r0
 836              	.LVL111:
 837 003c 0028     		cmp	r0, #0
 838 003e 00F00D81 		beq	.L119
1132:FATFS/src/ff.c **** 			return FR_INVALID_NAME;
 839              		.loc 1 1132 0
 840 0042 7F28     		cmp	r0, #127
 841 0044 E6D8     		bhi	.L78
1132:FATFS/src/ff.c **** 			return FR_INVALID_NAME;
 842              		.loc 1 1132 0 is_stmt 0 discriminator 1
 843 0046 0146     		mov	r1, r0
 844 0048 8648     		ldr	r0, .L137
 845              	.LVL112:
 846 004a FFF7FEFF 		bl	chk_chr
 847              	.LVL113:
 848 004e 0028     		cmp	r0, #0
 849 0050 E0D0     		beq	.L78
1133:FATFS/src/ff.c **** 		lfn[di++] = w;					/* Store the Unicode char */
 850              		.loc 1 1133 0 is_stmt 1
 851 0052 0620     		movs	r0, #6
 852 0054 B9E0     		b	.L77
 853              	.LVL114:
 854              	.L76:
1136:FATFS/src/ff.c **** 	cf = (w < ' ') ? NS_LAST : 0;		/* Set last segment flag if end of path */
 855              		.loc 1 1136 0
 856 0056 4744     		add	r7, r7, r8
 857              	.LVL115:
 858 0058 CAF80070 		str	r7, [r10]
1137:FATFS/src/ff.c **** #if _FS_RPATH
 859              		.loc 1 1137 0
 860 005c 1F28     		cmp	r0, #31
ARM GAS  /tmp/ccnWcupz.s 			page 45


 861 005e 14D8     		bhi	.L121
 862 0060 4FF00408 		mov	r8, #4
 863              	.LVL116:
 864              	.L80:
1139:FATFS/src/ff.c **** 		(di == 2 && lfn[di - 1] == '.' && lfn[di - 2] == '.')) {
 865              		.loc 1 1139 0 discriminator 4
 866 0064 012C     		cmp	r4, #1
 867 0066 13D0     		beq	.L126
 868              	.L81:
1139:FATFS/src/ff.c **** 		(di == 2 && lfn[di - 1] == '.' && lfn[di - 2] == '.')) {
 869              		.loc 1 1139 0 is_stmt 0 discriminator 3
 870 0068 022C     		cmp	r4, #2
 871 006a 2ED1     		bne	.L89
1140:FATFS/src/ff.c **** 		lfn[di] = 0;
 872              		.loc 1 1140 0 is_stmt 1
 873 006c 09F10043 		add	r3, r9, #-2147483648
 874 0070 013B     		subs	r3, r3, #1
 875 0072 35F81330 		ldrh	r3, [r5, r3, lsl #1]
 876 0076 2E2B     		cmp	r3, #46
 877 0078 27D1     		bne	.L89
1140:FATFS/src/ff.c **** 		lfn[di] = 0;
 878              		.loc 1 1140 0 is_stmt 0 discriminator 1
 879 007a 09F10043 		add	r3, r9, #-2147483648
 880 007e 023B     		subs	r3, r3, #2
 881 0080 35F81330 		ldrh	r3, [r5, r3, lsl #1]
 882 0084 2E2B     		cmp	r3, #46
 883 0086 20D1     		bne	.L89
 884 0088 09E0     		b	.L82
 885              	.LVL117:
 886              	.L121:
1137:FATFS/src/ff.c **** #if _FS_RPATH
 887              		.loc 1 1137 0 is_stmt 1
 888 008a 4FF00008 		mov	r8, #0
 889              	.LVL118:
 890 008e E9E7     		b	.L80
 891              	.LVL119:
 892              	.L126:
1139:FATFS/src/ff.c **** 		(di == 2 && lfn[di - 1] == '.' && lfn[di - 2] == '.')) {
 893              		.loc 1 1139 0 discriminator 1
 894 0090 09F10043 		add	r3, r9, #-2147483648
 895 0094 013B     		subs	r3, r3, #1
 896 0096 35F81330 		ldrh	r3, [r5, r3, lsl #1]
 897 009a 2E2B     		cmp	r3, #46
 898 009c E4D1     		bne	.L81
 899              	.L82:
1141:FATFS/src/ff.c **** 		for (i = 0; i < 11; i++)
 900              		.loc 1 1141 0
 901 009e 0023     		movs	r3, #0
 902 00a0 25F81930 		strh	r3, [r5, r9, lsl #1]	@ movhi
 903              	.LVL120:
1142:FATFS/src/ff.c **** 			dj->fn[i] = (i < di) ? '.' : ' ';
 904              		.loc 1 1142 0
 905 00a4 03E0     		b	.L84
 906              	.LVL121:
 907              	.L122:
1143:FATFS/src/ff.c **** 		dj->fn[i] = cf | NS_DOT;		/* This is a dot entry */
 908              		.loc 1 1143 0
ARM GAS  /tmp/ccnWcupz.s 			page 46


 909 00a6 2021     		movs	r1, #32
 910              	.L85:
1143:FATFS/src/ff.c **** 		dj->fn[i] = cf | NS_DOT;		/* This is a dot entry */
 911              		.loc 1 1143 0 is_stmt 0 discriminator 4
 912 00a8 B269     		ldr	r2, [r6, #24]
 913 00aa D154     		strb	r1, [r2, r3]
1142:FATFS/src/ff.c **** 			dj->fn[i] = (i < di) ? '.' : ' ';
 914              		.loc 1 1142 0 is_stmt 1 discriminator 4
 915 00ac 0133     		adds	r3, r3, #1
 916              	.LVL122:
 917              	.L84:
1142:FATFS/src/ff.c **** 			dj->fn[i] = (i < di) ? '.' : ' ';
 918              		.loc 1 1142 0 is_stmt 0 discriminator 2
 919 00ae 0A2B     		cmp	r3, #10
 920 00b0 03DC     		bgt	.L127
1143:FATFS/src/ff.c **** 		dj->fn[i] = cf | NS_DOT;		/* This is a dot entry */
 921              		.loc 1 1143 0 is_stmt 1
 922 00b2 A342     		cmp	r3, r4
 923 00b4 F7DA     		bge	.L122
 924 00b6 2E21     		movs	r1, #46
 925 00b8 F6E7     		b	.L85
 926              	.L127:
1144:FATFS/src/ff.c **** 		return FR_OK;
 927              		.loc 1 1144 0
 928 00ba B269     		ldr	r2, [r6, #24]
 929 00bc 48F02008 		orr	r8, r8, #32
 930              	.LVL123:
 931 00c0 02F80380 		strb	r8, [r2, r3]
1145:FATFS/src/ff.c **** 	}
 932              		.loc 1 1145 0
 933 00c4 0020     		movs	r0, #0
 934              	.LVL124:
 935 00c6 80E0     		b	.L77
 936              	.LVL125:
 937              	.L87:
1151:FATFS/src/ff.c **** 	}
 938              		.loc 1 1151 0
 939 00c8 013C     		subs	r4, r4, #1
 940              	.LVL126:
 941              	.L89:
1148:FATFS/src/ff.c **** 		w = lfn[di - 1];
 942              		.loc 1 1148 0
 943 00ca 44B1     		cbz	r4, .L88
1149:FATFS/src/ff.c **** 		if (w != ' ' && w != '.') break;
 944              		.loc 1 1149 0
 945 00cc 04F10043 		add	r3, r4, #-2147483648
 946 00d0 013B     		subs	r3, r3, #1
 947 00d2 35F81330 		ldrh	r3, [r5, r3, lsl #1]
 948              	.LVL127:
1150:FATFS/src/ff.c **** 		di--;
 949              		.loc 1 1150 0
 950 00d6 202B     		cmp	r3, #32
 951 00d8 F6D0     		beq	.L87
1150:FATFS/src/ff.c **** 		di--;
 952              		.loc 1 1150 0 is_stmt 0 discriminator 1
 953 00da 2E2B     		cmp	r3, #46
 954 00dc F4D0     		beq	.L87
ARM GAS  /tmp/ccnWcupz.s 			page 47


 955              	.LVL128:
 956              	.L88:
1153:FATFS/src/ff.c **** 
 957              		.loc 1 1153 0 is_stmt 1
 958 00de 002C     		cmp	r4, #0
 959 00e0 00F0BE80 		beq	.L123
1155:FATFS/src/ff.c **** 
 960              		.loc 1 1155 0
 961 00e4 0027     		movs	r7, #0
 962 00e6 25F81470 		strh	r7, [r5, r4, lsl #1]	@ movhi
1158:FATFS/src/ff.c **** 	for (si = 0; lfn[si] == ' ' || lfn[si] == '.'; si++) ;	/* Strip leading spaces and dots */
 963              		.loc 1 1158 0
 964 00ea 0B22     		movs	r2, #11
 965 00ec 2021     		movs	r1, #32
 966 00ee B069     		ldr	r0, [r6, #24]
 967 00f0 FFF7FEFF 		bl	mem_set
 968              	.LVL129:
1159:FATFS/src/ff.c **** 	if (si) cf |= NS_LOSS | NS_LFN;
 969              		.loc 1 1159 0
 970 00f4 00E0     		b	.L91
 971              	.LVL130:
 972              	.L92:
1159:FATFS/src/ff.c **** 	if (si) cf |= NS_LOSS | NS_LFN;
 973              		.loc 1 1159 0 is_stmt 0 discriminator 5
 974 00f6 0137     		adds	r7, r7, #1
 975              	.LVL131:
 976              	.L91:
1159:FATFS/src/ff.c **** 	if (si) cf |= NS_LOSS | NS_LFN;
 977              		.loc 1 1159 0 discriminator 1
 978 00f8 35F81720 		ldrh	r2, [r5, r7, lsl #1]
 979 00fc 202A     		cmp	r2, #32
 980 00fe FAD0     		beq	.L92
1159:FATFS/src/ff.c **** 	if (si) cf |= NS_LOSS | NS_LFN;
 981              		.loc 1 1159 0 discriminator 4
 982 0100 2E2A     		cmp	r2, #46
 983 0102 F8D0     		beq	.L92
1160:FATFS/src/ff.c **** 	while (di && lfn[di - 1] != '.') di--;	/* Find extension (di<=si: no extension) */
 984              		.loc 1 1160 0 is_stmt 1
 985 0104 1FB1     		cbz	r7, .L94
1160:FATFS/src/ff.c **** 	while (di && lfn[di - 1] != '.') di--;	/* Find extension (di<=si: no extension) */
 986              		.loc 1 1160 0 is_stmt 0 discriminator 1
 987 0106 48F00308 		orr	r8, r8, #3
 988              	.LVL132:
 989 010a 00E0     		b	.L94
 990              	.L96:
1161:FATFS/src/ff.c **** 
 991              		.loc 1 1161 0 is_stmt 1 discriminator 3
 992 010c 013C     		subs	r4, r4, #1
 993              	.LVL133:
 994              	.L94:
1161:FATFS/src/ff.c **** 
 995              		.loc 1 1161 0 is_stmt 0 discriminator 1
 996 010e 6CB1     		cbz	r4, .L124
1161:FATFS/src/ff.c **** 
 997              		.loc 1 1161 0 discriminator 2
 998 0110 04F10042 		add	r2, r4, #-2147483648
 999 0114 013A     		subs	r2, r2, #1
ARM GAS  /tmp/ccnWcupz.s 			page 48


 1000 0116 35F81220 		ldrh	r2, [r5, r2, lsl #1]
 1001 011a 2E2A     		cmp	r2, #46
 1002 011c F6D1     		bne	.L96
 1003 011e 4FF0080A 		mov	r10, #8
 1004              	.LVL134:
 1005 0122 4FF0000B 		mov	fp, #0
 1006 0126 CDF804B0 		str	fp, [sp, #4]
 1007 012a 0AE0     		b	.L97
 1008              	.LVL135:
 1009              	.L124:
 1010 012c A346     		mov	fp, r4
 1011 012e 4FF0080A 		mov	r10, #8
 1012              	.LVL136:
 1013 0132 0023     		movs	r3, #0
 1014 0134 0193     		str	r3, [sp, #4]
 1015 0136 04E0     		b	.L97
 1016              	.LVL137:
 1017              	.L128:
1167:FATFS/src/ff.c **** 			cf |= NS_LOSS | NS_LFN; continue;
 1018              		.loc 1 1167 0 is_stmt 1 discriminator 2
 1019 0138 4C45     		cmp	r4, r9
 1020 013a 0BD0     		beq	.L100
 1021              	.L99:
1168:FATFS/src/ff.c **** 		}
 1022              		.loc 1 1168 0
 1023 013c 48F00308 		orr	r8, r8, #3
 1024              	.LVL138:
1165:FATFS/src/ff.c **** 		if (!w) break;					/* Break on enf of the LFN */
 1025              		.loc 1 1165 0
 1026 0140 4F46     		mov	r7, r9
 1027              	.LVL139:
 1028              	.L97:
 1029 0142 07F10109 		add	r9, r7, #1
 1030              	.LVL140:
 1031 0146 35F81770 		ldrh	r7, [r5, r7, lsl #1]
 1032              	.LVL141:
1166:FATFS/src/ff.c **** 		if (w == ' ' || (w == '.' && si != di)) {	/* Remove spaces and dots */
 1033              		.loc 1 1166 0
 1034 014a F7B1     		cbz	r7, .L98
1167:FATFS/src/ff.c **** 			cf |= NS_LOSS | NS_LFN; continue;
 1035              		.loc 1 1167 0
 1036 014c 202F     		cmp	r7, #32
 1037 014e F5D0     		beq	.L99
1167:FATFS/src/ff.c **** 			cf |= NS_LOSS | NS_LFN; continue;
 1038              		.loc 1 1167 0 is_stmt 0 discriminator 1
 1039 0150 2E2F     		cmp	r7, #46
 1040 0152 F1D0     		beq	.L128
 1041              	.L100:
1171:FATFS/src/ff.c **** 			if (ni == 11) {				/* Long extension */
 1042              		.loc 1 1171 0 is_stmt 1
 1043 0154 D345     		cmp	fp, r10
 1044 0156 0FDA     		bge	.L102
1171:FATFS/src/ff.c **** 			if (ni == 11) {				/* Long extension */
 1045              		.loc 1 1171 0 is_stmt 0 discriminator 1
 1046 0158 4C45     		cmp	r4, r9
 1047 015a 0DD0     		beq	.L102
1181:FATFS/src/ff.c **** #ifdef _EXCVT
ARM GAS  /tmp/ccnWcupz.s 			page 49


 1048              		.loc 1 1181 0 is_stmt 1
 1049 015c 7F2F     		cmp	r7, #127
 1050 015e 44D8     		bhi	.L129
 1051              	.L106:
1197:FATFS/src/ff.c **** 				w = '_'; cf |= NS_LOSS | NS_LFN;	/* Lossy conversion */
 1052              		.loc 1 1197 0
 1053 0160 002F     		cmp	r7, #0
 1054 0162 4FD1     		bne	.L130
 1055              	.L108:
 1056              	.LVL142:
1198:FATFS/src/ff.c **** 			} else {
 1057              		.loc 1 1198 0
 1058 0164 48F00308 		orr	r8, r8, #3
 1059              	.LVL143:
 1060 0168 5F27     		movs	r7, #95
 1061              	.LVL144:
 1062              	.L110:
1209:FATFS/src/ff.c **** 	}
 1063              		.loc 1 1209 0
 1064 016a B369     		ldr	r3, [r6, #24]
 1065              	.LVL145:
 1066 016c 03F80B70 		strb	r7, [r3, fp]
1165:FATFS/src/ff.c **** 		if (!w) break;					/* Break on enf of the LFN */
 1067              		.loc 1 1165 0
 1068 0170 4F46     		mov	r7, r9
 1069              	.LVL146:
1209:FATFS/src/ff.c **** 	}
 1070              		.loc 1 1209 0
 1071 0172 0BF1010B 		add	fp, fp, #1
 1072              	.LVL147:
 1073 0176 E4E7     		b	.L97
 1074              	.LVL148:
 1075              	.L102:
1172:FATFS/src/ff.c **** 				cf |= NS_LOSS | NS_LFN; break;
 1076              		.loc 1 1172 0
 1077 0178 BAF10B0F 		cmp	r10, #11
 1078 017c 28D0     		beq	.L131
1175:FATFS/src/ff.c **** 			if (si > di) break;			/* No extension */
 1079              		.loc 1 1175 0
 1080 017e 4C45     		cmp	r4, r9
 1081 0180 01D0     		beq	.L105
1175:FATFS/src/ff.c **** 			if (si > di) break;			/* No extension */
 1082              		.loc 1 1175 0 is_stmt 0 discriminator 1
 1083 0182 48F00308 		orr	r8, r8, #3
 1084              	.LVL149:
 1085              	.L105:
1176:FATFS/src/ff.c **** 			si = di; i = 8; ni = 11;	/* Enter extension section */
 1086              		.loc 1 1176 0 is_stmt 1
 1087 0186 4C45     		cmp	r4, r9
 1088 0188 25DA     		bge	.L132
 1089              	.L98:
1212:FATFS/src/ff.c **** 
 1090              		.loc 1 1212 0
 1091 018a B369     		ldr	r3, [r6, #24]
 1092 018c 1A78     		ldrb	r2, [r3]	@ zero_extendqisi2
 1093 018e E52A     		cmp	r2, #229
 1094 0190 54D0     		beq	.L133
ARM GAS  /tmp/ccnWcupz.s 			page 50


 1095              	.L112:
1214:FATFS/src/ff.c **** 	if ((b & 0x0C) == 0x0C || (b & 0x03) == 0x03)	/* Create LFN entry when there are composite capital
 1096              		.loc 1 1214 0
 1097 0192 BAF1080F 		cmp	r10, #8
 1098 0196 54D0     		beq	.L134
 1099              	.L113:
 1100 0198 019B     		ldr	r3, [sp, #4]
 1101 019a 03F00C02 		and	r2, r3, #12
1215:FATFS/src/ff.c **** 		cf |= NS_LFN;
 1102              		.loc 1 1215 0
 1103 019e 0C2A     		cmp	r2, #12
 1104 01a0 03D0     		beq	.L114
1215:FATFS/src/ff.c **** 		cf |= NS_LFN;
 1105              		.loc 1 1215 0 is_stmt 0 discriminator 1
 1106 01a2 03F00303 		and	r3, r3, #3
 1107 01a6 032B     		cmp	r3, #3
 1108 01a8 01D1     		bne	.L115
 1109              	.L114:
1216:FATFS/src/ff.c **** 	if (!(cf & NS_LFN)) {						/* When LFN is in 8.3 format without extended char, NT flags are create
 1110              		.loc 1 1216 0 is_stmt 1
 1111 01aa 48F00208 		orr	r8, r8, #2
 1112              	.LVL150:
 1113              	.L115:
1217:FATFS/src/ff.c **** 		if ((b & 0x03) == 0x01) cf |= NS_EXT;	/* NT flag (Extension has only small capital) */
 1114              		.loc 1 1217 0
 1115 01ae 18F0020F 		tst	r8, #2
 1116 01b2 06D1     		bne	.L116
1218:FATFS/src/ff.c **** 		if ((b & 0x0C) == 0x04) cf |= NS_BODY;	/* NT flag (Filename has only small capital) */
 1117              		.loc 1 1218 0
 1118 01b4 019B     		ldr	r3, [sp, #4]
 1119 01b6 03F00303 		and	r3, r3, #3
 1120 01ba 012B     		cmp	r3, #1
 1121 01bc 46D0     		beq	.L135
 1122              	.L117:
1219:FATFS/src/ff.c **** 	}
 1123              		.loc 1 1219 0
 1124 01be 042A     		cmp	r2, #4
 1125 01c0 47D0     		beq	.L136
 1126              	.L116:
1222:FATFS/src/ff.c **** 
 1127              		.loc 1 1222 0
 1128 01c2 B369     		ldr	r3, [r6, #24]
 1129 01c4 83F80B80 		strb	r8, [r3, #11]
1224:FATFS/src/ff.c **** 
 1130              		.loc 1 1224 0
 1131 01c8 0020     		movs	r0, #0
 1132              	.LVL151:
 1133              	.L77:
1301:FATFS/src/ff.c **** 
 1134              		.loc 1 1301 0
 1135 01ca 03B0     		add	sp, sp, #12
 1136              	.LCFI14:
 1137              		.cfi_remember_state
 1138              		.cfi_def_cfa_offset 36
 1139              		@ sp needed
 1140 01cc BDE8F08F 		pop	{r4, r5, r6, r7, r8, r9, r10, fp, pc}
 1141              	.LVL152:
ARM GAS  /tmp/ccnWcupz.s 			page 51


 1142              	.L131:
 1143              	.LCFI15:
 1144              		.cfi_restore_state
1173:FATFS/src/ff.c **** 			}
 1145              		.loc 1 1173 0
 1146 01d0 48F00308 		orr	r8, r8, #3
 1147              	.LVL153:
 1148 01d4 D9E7     		b	.L98
 1149              	.L132:
 1150              	.LVL154:
1178:FATFS/src/ff.c **** 		}
 1151              		.loc 1 1178 0
 1152 01d6 019B     		ldr	r3, [sp, #4]
 1153 01d8 9B00     		lsls	r3, r3, #2
 1154 01da DBB2     		uxtb	r3, r3
 1155 01dc 0193     		str	r3, [sp, #4]
 1156              	.LVL155:
1177:FATFS/src/ff.c **** 			b <<= 2; continue;
 1157              		.loc 1 1177 0
 1158 01de 2746     		mov	r7, r4
 1159              	.LVL156:
 1160 01e0 4FF00B0A 		mov	r10, #11
 1161 01e4 4FF0080B 		mov	fp, #8
1178:FATFS/src/ff.c **** 		}
 1162              		.loc 1 1178 0
 1163 01e8 ABE7     		b	.L97
 1164              	.LVL157:
 1165              	.L129:
1183:FATFS/src/ff.c **** 			if (w) w = cvt[w - 0x80];	/* Convert extended char to upper (SBCS) */
 1166              		.loc 1 1183 0
 1167 01ea 0021     		movs	r1, #0
 1168 01ec 3846     		mov	r0, r7
 1169 01ee FFF7FEFF 		bl	ff_convert
 1170              	.LVL158:
1184:FATFS/src/ff.c **** #else
 1171              		.loc 1 1184 0
 1172 01f2 0746     		mov	r7, r0
 1173 01f4 18B1     		cbz	r0, .L107
1184:FATFS/src/ff.c **** #else
 1174              		.loc 1 1184 0 is_stmt 0 discriminator 1
 1175 01f6 A0F18007 		sub	r7, r0, #128
 1176 01fa 1B4B     		ldr	r3, .L137+4
 1177 01fc DF5D     		ldrb	r7, [r3, r7]	@ zero_extendqisi2
 1178              	.LVL159:
 1179              	.L107:
1188:FATFS/src/ff.c **** 		}
 1180              		.loc 1 1188 0 is_stmt 1
 1181 01fe 48F00208 		orr	r8, r8, #2
 1182              	.LVL160:
 1183 0202 ADE7     		b	.L106
 1184              	.L130:
1197:FATFS/src/ff.c **** 				w = '_'; cf |= NS_LOSS | NS_LFN;	/* Lossy conversion */
 1185              		.loc 1 1197 0 discriminator 1
 1186 0204 3946     		mov	r1, r7
 1187 0206 1948     		ldr	r0, .L137+8
 1188 0208 FFF7FEFF 		bl	chk_chr
 1189              	.LVL161:
ARM GAS  /tmp/ccnWcupz.s 			page 52


 1190 020c 0028     		cmp	r0, #0
 1191 020e A9D1     		bne	.L108
1200:FATFS/src/ff.c **** 					b |= 2;
 1192              		.loc 1 1200 0
 1193 0210 A7F14103 		sub	r3, r7, #65
 1194 0214 9BB2     		uxth	r3, r3
 1195 0216 192B     		cmp	r3, #25
 1196 0218 04D8     		bhi	.L111
1201:FATFS/src/ff.c **** 				} else {
 1197              		.loc 1 1201 0
 1198 021a 019B     		ldr	r3, [sp, #4]
 1199 021c 43F00203 		orr	r3, r3, #2
 1200 0220 0193     		str	r3, [sp, #4]
 1201              	.LVL162:
 1202 0222 A2E7     		b	.L110
 1203              	.L111:
1203:FATFS/src/ff.c **** 						b |= 1; w -= 0x20;
 1204              		.loc 1 1203 0
 1205 0224 A7F16103 		sub	r3, r7, #97
 1206 0228 9BB2     		uxth	r3, r3
 1207 022a 192B     		cmp	r3, #25
 1208 022c 9DD8     		bhi	.L110
1204:FATFS/src/ff.c **** 					}
 1209              		.loc 1 1204 0
 1210 022e 019B     		ldr	r3, [sp, #4]
 1211 0230 43F00103 		orr	r3, r3, #1
 1212 0234 0193     		str	r3, [sp, #4]
 1213              	.LVL163:
 1214 0236 203F     		subs	r7, r7, #32
 1215              	.LVL164:
 1216 0238 BFB2     		uxth	r7, r7
 1217              	.LVL165:
 1218 023a 96E7     		b	.L110
 1219              	.L133:
1212:FATFS/src/ff.c **** 
 1220              		.loc 1 1212 0 discriminator 1
 1221 023c 0522     		movs	r2, #5
 1222 023e 1A70     		strb	r2, [r3]
 1223 0240 A7E7     		b	.L112
 1224              	.L134:
1214:FATFS/src/ff.c **** 	if ((b & 0x0C) == 0x0C || (b & 0x03) == 0x03)	/* Create LFN entry when there are composite capital
 1225              		.loc 1 1214 0 discriminator 1
 1226 0242 019B     		ldr	r3, [sp, #4]
 1227 0244 9B00     		lsls	r3, r3, #2
 1228 0246 DBB2     		uxtb	r3, r3
 1229 0248 0193     		str	r3, [sp, #4]
 1230              	.LVL166:
 1231 024a A5E7     		b	.L113
 1232              	.L135:
1218:FATFS/src/ff.c **** 		if ((b & 0x0C) == 0x04) cf |= NS_BODY;	/* NT flag (Filename has only small capital) */
 1233              		.loc 1 1218 0 discriminator 1
 1234 024c 48F01008 		orr	r8, r8, #16
 1235              	.LVL167:
 1236 0250 B5E7     		b	.L117
 1237              	.L136:
1219:FATFS/src/ff.c **** 	}
 1238              		.loc 1 1219 0 discriminator 1
ARM GAS  /tmp/ccnWcupz.s 			page 53


 1239 0252 48F00808 		orr	r8, r8, #8
 1240              	.LVL168:
 1241 0256 B4E7     		b	.L116
 1242              	.LVL169:
 1243              	.L118:
1120:FATFS/src/ff.c **** #if !_LFN_UNICODE
 1244              		.loc 1 1120 0
 1245 0258 0620     		movs	r0, #6
 1246              	.LVL170:
 1247 025a B6E7     		b	.L77
 1248              	.LVL171:
 1249              	.L119:
1130:FATFS/src/ff.c **** #endif
 1250              		.loc 1 1130 0
 1251 025c 0620     		movs	r0, #6
 1252              	.LVL172:
 1253 025e B4E7     		b	.L77
 1254              	.LVL173:
 1255              	.L123:
1153:FATFS/src/ff.c **** 
 1256              		.loc 1 1153 0
 1257 0260 0620     		movs	r0, #6
 1258 0262 B2E7     		b	.L77
 1259              	.L138:
 1260              		.align	2
 1261              	.L137:
 1262 0264 00000000 		.word	.LC0
 1263 0268 00000000 		.word	.LANCHOR1
 1264 026c 0C000000 		.word	.LC1
 1265              		.cfi_endproc
 1266              	.LFE51:
 1268              		.section	.text.get_fileinfo,"ax",%progbits
 1269              		.align	1
 1270              		.syntax unified
 1271              		.thumb
 1272              		.thumb_func
 1273              		.fpu softvfp
 1275              	get_fileinfo:
 1276              	.LFB52:
1315:FATFS/src/ff.c **** 	int i;
 1277              		.loc 1 1315 0
 1278              		.cfi_startproc
 1279              		@ args = 0, pretend = 0, frame = 0
 1280              		@ frame_needed = 0, uses_anonymous_args = 0
 1281              	.LVL174:
 1282 0000 F8B5     		push	{r3, r4, r5, r6, r7, lr}
 1283              	.LCFI16:
 1284              		.cfi_def_cfa_offset 24
 1285              		.cfi_offset 3, -24
 1286              		.cfi_offset 4, -20
 1287              		.cfi_offset 5, -16
 1288              		.cfi_offset 6, -12
 1289              		.cfi_offset 7, -8
 1290              		.cfi_offset 14, -4
1321:FATFS/src/ff.c **** 	if (dj->sect) {
 1291              		.loc 1 1321 0
 1292 0002 01F10902 		add	r2, r1, #9
ARM GAS  /tmp/ccnWcupz.s 			page 54


 1293              	.LVL175:
1322:FATFS/src/ff.c **** 		dir = dj->dir;
 1294              		.loc 1 1322 0
 1295 0006 0369     		ldr	r3, [r0, #16]
 1296 0008 002B     		cmp	r3, #0
 1297 000a 4CD0     		beq	.L140
1323:FATFS/src/ff.c **** 		nt = dir[DIR_NTres];		/* NT flag */
 1298              		.loc 1 1323 0
 1299 000c 4569     		ldr	r5, [r0, #20]
 1300              	.LVL176:
1324:FATFS/src/ff.c **** 		for (i = 0; i < 8; i++) {	/* Copy name body */
 1301              		.loc 1 1324 0
 1302 000e 2F7B     		ldrb	r7, [r5, #12]	@ zero_extendqisi2
 1303              	.LVL177:
1325:FATFS/src/ff.c **** 			c = dir[i];
 1304              		.loc 1 1325 0
 1305 0010 0024     		movs	r4, #0
 1306 0012 04E0     		b	.L141
 1307              	.LVL178:
 1308              	.L160:
1328:FATFS/src/ff.c **** 			if (_USE_LFN && (nt & NS_BODY) && IsUpper(c)) c += 0x20;
 1309              		.loc 1 1328 0
 1310 0014 E523     		movs	r3, #229
 1311              	.LVL179:
 1312 0016 09E0     		b	.L143
 1313              	.LVL180:
 1314              	.L144:
1330:FATFS/src/ff.c **** 		}
 1315              		.loc 1 1330 0 discriminator 2
 1316 0018 1370     		strb	r3, [r2]
1325:FATFS/src/ff.c **** 			c = dir[i];
 1317              		.loc 1 1325 0 discriminator 2
 1318 001a 0134     		adds	r4, r4, #1
 1319              	.LVL181:
1330:FATFS/src/ff.c **** 		}
 1320              		.loc 1 1330 0 discriminator 2
 1321 001c 0132     		adds	r2, r2, #1
 1322              	.LVL182:
 1323              	.L141:
1325:FATFS/src/ff.c **** 			c = dir[i];
 1324              		.loc 1 1325 0 discriminator 1
 1325 001e 072C     		cmp	r4, #7
 1326 0020 0FDC     		bgt	.L142
1326:FATFS/src/ff.c **** 			if (c == ' ') break;
 1327              		.loc 1 1326 0
 1328 0022 2B5D     		ldrb	r3, [r5, r4]	@ zero_extendqisi2
 1329              	.LVL183:
1327:FATFS/src/ff.c **** 			if (c == 0x05) c = 0xE5;
 1330              		.loc 1 1327 0
 1331 0024 202B     		cmp	r3, #32
 1332 0026 0CD0     		beq	.L142
1328:FATFS/src/ff.c **** 			if (_USE_LFN && (nt & NS_BODY) && IsUpper(c)) c += 0x20;
 1333              		.loc 1 1328 0
 1334 0028 052B     		cmp	r3, #5
 1335 002a F3D0     		beq	.L160
 1336              	.LVL184:
 1337              	.L143:
ARM GAS  /tmp/ccnWcupz.s 			page 55


1329:FATFS/src/ff.c **** 			*p++ = c;
 1338              		.loc 1 1329 0
 1339 002c 17F0080F 		tst	r7, #8
 1340 0030 F2D0     		beq	.L144
1329:FATFS/src/ff.c **** 			*p++ = c;
 1341              		.loc 1 1329 0 is_stmt 0 discriminator 1
 1342 0032 A3F14106 		sub	r6, r3, #65
 1343 0036 F6B2     		uxtb	r6, r6
 1344 0038 192E     		cmp	r6, #25
 1345 003a EDD8     		bhi	.L144
1329:FATFS/src/ff.c **** 			*p++ = c;
 1346              		.loc 1 1329 0 discriminator 2
 1347 003c 2033     		adds	r3, r3, #32
 1348              	.LVL185:
 1349 003e DBB2     		uxtb	r3, r3
 1350              	.LVL186:
 1351 0040 EAE7     		b	.L144
 1352              	.LVL187:
 1353              	.L142:
1332:FATFS/src/ff.c **** 			*p++ = '.';
 1354              		.loc 1 1332 0 is_stmt 1
 1355 0042 2B7A     		ldrb	r3, [r5, #8]	@ zero_extendqisi2
 1356 0044 202B     		cmp	r3, #32
 1357 0046 17D0     		beq	.L146
 1358              	.LVL188:
1333:FATFS/src/ff.c **** 			for (i = 8; i < 11; i++) {
 1359              		.loc 1 1333 0
 1360 0048 2E23     		movs	r3, #46
 1361 004a 1370     		strb	r3, [r2]
 1362              	.LVL189:
 1363 004c 0132     		adds	r2, r2, #1
 1364              	.LVL190:
1334:FATFS/src/ff.c **** 				c = dir[i];
 1365              		.loc 1 1334 0
 1366 004e 0823     		movs	r3, #8
 1367 0050 02E0     		b	.L147
 1368              	.LVL191:
 1369              	.L148:
1338:FATFS/src/ff.c **** 			}
 1370              		.loc 1 1338 0 discriminator 2
 1371 0052 1470     		strb	r4, [r2]
1334:FATFS/src/ff.c **** 				c = dir[i];
 1372              		.loc 1 1334 0 discriminator 2
 1373 0054 0133     		adds	r3, r3, #1
 1374              	.LVL192:
1338:FATFS/src/ff.c **** 			}
 1375              		.loc 1 1338 0 discriminator 2
 1376 0056 0132     		adds	r2, r2, #1
 1377              	.LVL193:
 1378              	.L147:
1334:FATFS/src/ff.c **** 				c = dir[i];
 1379              		.loc 1 1334 0 discriminator 1
 1380 0058 0A2B     		cmp	r3, #10
 1381 005a 0DDC     		bgt	.L146
1335:FATFS/src/ff.c **** 				if (c == ' ') break;
 1382              		.loc 1 1335 0
 1383 005c EC5C     		ldrb	r4, [r5, r3]	@ zero_extendqisi2
ARM GAS  /tmp/ccnWcupz.s 			page 56


 1384              	.LVL194:
1336:FATFS/src/ff.c **** 				if (_USE_LFN && (nt & NS_EXT) && IsUpper(c)) c += 0x20;
 1385              		.loc 1 1336 0
 1386 005e 202C     		cmp	r4, #32
 1387 0060 0AD0     		beq	.L146
1337:FATFS/src/ff.c **** 				*p++ = c;
 1388              		.loc 1 1337 0
 1389 0062 17F0100F 		tst	r7, #16
 1390 0066 F4D0     		beq	.L148
1337:FATFS/src/ff.c **** 				*p++ = c;
 1391              		.loc 1 1337 0 is_stmt 0 discriminator 1
 1392 0068 A4F14106 		sub	r6, r4, #65
 1393 006c F6B2     		uxtb	r6, r6
 1394 006e 192E     		cmp	r6, #25
 1395 0070 EFD8     		bhi	.L148
1337:FATFS/src/ff.c **** 				*p++ = c;
 1396              		.loc 1 1337 0 discriminator 2
 1397 0072 2034     		adds	r4, r4, #32
 1398              	.LVL195:
 1399 0074 E4B2     		uxtb	r4, r4
 1400              	.LVL196:
 1401 0076 ECE7     		b	.L148
 1402              	.LVL197:
 1403              	.L146:
1341:FATFS/src/ff.c **** 		fno->fsize = LD_DWORD(dir+DIR_FileSize);	/* Size */
 1404              		.loc 1 1341 0 is_stmt 1
 1405 0078 EB7A     		ldrb	r3, [r5, #11]	@ zero_extendqisi2
 1406 007a 0B72     		strb	r3, [r1, #8]
1342:FATFS/src/ff.c **** 		fno->fdate = LD_WORD(dir+DIR_WrtDate);		/* Date */
 1407              		.loc 1 1342 0
 1408 007c EC7F     		ldrb	r4, [r5, #31]	@ zero_extendqisi2
 1409 007e AB7F     		ldrb	r3, [r5, #30]	@ zero_extendqisi2
 1410 0080 1B04     		lsls	r3, r3, #16
 1411 0082 43EA0463 		orr	r3, r3, r4, lsl #24
 1412 0086 6C7F     		ldrb	r4, [r5, #29]	@ zero_extendqisi2
 1413 0088 43EA0423 		orr	r3, r3, r4, lsl #8
 1414 008c 2C7F     		ldrb	r4, [r5, #28]	@ zero_extendqisi2
 1415 008e 2343     		orrs	r3, r3, r4
 1416 0090 0B60     		str	r3, [r1]
1343:FATFS/src/ff.c **** 		fno->ftime = LD_WORD(dir+DIR_WrtTime);		/* Time */
 1417              		.loc 1 1343 0
 1418 0092 6C7E     		ldrb	r4, [r5, #25]	@ zero_extendqisi2
 1419 0094 2B7E     		ldrb	r3, [r5, #24]	@ zero_extendqisi2
 1420 0096 43EA0423 		orr	r3, r3, r4, lsl #8
 1421 009a 8B80     		strh	r3, [r1, #4]	@ movhi
1344:FATFS/src/ff.c **** 	}
 1422              		.loc 1 1344 0
 1423 009c EC7D     		ldrb	r4, [r5, #23]	@ zero_extendqisi2
 1424 009e AB7D     		ldrb	r3, [r5, #22]	@ zero_extendqisi2
 1425 00a0 43EA0423 		orr	r3, r3, r4, lsl #8
 1426 00a4 CB80     		strh	r3, [r1, #6]	@ movhi
 1427              	.LVL198:
 1428              	.L140:
1346:FATFS/src/ff.c **** 
 1429              		.loc 1 1346 0
 1430 00a6 0023     		movs	r3, #0
 1431 00a8 1370     		strb	r3, [r2]
ARM GAS  /tmp/ccnWcupz.s 			page 57


1349:FATFS/src/ff.c **** 		XCHAR *tp = fno->lfname;
 1432              		.loc 1 1349 0
 1433 00aa 8D69     		ldr	r5, [r1, #24]
 1434 00ac DDB1     		cbz	r5, .L139
 1435              	.LVL199:
 1436              	.LBB3:
1354:FATFS/src/ff.c **** 			lfn = dj->lfn;
 1437              		.loc 1 1354 0
 1438 00ae 0369     		ldr	r3, [r0, #16]
 1439 00b0 B3B1     		cbz	r3, .L155
1354:FATFS/src/ff.c **** 			lfn = dj->lfn;
 1440              		.loc 1 1354 0 is_stmt 0 discriminator 1
 1441 00b2 028C     		ldrh	r2, [r0, #32]
 1442              	.LVL200:
 1443 00b4 4FF6FF73 		movw	r3, #65535
 1444 00b8 9A42     		cmp	r2, r3
 1445 00ba 15D0     		beq	.L156
 1446 00bc 0E46     		mov	r6, r1
1355:FATFS/src/ff.c **** 			while ((w = *lfn++) != 0) {			/* Get an LFN char */
 1447              		.loc 1 1355 0 is_stmt 1
 1448 00be C369     		ldr	r3, [r0, #28]
 1449              	.LVL201:
1353:FATFS/src/ff.c **** 		if (dj->sect && dj->lfn_idx != 0xFFFF) {/* Get LFN if available */
 1450              		.loc 1 1353 0
 1451 00c0 0024     		movs	r4, #0
 1452              	.LVL202:
 1453              	.L152:
1356:FATFS/src/ff.c **** #if !_LFN_UNICODE
 1454              		.loc 1 1356 0
 1455 00c2 9F1C     		adds	r7, r3, #2
 1456              	.LVL203:
 1457 00c4 1888     		ldrh	r0, [r3]
 1458              	.LVL204:
 1459 00c6 60B1     		cbz	r0, .L151
1358:FATFS/src/ff.c **** 				if (!w) { i = 0; break; }		/* Could not convert, no LFN */
 1460              		.loc 1 1358 0
 1461 00c8 0021     		movs	r1, #0
 1462 00ca FFF7FEFF 		bl	ff_convert
 1463              	.LVL205:
1359:FATFS/src/ff.c **** 				if (_DF1S && w >= 0x100)		/* Put 1st byte if it is a DBC */
 1464              		.loc 1 1359 0
 1465 00ce 68B1     		cbz	r0, .L157
1363:FATFS/src/ff.c **** 				tp[i++] = (XCHAR)w;
 1466              		.loc 1 1363 0
 1467 00d0 F369     		ldr	r3, [r6, #28]
 1468 00d2 013B     		subs	r3, r3, #1
 1469 00d4 9C42     		cmp	r4, r3
 1470 00d6 0BDA     		bge	.L158
 1471              	.LVL206:
1364:FATFS/src/ff.c **** 			}
 1472              		.loc 1 1364 0
 1473 00d8 2855     		strb	r0, [r5, r4]
1356:FATFS/src/ff.c **** #if !_LFN_UNICODE
 1474              		.loc 1 1356 0
 1475 00da 3B46     		mov	r3, r7
1364:FATFS/src/ff.c **** 			}
 1476              		.loc 1 1364 0
ARM GAS  /tmp/ccnWcupz.s 			page 58


 1477 00dc 0134     		adds	r4, r4, #1
 1478              	.LVL207:
 1479 00de F0E7     		b	.L152
 1480              	.LVL208:
 1481              	.L155:
1353:FATFS/src/ff.c **** 		if (dj->sect && dj->lfn_idx != 0xFFFF) {/* Get LFN if available */
 1482              		.loc 1 1353 0
 1483 00e0 0024     		movs	r4, #0
 1484              	.LVL209:
 1485              	.L151:
1367:FATFS/src/ff.c **** 	}
 1486              		.loc 1 1367 0
 1487 00e2 0023     		movs	r3, #0
 1488 00e4 2B55     		strb	r3, [r5, r4]
 1489              	.LVL210:
 1490              	.L139:
 1491              	.LBE3:
1370:FATFS/src/ff.c **** #endif /* _FS_MINIMIZE <= 1 */
 1492              		.loc 1 1370 0
 1493 00e6 F8BD     		pop	{r3, r4, r5, r6, r7, pc}
 1494              	.LVL211:
 1495              	.L156:
 1496              	.LBB4:
1353:FATFS/src/ff.c **** 		if (dj->sect && dj->lfn_idx != 0xFFFF) {/* Get LFN if available */
 1497              		.loc 1 1353 0
 1498 00e8 0024     		movs	r4, #0
 1499 00ea FAE7     		b	.L151
 1500              	.LVL212:
 1501              	.L157:
1359:FATFS/src/ff.c **** 				if (_DF1S && w >= 0x100)		/* Put 1st byte if it is a DBC */
 1502              		.loc 1 1359 0
 1503 00ec 0024     		movs	r4, #0
 1504              	.LVL213:
 1505 00ee F8E7     		b	.L151
 1506              	.LVL214:
 1507              	.L158:
1363:FATFS/src/ff.c **** 				tp[i++] = (XCHAR)w;
 1508              		.loc 1 1363 0
 1509 00f0 0024     		movs	r4, #0
 1510              	.LVL215:
 1511 00f2 F6E7     		b	.L151
 1512              	.LBE4:
 1513              		.cfi_endproc
 1514              	.LFE52:
 1516              		.section	.text.cmp_lfn,"ax",%progbits
 1517              		.align	1
 1518              		.syntax unified
 1519              		.thumb
 1520              		.thumb_func
 1521              		.fpu softvfp
 1523              	cmp_lfn:
 1524              	.LFB42:
 668:FATFS/src/ff.c **** 	int i, s;
 1525              		.loc 1 668 0
 1526              		.cfi_startproc
 1527              		@ args = 0, pretend = 0, frame = 0
 1528              		@ frame_needed = 0, uses_anonymous_args = 0
ARM GAS  /tmp/ccnWcupz.s 			page 59


 1529              	.LVL216:
 1530 0000 2DE9F843 		push	{r3, r4, r5, r6, r7, r8, r9, lr}
 1531              	.LCFI17:
 1532              		.cfi_def_cfa_offset 32
 1533              		.cfi_offset 3, -32
 1534              		.cfi_offset 4, -28
 1535              		.cfi_offset 5, -24
 1536              		.cfi_offset 6, -20
 1537              		.cfi_offset 7, -16
 1538              		.cfi_offset 8, -12
 1539              		.cfi_offset 9, -8
 1540              		.cfi_offset 14, -4
 1541 0004 8046     		mov	r8, r0
 1542 0006 0E46     		mov	r6, r1
 673:FATFS/src/ff.c **** 	s = 0; wc = 1;
 1543              		.loc 1 673 0
 1544 0008 0D78     		ldrb	r5, [r1]	@ zero_extendqisi2
 1545 000a 05F0BF05 		and	r5, r5, #191
 1546 000e 013D     		subs	r5, r5, #1
 1547 0010 05EB4503 		add	r3, r5, r5, lsl #1
 1548 0014 05EB8305 		add	r5, r5, r3, lsl #2
 1549              	.LVL217:
 674:FATFS/src/ff.c **** 	do {
 1550              		.loc 1 674 0
 1551 0018 0127     		movs	r7, #1
 1552 001a 0024     		movs	r4, #0
 1553 001c 10E0     		b	.L165
 1554              	.LVL218:
 1555              	.L174:
 678:FATFS/src/ff.c **** 			if (i >= _MAX_LFN || wc != ff_wtoupper(lfnbuf[i++]))	/* Compare it */
 1556              		.loc 1 678 0
 1557 001e FFF7FEFF 		bl	ff_wtoupper
 1558              	.LVL219:
 1559 0022 0746     		mov	r7, r0
 1560              	.LVL220:
 679:FATFS/src/ff.c **** 				return FALSE;			/* Not matched */
 1561              		.loc 1 679 0
 1562 0024 FE2D     		cmp	r5, #254
 1563 0026 24DC     		bgt	.L166
 679:FATFS/src/ff.c **** 				return FALSE;			/* Not matched */
 1564              		.loc 1 679 0 is_stmt 0 discriminator 1
 1565 0028 05F10109 		add	r9, r5, #1
 1566              	.LVL221:
 1567 002c 38F81500 		ldrh	r0, [r8, r5, lsl #1]
 1568 0030 FFF7FEFF 		bl	ff_wtoupper
 1569              	.LVL222:
 1570 0034 B842     		cmp	r0, r7
 1571 0036 1ED1     		bne	.L167
 679:FATFS/src/ff.c **** 				return FALSE;			/* Not matched */
 1572              		.loc 1 679 0
 1573 0038 4D46     		mov	r5, r9
 1574              	.LVL223:
 1575              	.L164:
 684:FATFS/src/ff.c **** 
 1576              		.loc 1 684 0 is_stmt 1
 1577 003a 0134     		adds	r4, r4, #1
 1578              	.LVL224:
ARM GAS  /tmp/ccnWcupz.s 			page 60


 1579 003c 0C2C     		cmp	r4, #12
 1580 003e 0EDC     		bgt	.L173
 1581              	.LVL225:
 1582              	.L165:
 676:FATFS/src/ff.c **** 		if (wc) {	/* Last char has not been processed */
 1583              		.loc 1 676 0
 1584 0040 114B     		ldr	r3, .L175
 1585 0042 1B5D     		ldrb	r3, [r3, r4]	@ zero_extendqisi2
 1586 0044 5A1C     		adds	r2, r3, #1
 1587 0046 B25C     		ldrb	r2, [r6, r2]	@ zero_extendqisi2
 1588 0048 F05C     		ldrb	r0, [r6, r3]	@ zero_extendqisi2
 1589 004a 40EA0220 		orr	r0, r0, r2, lsl #8
 1590              	.LVL226:
 677:FATFS/src/ff.c **** 			wc = ff_wtoupper(uc);		/* Convert it to upper case */
 1591              		.loc 1 677 0
 1592 004e 002F     		cmp	r7, #0
 1593 0050 E5D1     		bne	.L174
 682:FATFS/src/ff.c **** 		}
 1594              		.loc 1 682 0
 1595 0052 4FF6FF73 		movw	r3, #65535
 1596 0056 9842     		cmp	r0, r3
 1597 0058 EFD0     		beq	.L164
 1598 005a 0020     		movs	r0, #0
 1599              	.LVL227:
 1600 005c 0EE0     		b	.L163
 1601              	.LVL228:
 1602              	.L173:
 686:FATFS/src/ff.c **** 		return FALSE;
 1603              		.loc 1 686 0
 1604 005e 3378     		ldrb	r3, [r6]	@ zero_extendqisi2
 1605 0060 13F0400F 		tst	r3, #64
 1606 0064 09D0     		beq	.L169
 686:FATFS/src/ff.c **** 		return FALSE;
 1607              		.loc 1 686 0 is_stmt 0 discriminator 1
 1608 0066 5FB1     		cbz	r7, .L170
 686:FATFS/src/ff.c **** 		return FALSE;
 1609              		.loc 1 686 0 discriminator 2
 1610 0068 38F81530 		ldrh	r3, [r8, r5, lsl #1]
 1611 006c 53B9     		cbnz	r3, .L171
 689:FATFS/src/ff.c **** }
 1612              		.loc 1 689 0 is_stmt 1
 1613 006e 0120     		movs	r0, #1
 1614 0070 04E0     		b	.L163
 1615              	.L166:
 680:FATFS/src/ff.c **** 		} else {
 1616              		.loc 1 680 0
 1617 0072 0020     		movs	r0, #0
 1618 0074 02E0     		b	.L163
 1619              	.LVL229:
 1620              	.L167:
 1621 0076 0020     		movs	r0, #0
 1622 0078 00E0     		b	.L163
 1623              	.LVL230:
 1624              	.L169:
 689:FATFS/src/ff.c **** }
 1625              		.loc 1 689 0
 1626 007a 0120     		movs	r0, #1
ARM GAS  /tmp/ccnWcupz.s 			page 61


 1627              	.LVL231:
 1628              	.L163:
 690:FATFS/src/ff.c **** 
 1629              		.loc 1 690 0
 1630 007c BDE8F883 		pop	{r3, r4, r5, r6, r7, r8, r9, pc}
 1631              	.LVL232:
 1632              	.L170:
 689:FATFS/src/ff.c **** }
 1633              		.loc 1 689 0
 1634 0080 0120     		movs	r0, #1
 1635 0082 FBE7     		b	.L163
 1636              	.L171:
 687:FATFS/src/ff.c **** 
 1637              		.loc 1 687 0
 1638 0084 0020     		movs	r0, #0
 1639 0086 F9E7     		b	.L163
 1640              	.L176:
 1641              		.align	2
 1642              	.L175:
 1643 0088 00000000 		.word	.LANCHOR0
 1644              		.cfi_endproc
 1645              	.LFE42:
 1647              		.section	.text.sync,"ax",%progbits
 1648              		.align	1
 1649              		.syntax unified
 1650              		.thumb
 1651              		.thumb_func
 1652              		.fpu softvfp
 1654              	sync:
 1655              	.LFB34:
 288:FATFS/src/ff.c **** 	FRESULT res;
 1656              		.loc 1 288 0
 1657              		.cfi_startproc
 1658              		@ args = 0, pretend = 0, frame = 0
 1659              		@ frame_needed = 0, uses_anonymous_args = 0
 1660              	.LVL233:
 1661 0000 F8B5     		push	{r3, r4, r5, r6, r7, lr}
 1662              	.LCFI18:
 1663              		.cfi_def_cfa_offset 24
 1664              		.cfi_offset 3, -24
 1665              		.cfi_offset 4, -20
 1666              		.cfi_offset 5, -16
 1667              		.cfi_offset 6, -12
 1668              		.cfi_offset 7, -8
 1669              		.cfi_offset 14, -4
 1670 0002 0446     		mov	r4, r0
 292:FATFS/src/ff.c **** 	if (res == FR_OK) {
 1671              		.loc 1 292 0
 1672 0004 0021     		movs	r1, #0
 1673 0006 FFF7FEFF 		bl	move_window
 1674              	.LVL234:
 293:FATFS/src/ff.c **** 		/* Update FSInfo sector if needed */
 1675              		.loc 1 293 0
 1676 000a 0546     		mov	r5, r0
 1677 000c 48B9     		cbnz	r0, .L178
 295:FATFS/src/ff.c **** 			fs->winsect = 0;
 1678              		.loc 1 295 0
ARM GAS  /tmp/ccnWcupz.s 			page 62


 1679 000e 2378     		ldrb	r3, [r4]	@ zero_extendqisi2
 1680 0010 032B     		cmp	r3, #3
 1681 0012 08D0     		beq	.L182
 1682              	.LVL235:
 1683              	.L179:
 307:FATFS/src/ff.c **** 			res = FR_DISK_ERR;
 1684              		.loc 1 307 0
 1685 0014 0022     		movs	r2, #0
 1686 0016 1146     		mov	r1, r2
 1687 0018 6078     		ldrb	r0, [r4, #1]	@ zero_extendqisi2
 1688 001a FFF7FEFF 		bl	disk_ioctl
 1689              	.LVL236:
 1690 001e 00B1     		cbz	r0, .L178
 308:FATFS/src/ff.c **** 	}
 1691              		.loc 1 308 0
 1692 0020 0125     		movs	r5, #1
 1693              	.L178:
 1694              	.LVL237:
 312:FATFS/src/ff.c **** #endif
 1695              		.loc 1 312 0
 1696 0022 2846     		mov	r0, r5
 1697 0024 F8BD     		pop	{r3, r4, r5, r6, r7, pc}
 1698              	.LVL238:
 1699              	.L182:
 295:FATFS/src/ff.c **** 			fs->winsect = 0;
 1700              		.loc 1 295 0 discriminator 1
 1701 0026 6379     		ldrb	r3, [r4, #5]	@ zero_extendqisi2
 1702 0028 002B     		cmp	r3, #0
 1703 002a F3D0     		beq	.L179
 296:FATFS/src/ff.c **** 			mem_set(fs->win, 0, 512);
 1704              		.loc 1 296 0
 1705 002c 0027     		movs	r7, #0
 1706 002e 2763     		str	r7, [r4, #48]
 297:FATFS/src/ff.c **** 			ST_WORD(fs->win+BS_55AA, 0xAA55);
 1707              		.loc 1 297 0
 1708 0030 04F13406 		add	r6, r4, #52
 1709 0034 4FF40072 		mov	r2, #512
 1710 0038 3946     		mov	r1, r7
 1711 003a 3046     		mov	r0, r6
 1712              	.LVL239:
 1713 003c FFF7FEFF 		bl	mem_set
 1714              	.LVL240:
 298:FATFS/src/ff.c **** 			ST_DWORD(fs->win+FSI_LeadSig, 0x41615252);
 1715              		.loc 1 298 0
 1716 0040 5523     		movs	r3, #85
 1717 0042 84F83232 		strb	r3, [r4, #562]
 1718 0046 AA23     		movs	r3, #170
 1719 0048 84F83332 		strb	r3, [r4, #563]
 299:FATFS/src/ff.c **** 			ST_DWORD(fs->win+FSI_StrucSig, 0x61417272);
 1720              		.loc 1 299 0
 1721 004c 5223     		movs	r3, #82
 1722 004e 84F83430 		strb	r3, [r4, #52]
 1723 0052 84F83530 		strb	r3, [r4, #53]
 1724 0056 6123     		movs	r3, #97
 1725 0058 84F83630 		strb	r3, [r4, #54]
 1726 005c 4122     		movs	r2, #65
 1727 005e 84F83720 		strb	r2, [r4, #55]
ARM GAS  /tmp/ccnWcupz.s 			page 63


 300:FATFS/src/ff.c **** 			ST_DWORD(fs->win+FSI_Free_Count, fs->free_clust);
 1728              		.loc 1 300 0
 1729 0062 7221     		movs	r1, #114
 1730 0064 84F81812 		strb	r1, [r4, #536]
 1731 0068 84F81912 		strb	r1, [r4, #537]
 1732 006c 84F81A22 		strb	r2, [r4, #538]
 1733 0070 84F81B32 		strb	r3, [r4, #539]
 301:FATFS/src/ff.c **** 			ST_DWORD(fs->win+FSI_Nxt_Free, fs->last_clust);
 1734              		.loc 1 301 0
 1735 0074 2369     		ldr	r3, [r4, #16]
 1736 0076 84F81C32 		strb	r3, [r4, #540]
 1737 007a C3F30722 		ubfx	r2, r3, #8, #8
 1738 007e 84F81D22 		strb	r2, [r4, #541]
 1739 0082 C3F30742 		ubfx	r2, r3, #16, #8
 1740 0086 84F81E22 		strb	r2, [r4, #542]
 1741 008a 1B0E     		lsrs	r3, r3, #24
 1742 008c 84F81F32 		strb	r3, [r4, #543]
 302:FATFS/src/ff.c **** 			disk_write(fs->drive, fs->win, fs->fsi_sector, 1);
 1743              		.loc 1 302 0
 1744 0090 E368     		ldr	r3, [r4, #12]
 1745 0092 84F82032 		strb	r3, [r4, #544]
 1746 0096 C3F30722 		ubfx	r2, r3, #8, #8
 1747 009a 84F82122 		strb	r2, [r4, #545]
 1748 009e C3F30742 		ubfx	r2, r3, #16, #8
 1749 00a2 84F82222 		strb	r2, [r4, #546]
 1750 00a6 1B0E     		lsrs	r3, r3, #24
 1751 00a8 84F82332 		strb	r3, [r4, #547]
 303:FATFS/src/ff.c **** 			fs->fsi_flag = 0;
 1752              		.loc 1 303 0
 1753 00ac 0123     		movs	r3, #1
 1754 00ae 6269     		ldr	r2, [r4, #20]
 1755 00b0 3146     		mov	r1, r6
 1756 00b2 6078     		ldrb	r0, [r4, #1]	@ zero_extendqisi2
 1757 00b4 FFF7FEFF 		bl	disk_write
 1758              	.LVL241:
 304:FATFS/src/ff.c **** 		}
 1759              		.loc 1 304 0
 1760 00b8 6771     		strb	r7, [r4, #5]
 1761 00ba ABE7     		b	.L179
 1762              		.cfi_endproc
 1763              	.LFE34:
 1765              		.section	.text.get_fat,"ax",%progbits
 1766              		.align	1
 1767              		.global	get_fat
 1768              		.syntax unified
 1769              		.thumb
 1770              		.thumb_func
 1771              		.fpu softvfp
 1773              	get_fat:
 1774              	.LFB35:
 327:FATFS/src/ff.c **** 	UINT wc, bc;
 1775              		.loc 1 327 0
 1776              		.cfi_startproc
 1777              		@ args = 0, pretend = 0, frame = 0
 1778              		@ frame_needed = 0, uses_anonymous_args = 0
 1779              	.LVL242:
 332:FATFS/src/ff.c **** 		return 1;
ARM GAS  /tmp/ccnWcupz.s 			page 64


 1780              		.loc 1 332 0
 1781 0000 0129     		cmp	r1, #1
 1782 0002 67D9     		bls	.L189
 332:FATFS/src/ff.c **** 		return 1;
 1783              		.loc 1 332 0 is_stmt 0 discriminator 1
 1784 0004 036A     		ldr	r3, [r0, #32]
 1785 0006 8B42     		cmp	r3, r1
 1786 0008 66D9     		bls	.L190
 327:FATFS/src/ff.c **** 	UINT wc, bc;
 1787              		.loc 1 327 0 is_stmt 1
 1788 000a 2DE9F041 		push	{r4, r5, r6, r7, r8, lr}
 1789              	.LCFI19:
 1790              		.cfi_def_cfa_offset 24
 1791              		.cfi_offset 4, -24
 1792              		.cfi_offset 5, -20
 1793              		.cfi_offset 6, -16
 1794              		.cfi_offset 7, -12
 1795              		.cfi_offset 8, -8
 1796              		.cfi_offset 14, -4
 1797 000e 0C46     		mov	r4, r1
 1798 0010 0646     		mov	r6, r0
 335:FATFS/src/ff.c **** 	switch (fs->fs_type) {
 1799              		.loc 1 335 0
 1800 0012 476A     		ldr	r7, [r0, #36]
 1801              	.LVL243:
 336:FATFS/src/ff.c **** 	case FS_FAT12 :
 1802              		.loc 1 336 0
 1803 0014 0378     		ldrb	r3, [r0]	@ zero_extendqisi2
 1804 0016 022B     		cmp	r3, #2
 1805 0018 2DD0     		beq	.L185
 1806 001a 032B     		cmp	r3, #3
 1807 001c 3ED0     		beq	.L186
 1808 001e 012B     		cmp	r3, #1
 1809 0020 03D0     		beq	.L201
 354:FATFS/src/ff.c **** }
 1810              		.loc 1 354 0
 1811 0022 4FF0FF30 		mov	r0, #-1
 1812              	.LVL244:
 1813              	.L183:
 355:FATFS/src/ff.c **** 
 1814              		.loc 1 355 0
 1815 0026 BDE8F081 		pop	{r4, r5, r6, r7, r8, pc}
 1816              	.LVL245:
 1817              	.L201:
 338:FATFS/src/ff.c **** 		if (move_window(fs, fsect + (bc / SS(fs)))) break;
 1818              		.loc 1 338 0
 1819 002a 01EB5108 		add	r8, r1, r1, lsr #1
 1820              	.LVL246:
 339:FATFS/src/ff.c **** 		wc = fs->win[bc & (SS(fs) - 1)]; bc++;
 1821              		.loc 1 339 0
 1822 002e 07EB5821 		add	r1, r7, r8, lsr #9
 1823              	.LVL247:
 1824 0032 FFF7FEFF 		bl	move_window
 1825              	.LVL248:
 1826 0036 0028     		cmp	r0, #0
 1827 0038 50D1     		bne	.L192
 340:FATFS/src/ff.c **** 		if (move_window(fs, fsect + (bc / SS(fs)))) break;
ARM GAS  /tmp/ccnWcupz.s 			page 65


 1828              		.loc 1 340 0
 1829 003a C8F30803 		ubfx	r3, r8, #0, #9
 1830 003e 3344     		add	r3, r3, r6
 1831 0040 93F83450 		ldrb	r5, [r3, #52]	@ zero_extendqisi2
 1832              	.LVL249:
 1833 0044 08F10108 		add	r8, r8, #1
 1834              	.LVL250:
 341:FATFS/src/ff.c **** 		wc |= (WORD)fs->win[bc & (SS(fs) - 1)] << 8;
 1835              		.loc 1 341 0
 1836 0048 07EB5821 		add	r1, r7, r8, lsr #9
 1837 004c 3046     		mov	r0, r6
 1838 004e FFF7FEFF 		bl	move_window
 1839              	.LVL251:
 1840 0052 0028     		cmp	r0, #0
 1841 0054 45D1     		bne	.L193
 342:FATFS/src/ff.c **** 		return (clst & 1) ? (wc >> 4) : (wc & 0xFFF);
 1842              		.loc 1 342 0
 1843 0056 C8F30808 		ubfx	r8, r8, #0, #9
 1844              	.LVL252:
 1845 005a 06EB0800 		add	r0, r6, r8
 1846 005e 90F83400 		ldrb	r0, [r0, #52]	@ zero_extendqisi2
 1847 0062 45EA0020 		orr	r0, r5, r0, lsl #8
 1848              	.LVL253:
 343:FATFS/src/ff.c **** 
 1849              		.loc 1 343 0
 1850 0066 14F0010F 		tst	r4, #1
 1851 006a 01D0     		beq	.L188
 343:FATFS/src/ff.c **** 
 1852              		.loc 1 343 0 is_stmt 0 discriminator 1
 1853 006c 0009     		lsrs	r0, r0, #4
 1854              	.LVL254:
 1855 006e DAE7     		b	.L183
 1856              	.LVL255:
 1857              	.L188:
 343:FATFS/src/ff.c **** 
 1858              		.loc 1 343 0 discriminator 2
 1859 0070 C0F30B00 		ubfx	r0, r0, #0, #12
 1860              	.LVL256:
 1861 0074 D7E7     		b	.L183
 1862              	.LVL257:
 1863              	.L185:
 346:FATFS/src/ff.c **** 		return LD_WORD(&fs->win[((WORD)clst * 2) & (SS(fs) - 1)]);
 1864              		.loc 1 346 0 is_stmt 1
 1865 0076 07EB1121 		add	r1, r7, r1, lsr #8
 1866              	.LVL258:
 1867 007a FFF7FEFF 		bl	move_window
 1868              	.LVL259:
 1869 007e 98BB     		cbnz	r0, .L194
 347:FATFS/src/ff.c **** 
 1870              		.loc 1 347 0
 1871 0080 A3B2     		uxth	r3, r4
 1872 0082 5B00     		lsls	r3, r3, #1
 1873 0084 03F4FF73 		and	r3, r3, #510
 1874 0088 03F13002 		add	r2, r3, #48
 1875 008c 3244     		add	r2, r2, r6
 1876 008e 5279     		ldrb	r2, [r2, #5]	@ zero_extendqisi2
 1877 0090 F018     		adds	r0, r6, r3
ARM GAS  /tmp/ccnWcupz.s 			page 66


 1878 0092 90F83400 		ldrb	r0, [r0, #52]	@ zero_extendqisi2
 1879 0096 40EA0220 		orr	r0, r0, r2, lsl #8
 1880 009a C4E7     		b	.L183
 1881              	.LVL260:
 1882              	.L186:
 350:FATFS/src/ff.c **** 		return LD_DWORD(&fs->win[((WORD)clst * 4) & (SS(fs) - 1)]) & 0x0FFFFFFF;
 1883              		.loc 1 350 0
 1884 009c 07EBD111 		add	r1, r7, r1, lsr #7
 1885              	.LVL261:
 1886 00a0 FFF7FEFF 		bl	move_window
 1887              	.LVL262:
 1888 00a4 18BB     		cbnz	r0, .L195
 351:FATFS/src/ff.c **** 	}
 1889              		.loc 1 351 0
 1890 00a6 A0B2     		uxth	r0, r4
 1891 00a8 8000     		lsls	r0, r0, #2
 1892 00aa 00F4FE70 		and	r0, r0, #508
 1893 00ae 00F13002 		add	r2, r0, #48
 1894 00b2 3244     		add	r2, r2, r6
 1895 00b4 D179     		ldrb	r1, [r2, #7]	@ zero_extendqisi2
 1896 00b6 9379     		ldrb	r3, [r2, #6]	@ zero_extendqisi2
 1897 00b8 0432     		adds	r2, r2, #4
 1898 00ba 1B04     		lsls	r3, r3, #16
 1899 00bc 43EA0163 		orr	r3, r3, r1, lsl #24
 1900 00c0 5278     		ldrb	r2, [r2, #1]	@ zero_extendqisi2
 1901 00c2 43EA0223 		orr	r3, r3, r2, lsl #8
 1902 00c6 3044     		add	r0, r0, r6
 1903 00c8 90F83400 		ldrb	r0, [r0, #52]	@ zero_extendqisi2
 1904 00cc 1843     		orrs	r0, r0, r3
 1905 00ce 20F07040 		bic	r0, r0, #-268435456
 1906 00d2 A8E7     		b	.L183
 1907              	.LVL263:
 1908              	.L189:
 1909              	.LCFI20:
 1910              		.cfi_def_cfa_offset 0
 1911              		.cfi_restore 4
 1912              		.cfi_restore 5
 1913              		.cfi_restore 6
 1914              		.cfi_restore 7
 1915              		.cfi_restore 8
 1916              		.cfi_restore 14
 333:FATFS/src/ff.c **** 
 1917              		.loc 1 333 0
 1918 00d4 0120     		movs	r0, #1
 1919              	.LVL264:
 1920 00d6 7047     		bx	lr
 1921              	.LVL265:
 1922              	.L190:
 1923 00d8 0120     		movs	r0, #1
 1924              	.LVL266:
 355:FATFS/src/ff.c **** 
 1925              		.loc 1 355 0
 1926 00da 7047     		bx	lr
 1927              	.LVL267:
 1928              	.L192:
 1929              	.LCFI21:
 1930              		.cfi_def_cfa_offset 24
ARM GAS  /tmp/ccnWcupz.s 			page 67


 1931              		.cfi_offset 4, -24
 1932              		.cfi_offset 5, -20
 1933              		.cfi_offset 6, -16
 1934              		.cfi_offset 7, -12
 1935              		.cfi_offset 8, -8
 1936              		.cfi_offset 14, -4
 354:FATFS/src/ff.c **** }
 1937              		.loc 1 354 0
 1938 00dc 4FF0FF30 		mov	r0, #-1
 1939 00e0 A1E7     		b	.L183
 1940              	.LVL268:
 1941              	.L193:
 1942 00e2 4FF0FF30 		mov	r0, #-1
 1943 00e6 9EE7     		b	.L183
 1944              	.LVL269:
 1945              	.L194:
 1946 00e8 4FF0FF30 		mov	r0, #-1
 1947 00ec 9BE7     		b	.L183
 1948              	.L195:
 1949 00ee 4FF0FF30 		mov	r0, #-1
 1950 00f2 98E7     		b	.L183
 1951              		.cfi_endproc
 1952              	.LFE35:
 1954              		.section	.text.put_fat,"ax",%progbits
 1955              		.align	1
 1956              		.global	put_fat
 1957              		.syntax unified
 1958              		.thumb
 1959              		.thumb_func
 1960              		.fpu softvfp
 1962              	put_fat:
 1963              	.LFB36:
 370:FATFS/src/ff.c **** 	UINT bc;
 1964              		.loc 1 370 0
 1965              		.cfi_startproc
 1966              		@ args = 0, pretend = 0, frame = 0
 1967              		@ frame_needed = 0, uses_anonymous_args = 0
 1968              	.LVL270:
 1969 0000 2DE9F843 		push	{r3, r4, r5, r6, r7, r8, r9, lr}
 1970              	.LCFI22:
 1971              		.cfi_def_cfa_offset 32
 1972              		.cfi_offset 3, -32
 1973              		.cfi_offset 4, -28
 1974              		.cfi_offset 5, -24
 1975              		.cfi_offset 6, -20
 1976              		.cfi_offset 7, -16
 1977              		.cfi_offset 8, -12
 1978              		.cfi_offset 9, -8
 1979              		.cfi_offset 14, -4
 377:FATFS/src/ff.c **** 		res = FR_INT_ERR;
 1980              		.loc 1 377 0
 1981 0004 0129     		cmp	r1, #1
 1982 0006 7ED9     		bls	.L212
 377:FATFS/src/ff.c **** 		res = FR_INT_ERR;
 1983              		.loc 1 377 0 is_stmt 0 discriminator 1
 1984 0008 036A     		ldr	r3, [r0, #32]
 1985 000a 8B42     		cmp	r3, r1
ARM GAS  /tmp/ccnWcupz.s 			page 68


 1986 000c 7DD9     		bls	.L213
 1987 000e 1546     		mov	r5, r2
 1988 0010 0C46     		mov	r4, r1
 1989 0012 0646     		mov	r6, r0
 381:FATFS/src/ff.c **** 		switch (fs->fs_type) {
 1990              		.loc 1 381 0 is_stmt 1
 1991 0014 D0F82480 		ldr	r8, [r0, #36]
 1992              	.LVL271:
 382:FATFS/src/ff.c **** 		case FS_FAT12 :
 1993              		.loc 1 382 0
 1994 0018 0378     		ldrb	r3, [r0]	@ zero_extendqisi2
 1995 001a 022B     		cmp	r3, #2
 1996 001c 46D0     		beq	.L205
 1997 001e 032B     		cmp	r3, #3
 1998 0020 58D0     		beq	.L206
 1999 0022 012B     		cmp	r3, #1
 2000 0024 05D0     		beq	.L217
 410:FATFS/src/ff.c **** 		}
 2001              		.loc 1 410 0
 2002 0026 0227     		movs	r7, #2
 2003              	.LVL272:
 2004              	.L204:
 412:FATFS/src/ff.c **** 	}
 2005              		.loc 1 412 0
 2006 0028 0123     		movs	r3, #1
 2007 002a 3371     		strb	r3, [r6, #4]
 2008              	.LVL273:
 2009              	.L203:
 416:FATFS/src/ff.c **** #endif /* !_FS_READONLY */
 2010              		.loc 1 416 0
 2011 002c 3846     		mov	r0, r7
 2012 002e BDE8F883 		pop	{r3, r4, r5, r6, r7, r8, r9, pc}
 2013              	.LVL274:
 2014              	.L217:
 384:FATFS/src/ff.c **** 			res = move_window(fs, fsect + (bc / SS(fs)));
 2015              		.loc 1 384 0
 2016 0032 01EB5109 		add	r9, r1, r1, lsr #1
 2017              	.LVL275:
 385:FATFS/src/ff.c **** 			if (res != FR_OK) break;
 2018              		.loc 1 385 0
 2019 0036 08EB5921 		add	r1, r8, r9, lsr #9
 2020              	.LVL276:
 2021 003a FFF7FEFF 		bl	move_window
 2022              	.LVL277:
 386:FATFS/src/ff.c **** 			p = &fs->win[bc & (SS(fs) - 1)];
 2023              		.loc 1 386 0
 2024 003e 0746     		mov	r7, r0
 2025 0040 0028     		cmp	r0, #0
 2026 0042 F1D1     		bne	.L204
 387:FATFS/src/ff.c **** 			*p = (clst & 1) ? ((*p & 0x0F) | ((BYTE)val << 4)) : (BYTE)val;
 2027              		.loc 1 387 0
 2028 0044 C9F30802 		ubfx	r2, r9, #0, #9
 2029              	.LVL278:
 388:FATFS/src/ff.c **** 			bc++;
 2030              		.loc 1 388 0
 2031 0048 14F00104 		ands	r4, r4, #1
 2032              	.LVL279:
ARM GAS  /tmp/ccnWcupz.s 			page 69


 2033 004c 21D0     		beq	.L208
 388:FATFS/src/ff.c **** 			bc++;
 2034              		.loc 1 388 0 is_stmt 0 discriminator 1
 2035 004e B318     		adds	r3, r6, r2
 2036 0050 93F93430 		ldrsb	r3, [r3, #52]
 2037 0054 03F00F03 		and	r3, r3, #15
 2038 0058 2901     		lsls	r1, r5, #4
 2039 005a 01F47F61 		and	r1, r1, #4080
 2040 005e 0B43     		orrs	r3, r3, r1
 2041 0060 DBB2     		uxtb	r3, r3
 2042              	.L209:
 388:FATFS/src/ff.c **** 			bc++;
 2043              		.loc 1 388 0 discriminator 4
 2044 0062 3244     		add	r2, r2, r6
 2045              	.LVL280:
 2046 0064 82F83430 		strb	r3, [r2, #52]
 389:FATFS/src/ff.c **** 			fs->wflag = 1;
 2047              		.loc 1 389 0 is_stmt 1 discriminator 4
 2048 0068 09F10109 		add	r9, r9, #1
 2049              	.LVL281:
 390:FATFS/src/ff.c **** 			res = move_window(fs, fsect + (bc / SS(fs)));
 2050              		.loc 1 390 0 discriminator 4
 2051 006c 0123     		movs	r3, #1
 2052 006e 3371     		strb	r3, [r6, #4]
 391:FATFS/src/ff.c **** 			if (res != FR_OK) break;
 2053              		.loc 1 391 0 discriminator 4
 2054 0070 08EB5921 		add	r1, r8, r9, lsr #9
 2055 0074 3046     		mov	r0, r6
 2056              	.LVL282:
 2057 0076 FFF7FEFF 		bl	move_window
 2058              	.LVL283:
 392:FATFS/src/ff.c **** 			p = &fs->win[bc & (SS(fs) - 1)];
 2059              		.loc 1 392 0 discriminator 4
 2060 007a 0746     		mov	r7, r0
 2061 007c 0028     		cmp	r0, #0
 2062 007e D3D1     		bne	.L204
 393:FATFS/src/ff.c **** 			*p = (clst & 1) ? (BYTE)(val >> 4) : ((*p & 0xF0) | ((BYTE)(val >> 8) & 0x0F));
 2063              		.loc 1 393 0
 2064 0080 C9F30809 		ubfx	r9, r9, #0, #9
 2065              	.LVL284:
 394:FATFS/src/ff.c **** 			break;
 2066              		.loc 1 394 0
 2067 0084 3CB1     		cbz	r4, .L210
 394:FATFS/src/ff.c **** 			break;
 2068              		.loc 1 394 0 is_stmt 0 discriminator 1
 2069 0086 C5F30715 		ubfx	r5, r5, #4, #8
 2070              	.LVL285:
 2071              	.L211:
 394:FATFS/src/ff.c **** 			break;
 2072              		.loc 1 394 0 discriminator 4
 2073 008a B144     		add	r9, r9, r6
 2074              	.LVL286:
 2075 008c 89F83450 		strb	r5, [r9, #52]
 395:FATFS/src/ff.c **** 
 2076              		.loc 1 395 0 is_stmt 1 discriminator 4
 2077 0090 CAE7     		b	.L204
 2078              	.LVL287:
ARM GAS  /tmp/ccnWcupz.s 			page 70


 2079              	.L208:
 388:FATFS/src/ff.c **** 			bc++;
 2080              		.loc 1 388 0 discriminator 2
 2081 0092 EBB2     		uxtb	r3, r5
 2082 0094 E5E7     		b	.L209
 2083              	.LVL288:
 2084              	.L210:
 394:FATFS/src/ff.c **** 			break;
 2085              		.loc 1 394 0 discriminator 2
 2086 0096 06EB0903 		add	r3, r6, r9
 2087 009a 93F93430 		ldrsb	r3, [r3, #52]
 2088 009e 23F00F03 		bic	r3, r3, #15
 2089 00a2 C5F30325 		ubfx	r5, r5, #8, #4
 2090              	.LVL289:
 2091 00a6 1D43     		orrs	r5, r5, r3
 2092 00a8 EDB2     		uxtb	r5, r5
 2093 00aa EEE7     		b	.L211
 2094              	.LVL290:
 2095              	.L205:
 398:FATFS/src/ff.c **** 			if (res != FR_OK) break;
 2096              		.loc 1 398 0
 2097 00ac 08EB1121 		add	r1, r8, r1, lsr #8
 2098              	.LVL291:
 2099 00b0 FFF7FEFF 		bl	move_window
 2100              	.LVL292:
 399:FATFS/src/ff.c **** 			ST_WORD(&fs->win[((WORD)clst * 2) & (SS(fs) - 1)], (WORD)val);
 2101              		.loc 1 399 0
 2102 00b4 0746     		mov	r7, r0
 2103 00b6 0028     		cmp	r0, #0
 2104 00b8 B6D1     		bne	.L204
 400:FATFS/src/ff.c **** 			break;
 2105              		.loc 1 400 0
 2106 00ba A1B2     		uxth	r1, r4
 2107 00bc 4900     		lsls	r1, r1, #1
 2108 00be 01F4FF71 		and	r1, r1, #510
 2109 00c2 7318     		adds	r3, r6, r1
 2110 00c4 83F83450 		strb	r5, [r3, #52]
 2111 00c8 3031     		adds	r1, r1, #48
 2112 00ca 3144     		add	r1, r1, r6
 2113 00cc C5F30725 		ubfx	r5, r5, #8, #8
 2114              	.LVL293:
 2115 00d0 4D71     		strb	r5, [r1, #5]
 401:FATFS/src/ff.c **** 
 2116              		.loc 1 401 0
 2117 00d2 A9E7     		b	.L204
 2118              	.LVL294:
 2119              	.L206:
 404:FATFS/src/ff.c **** 			if (res != FR_OK) break;
 2120              		.loc 1 404 0
 2121 00d4 08EBD111 		add	r1, r8, r1, lsr #7
 2122              	.LVL295:
 2123 00d8 FFF7FEFF 		bl	move_window
 2124              	.LVL296:
 405:FATFS/src/ff.c **** 			ST_DWORD(&fs->win[((WORD)clst * 4) & (SS(fs) - 1)], val);
 2125              		.loc 1 405 0
 2126 00dc 0746     		mov	r7, r0
 2127 00de 0028     		cmp	r0, #0
ARM GAS  /tmp/ccnWcupz.s 			page 71


 2128 00e0 A2D1     		bne	.L204
 406:FATFS/src/ff.c **** 			break;
 2129              		.loc 1 406 0
 2130 00e2 A3B2     		uxth	r3, r4
 2131 00e4 9B00     		lsls	r3, r3, #2
 2132 00e6 03F4FE73 		and	r3, r3, #508
 2133 00ea F218     		adds	r2, r6, r3
 2134 00ec 82F83450 		strb	r5, [r2, #52]
 2135 00f0 3033     		adds	r3, r3, #48
 2136 00f2 3344     		add	r3, r3, r6
 2137 00f4 C5F30722 		ubfx	r2, r5, #8, #8
 2138 00f8 5A71     		strb	r2, [r3, #5]
 2139 00fa C5F30742 		ubfx	r2, r5, #16, #8
 2140 00fe 9A71     		strb	r2, [r3, #6]
 2141 0100 2D0E     		lsrs	r5, r5, #24
 2142              	.LVL297:
 2143 0102 DD71     		strb	r5, [r3, #7]
 407:FATFS/src/ff.c **** 
 2144              		.loc 1 407 0
 2145 0104 90E7     		b	.L204
 2146              	.LVL298:
 2147              	.L212:
 378:FATFS/src/ff.c **** 
 2148              		.loc 1 378 0
 2149 0106 0227     		movs	r7, #2
 2150 0108 90E7     		b	.L203
 2151              	.L213:
 2152 010a 0227     		movs	r7, #2
 2153 010c 8EE7     		b	.L203
 2154              		.cfi_endproc
 2155              	.LFE36:
 2157              		.section	.text.create_chain,"ax",%progbits
 2158              		.align	1
 2159              		.syntax unified
 2160              		.thumb
 2161              		.thumb_func
 2162              		.fpu softvfp
 2164              	create_chain:
 2165              	.LFB38:
 472:FATFS/src/ff.c **** 	DWORD cs, ncl, scl, mcl;
 2166              		.loc 1 472 0
 2167              		.cfi_startproc
 2168              		@ args = 0, pretend = 0, frame = 0
 2169              		@ frame_needed = 0, uses_anonymous_args = 0
 2170              	.LVL299:
 2171 0000 2DE9F041 		push	{r4, r5, r6, r7, r8, lr}
 2172              	.LCFI23:
 2173              		.cfi_def_cfa_offset 24
 2174              		.cfi_offset 4, -24
 2175              		.cfi_offset 5, -20
 2176              		.cfi_offset 6, -16
 2177              		.cfi_offset 7, -12
 2178              		.cfi_offset 8, -8
 2179              		.cfi_offset 14, -4
 2180 0004 0646     		mov	r6, r0
 476:FATFS/src/ff.c **** 	if (clst == 0) {		/* Create new chain */
 2181              		.loc 1 476 0
ARM GAS  /tmp/ccnWcupz.s 			page 72


 2182 0006 076A     		ldr	r7, [r0, #32]
 2183              	.LVL300:
 477:FATFS/src/ff.c **** 		scl = fs->last_clust;			/* Get suggested start point */
 2184              		.loc 1 477 0
 2185 0008 8846     		mov	r8, r1
 2186 000a 29B9     		cbnz	r1, .L219
 478:FATFS/src/ff.c **** 		if (scl == 0 || scl >= mcl) scl = 1;
 2187              		.loc 1 478 0
 2188 000c C568     		ldr	r5, [r0, #12]
 2189              	.LVL301:
 479:FATFS/src/ff.c **** 	}
 2190              		.loc 1 479 0
 2191 000e 65B1     		cbz	r5, .L226
 479:FATFS/src/ff.c **** 	}
 2192              		.loc 1 479 0 is_stmt 0 discriminator 2
 2193 0010 AF42     		cmp	r7, r5
 2194 0012 0BD8     		bhi	.L220
 479:FATFS/src/ff.c **** 	}
 2195              		.loc 1 479 0
 2196 0014 0125     		movs	r5, #1
 2197              	.LVL302:
 2198 0016 09E0     		b	.L220
 2199              	.LVL303:
 2200              	.L219:
 482:FATFS/src/ff.c **** 		if (cs < 2) return 1;			/* It is an invalid cluster */
 2201              		.loc 1 482 0 is_stmt 1
 2202 0018 FFF7FEFF 		bl	get_fat
 2203              	.LVL304:
 2204 001c 0346     		mov	r3, r0
 2205              	.LVL305:
 483:FATFS/src/ff.c **** 		if (cs < mcl) return cs;		/* It is already followed by next cluster */
 2206              		.loc 1 483 0
 2207 001e 0128     		cmp	r0, #1
 2208 0020 39D9     		bls	.L228
 484:FATFS/src/ff.c **** 		scl = clst;
 2209              		.loc 1 484 0
 2210 0022 8742     		cmp	r7, r0
 2211 0024 3CD8     		bhi	.L218
 485:FATFS/src/ff.c **** 	}
 2212              		.loc 1 485 0
 2213 0026 4546     		mov	r5, r8
 2214 0028 00E0     		b	.L220
 2215              	.LVL306:
 2216              	.L226:
 479:FATFS/src/ff.c **** 	}
 2217              		.loc 1 479 0
 2218 002a 0125     		movs	r5, #1
 2219              	.LVL307:
 2220              	.L220:
 488:FATFS/src/ff.c **** 	for (;;) {
 2221              		.loc 1 488 0
 2222 002c 2C46     		mov	r4, r5
 2223 002e 0CE0     		b	.L224
 2224              	.LVL308:
 2225              	.L222:
 495:FATFS/src/ff.c **** 		if (cs == 0) break;				/* Found a free cluster */
 2226              		.loc 1 495 0
ARM GAS  /tmp/ccnWcupz.s 			page 73


 2227 0030 2146     		mov	r1, r4
 2228 0032 3046     		mov	r0, r6
 2229 0034 FFF7FEFF 		bl	get_fat
 2230              	.LVL309:
 496:FATFS/src/ff.c **** 		if (cs == 0xFFFFFFFF || cs == 1)/* An error occured */
 2231              		.loc 1 496 0
 2232 0038 0346     		mov	r3, r0
 2233 003a 68B1     		cbz	r0, .L223
 497:FATFS/src/ff.c **** 			return cs;
 2234              		.loc 1 497 0
 2235 003c B0F1FF3F 		cmp	r0, #-1
 2236 0040 2ED0     		beq	.L218
 497:FATFS/src/ff.c **** 			return cs;
 2237              		.loc 1 497 0 is_stmt 0 discriminator 1
 2238 0042 0128     		cmp	r0, #1
 2239 0044 2CD0     		beq	.L218
 499:FATFS/src/ff.c **** 	}
 2240              		.loc 1 499 0 is_stmt 1
 2241 0046 AC42     		cmp	r4, r5
 2242 0048 29D0     		beq	.L235
 2243              	.LVL310:
 2244              	.L224:
 490:FATFS/src/ff.c **** 		if (ncl >= mcl) {				/* Wrap around */
 2245              		.loc 1 490 0
 2246 004a 0134     		adds	r4, r4, #1
 2247              	.LVL311:
 491:FATFS/src/ff.c **** 			ncl = 2;
 2248              		.loc 1 491 0
 2249 004c A742     		cmp	r7, r4
 2250 004e EFD8     		bhi	.L222
 2251              	.LVL312:
 493:FATFS/src/ff.c **** 		}
 2252              		.loc 1 493 0
 2253 0050 012D     		cmp	r5, #1
 2254 0052 22D9     		bls	.L229
 492:FATFS/src/ff.c **** 			if (ncl > scl) return 0;	/* No free custer */
 2255              		.loc 1 492 0
 2256 0054 0224     		movs	r4, #2
 2257 0056 EBE7     		b	.L222
 2258              	.LVL313:
 2259              	.L223:
 502:FATFS/src/ff.c **** 		return 0xFFFFFFFF;
 2260              		.loc 1 502 0
 2261 0058 6FF07042 		mvn	r2, #-268435456
 2262 005c 2146     		mov	r1, r4
 2263 005e 3046     		mov	r0, r6
 2264              	.LVL314:
 2265 0060 FFF7FEFF 		bl	put_fat
 2266              	.LVL315:
 2267 0064 F8B9     		cbnz	r0, .L231
 504:FATFS/src/ff.c **** 		if (put_fat(fs, clst, ncl))
 2268              		.loc 1 504 0
 2269 0066 B8F1000F 		cmp	r8, #0
 2270 006a 0AD1     		bne	.L236
 2271              	.L225:
 509:FATFS/src/ff.c **** 	if (fs->free_clust != 0xFFFFFFFF) {
 2272              		.loc 1 509 0
ARM GAS  /tmp/ccnWcupz.s 			page 74


 2273 006c F460     		str	r4, [r6, #12]
 510:FATFS/src/ff.c **** 		fs->free_clust--;
 2274              		.loc 1 510 0
 2275 006e 3369     		ldr	r3, [r6, #16]
 2276 0070 B3F1FF3F 		cmp	r3, #-1
 2277 0074 1AD0     		beq	.L233
 511:FATFS/src/ff.c **** 		fs->fsi_flag = 1;
 2278              		.loc 1 511 0
 2279 0076 013B     		subs	r3, r3, #1
 2280 0078 3361     		str	r3, [r6, #16]
 512:FATFS/src/ff.c **** 	}
 2281              		.loc 1 512 0
 2282 007a 0123     		movs	r3, #1
 2283 007c 7371     		strb	r3, [r6, #5]
 515:FATFS/src/ff.c **** }
 2284              		.loc 1 515 0
 2285 007e 2346     		mov	r3, r4
 2286 0080 0EE0     		b	.L218
 2287              	.L236:
 505:FATFS/src/ff.c **** 			return 0xFFFFFFFF;
 2288              		.loc 1 505 0
 2289 0082 2246     		mov	r2, r4
 2290 0084 4146     		mov	r1, r8
 2291 0086 3046     		mov	r0, r6
 2292 0088 FFF7FEFF 		bl	put_fat
 2293              	.LVL316:
 2294 008c 0028     		cmp	r0, #0
 2295 008e EDD0     		beq	.L225
 506:FATFS/src/ff.c **** 	}
 2296              		.loc 1 506 0
 2297 0090 4FF0FF33 		mov	r3, #-1
 2298 0094 04E0     		b	.L218
 2299              	.LVL317:
 2300              	.L228:
 483:FATFS/src/ff.c **** 		if (cs < mcl) return cs;		/* It is already followed by next cluster */
 2301              		.loc 1 483 0
 2302 0096 0123     		movs	r3, #1
 2303 0098 02E0     		b	.L218
 2304              	.LVL318:
 2305              	.L229:
 493:FATFS/src/ff.c **** 		}
 2306              		.loc 1 493 0
 2307 009a 0023     		movs	r3, #0
 2308 009c 00E0     		b	.L218
 2309              	.LVL319:
 2310              	.L235:
 499:FATFS/src/ff.c **** 	}
 2311              		.loc 1 499 0
 2312 009e 0023     		movs	r3, #0
 2313              	.LVL320:
 2314              	.L218:
 516:FATFS/src/ff.c **** #endif /* !_FS_READONLY */
 2315              		.loc 1 516 0
 2316 00a0 1846     		mov	r0, r3
 2317 00a2 BDE8F081 		pop	{r4, r5, r6, r7, r8, pc}
 2318              	.LVL321:
 2319              	.L231:
ARM GAS  /tmp/ccnWcupz.s 			page 75


 503:FATFS/src/ff.c **** 	if (clst != 0) {					/* Link it to the previous one if needed */
 2320              		.loc 1 503 0
 2321 00a6 4FF0FF33 		mov	r3, #-1
 2322 00aa F9E7     		b	.L218
 2323              	.L233:
 515:FATFS/src/ff.c **** }
 2324              		.loc 1 515 0
 2325 00ac 2346     		mov	r3, r4
 2326 00ae F7E7     		b	.L218
 2327              		.cfi_endproc
 2328              	.LFE38:
 2330              		.section	.text.remove_chain,"ax",%progbits
 2331              		.align	1
 2332              		.syntax unified
 2333              		.thumb
 2334              		.thumb_func
 2335              		.fpu softvfp
 2337              	remove_chain:
 2338              	.LFB37:
 431:FATFS/src/ff.c **** 	FRESULT res;
 2339              		.loc 1 431 0
 2340              		.cfi_startproc
 2341              		@ args = 0, pretend = 0, frame = 0
 2342              		@ frame_needed = 0, uses_anonymous_args = 0
 2343              	.LVL322:
 2344 0000 F8B5     		push	{r3, r4, r5, r6, r7, lr}
 2345              	.LCFI24:
 2346              		.cfi_def_cfa_offset 24
 2347              		.cfi_offset 3, -24
 2348              		.cfi_offset 4, -20
 2349              		.cfi_offset 5, -16
 2350              		.cfi_offset 6, -12
 2351              		.cfi_offset 7, -8
 2352              		.cfi_offset 14, -4
 436:FATFS/src/ff.c **** 		res = FR_INT_ERR;
 2353              		.loc 1 436 0
 2354 0002 0129     		cmp	r1, #1
 2355 0004 25D9     		bls	.L242
 2356 0006 0446     		mov	r4, r0
 2357 0008 0D46     		mov	r5, r1
 436:FATFS/src/ff.c **** 		res = FR_INT_ERR;
 2358              		.loc 1 436 0 is_stmt 0 discriminator 1
 2359 000a 036A     		ldr	r3, [r0, #32]
 2360 000c 8B42     		cmp	r3, r1
 2361 000e 22D9     		bls	.L243
 440:FATFS/src/ff.c **** 		while (clst < fs->max_clust) {			/* Not a last link? */
 2362              		.loc 1 440 0 is_stmt 1
 2363 0010 0027     		movs	r7, #0
 2364 0012 04E0     		b	.L239
 2365              	.LVL323:
 2366              	.L247:
 449:FATFS/src/ff.c **** 				fs->fsi_flag = 1;
 2367              		.loc 1 449 0
 2368 0014 0133     		adds	r3, r3, #1
 2369 0016 2361     		str	r3, [r4, #16]
 450:FATFS/src/ff.c **** 			}
 2370              		.loc 1 450 0
ARM GAS  /tmp/ccnWcupz.s 			page 76


 2371 0018 0123     		movs	r3, #1
 2372 001a 6371     		strb	r3, [r4, #5]
 2373              	.L240:
 431:FATFS/src/ff.c **** 	FRESULT res;
 2374              		.loc 1 431 0
 2375 001c 3546     		mov	r5, r6
 2376              	.LVL324:
 2377              	.L239:
 441:FATFS/src/ff.c **** 			nxt = get_fat(fs, clst);			/* Get cluster status */
 2378              		.loc 1 441 0
 2379 001e 236A     		ldr	r3, [r4, #32]
 2380 0020 AB42     		cmp	r3, r5
 2381 0022 19D9     		bls	.L238
 442:FATFS/src/ff.c **** 			if (nxt == 0) break;				/* Empty cluster? */
 2382              		.loc 1 442 0
 2383 0024 2946     		mov	r1, r5
 2384 0026 2046     		mov	r0, r4
 2385 0028 FFF7FEFF 		bl	get_fat
 2386              	.LVL325:
 443:FATFS/src/ff.c **** 			if (nxt == 1) { res = FR_INT_ERR; break; }	/* Internal error? */
 2387              		.loc 1 443 0
 2388 002c 0646     		mov	r6, r0
 2389 002e 98B1     		cbz	r0, .L238
 444:FATFS/src/ff.c **** 			if (nxt == 0xFFFFFFFF) { res = FR_DISK_ERR; break; }	/* Disk error? */
 2390              		.loc 1 444 0
 2391 0030 0128     		cmp	r0, #1
 2392 0032 13D0     		beq	.L244
 445:FATFS/src/ff.c **** 			res = put_fat(fs, clst, 0);			/* Mark the cluster "empty" */
 2393              		.loc 1 445 0
 2394 0034 B0F1FF3F 		cmp	r0, #-1
 2395 0038 12D0     		beq	.L245
 446:FATFS/src/ff.c **** 			if (res != FR_OK) break;
 2396              		.loc 1 446 0
 2397 003a 0022     		movs	r2, #0
 2398 003c 2946     		mov	r1, r5
 2399 003e 2046     		mov	r0, r4
 2400              	.LVL326:
 2401 0040 FFF7FEFF 		bl	put_fat
 2402              	.LVL327:
 447:FATFS/src/ff.c **** 			if (fs->free_clust != 0xFFFFFFFF) {	/* Update FSInfo */
 2403              		.loc 1 447 0
 2404 0044 0746     		mov	r7, r0
 2405 0046 38B9     		cbnz	r0, .L238
 448:FATFS/src/ff.c **** 				fs->free_clust++;
 2406              		.loc 1 448 0
 2407 0048 2369     		ldr	r3, [r4, #16]
 2408 004a B3F1FF3F 		cmp	r3, #-1
 2409 004e E1D1     		bne	.L247
 2410 0050 E4E7     		b	.L240
 2411              	.LVL328:
 2412              	.L242:
 437:FATFS/src/ff.c **** 
 2413              		.loc 1 437 0
 2414 0052 0227     		movs	r7, #2
 2415 0054 00E0     		b	.L238
 2416              	.L243:
 2417 0056 0227     		movs	r7, #2
ARM GAS  /tmp/ccnWcupz.s 			page 77


 2418              	.LVL329:
 2419              	.L238:
 457:FATFS/src/ff.c **** #endif
 2420              		.loc 1 457 0
 2421 0058 3846     		mov	r0, r7
 2422 005a F8BD     		pop	{r3, r4, r5, r6, r7, pc}
 2423              	.LVL330:
 2424              	.L244:
 444:FATFS/src/ff.c **** 			if (nxt == 0xFFFFFFFF) { res = FR_DISK_ERR; break; }	/* Disk error? */
 2425              		.loc 1 444 0
 2426 005c 0227     		movs	r7, #2
 2427              	.LVL331:
 2428 005e FBE7     		b	.L238
 2429              	.LVL332:
 2430              	.L245:
 445:FATFS/src/ff.c **** 			res = put_fat(fs, clst, 0);			/* Mark the cluster "empty" */
 2431              		.loc 1 445 0
 2432 0060 0127     		movs	r7, #1
 2433              	.LVL333:
 2434 0062 F9E7     		b	.L238
 2435              		.cfi_endproc
 2436              	.LFE37:
 2438              		.section	.text.clust2sect,"ax",%progbits
 2439              		.align	1
 2440              		.global	clust2sect
 2441              		.syntax unified
 2442              		.thumb
 2443              		.thumb_func
 2444              		.fpu softvfp
 2446              	clust2sect:
 2447              	.LFB39:
 531:FATFS/src/ff.c **** 	clst -= 2;
 2448              		.loc 1 531 0
 2449              		.cfi_startproc
 2450              		@ args = 0, pretend = 0, frame = 0
 2451              		@ frame_needed = 0, uses_anonymous_args = 0
 2452              		@ link register save eliminated.
 2453              	.LVL334:
 532:FATFS/src/ff.c **** 	if (clst >= (fs->max_clust - 2)) return 0;		/* Invalid cluster# */
 2454              		.loc 1 532 0
 2455 0000 0239     		subs	r1, r1, #2
 2456              	.LVL335:
 533:FATFS/src/ff.c **** 	return clst * fs->csize + fs->database;
 2457              		.loc 1 533 0
 2458 0002 036A     		ldr	r3, [r0, #32]
 2459 0004 023B     		subs	r3, r3, #2
 2460 0006 8B42     		cmp	r3, r1
 2461 0008 04D9     		bls	.L250
 534:FATFS/src/ff.c **** }
 2462              		.loc 1 534 0
 2463 000a 8378     		ldrb	r3, [r0, #2]	@ zero_extendqisi2
 2464 000c C06A     		ldr	r0, [r0, #44]
 2465              	.LVL336:
 2466 000e 01FB0300 		mla	r0, r1, r3, r0
 2467 0012 7047     		bx	lr
 2468              	.LVL337:
 2469              	.L250:
ARM GAS  /tmp/ccnWcupz.s 			page 78


 533:FATFS/src/ff.c **** 	return clst * fs->csize + fs->database;
 2470              		.loc 1 533 0
 2471 0014 0020     		movs	r0, #0
 2472              	.LVL338:
 535:FATFS/src/ff.c **** 
 2473              		.loc 1 535 0
 2474 0016 7047     		bx	lr
 2475              		.cfi_endproc
 2476              	.LFE39:
 2478              		.section	.text.dir_seek,"ax",%progbits
 2479              		.align	1
 2480              		.syntax unified
 2481              		.thumb
 2482              		.thumb_func
 2483              		.fpu softvfp
 2485              	dir_seek:
 2486              	.LFB40:
 549:FATFS/src/ff.c **** 	DWORD clst;
 2487              		.loc 1 549 0
 2488              		.cfi_startproc
 2489              		@ args = 0, pretend = 0, frame = 0
 2490              		@ frame_needed = 0, uses_anonymous_args = 0
 2491              	.LVL339:
 2492 0000 70B5     		push	{r4, r5, r6, lr}
 2493              	.LCFI25:
 2494              		.cfi_def_cfa_offset 16
 2495              		.cfi_offset 4, -16
 2496              		.cfi_offset 5, -12
 2497              		.cfi_offset 6, -8
 2498              		.cfi_offset 14, -4
 2499 0002 0546     		mov	r5, r0
 2500 0004 0C46     		mov	r4, r1
 554:FATFS/src/ff.c **** 	clst = dj->sclust;
 2501              		.loc 1 554 0
 2502 0006 C180     		strh	r1, [r0, #6]	@ movhi
 555:FATFS/src/ff.c **** 	if (clst == 1 || clst >= dj->fs->max_clust)	/* Check start cluster range */
 2503              		.loc 1 555 0
 2504 0008 8168     		ldr	r1, [r0, #8]
 2505              	.LVL340:
 556:FATFS/src/ff.c **** 		return FR_INT_ERR;
 2506              		.loc 1 556 0
 2507 000a 0129     		cmp	r1, #1
 2508 000c 37D0     		beq	.L258
 556:FATFS/src/ff.c **** 		return FR_INT_ERR;
 2509              		.loc 1 556 0 is_stmt 0 discriminator 1
 2510 000e 0368     		ldr	r3, [r0]
 2511 0010 1A6A     		ldr	r2, [r3, #32]
 2512 0012 8A42     		cmp	r2, r1
 2513 0014 35D9     		bls	.L259
 558:FATFS/src/ff.c **** 		clst = dj->fs->dirbase;
 2514              		.loc 1 558 0 is_stmt 1
 2515 0016 11B9     		cbnz	r1, .L253
 558:FATFS/src/ff.c **** 		clst = dj->fs->dirbase;
 2516              		.loc 1 558 0 is_stmt 0 discriminator 1
 2517 0018 1A78     		ldrb	r2, [r3]	@ zero_extendqisi2
 2518 001a 032A     		cmp	r2, #3
 2519 001c 11D0     		beq	.L265
ARM GAS  /tmp/ccnWcupz.s 			page 79


 2520              	.L253:
 561:FATFS/src/ff.c **** 		dj->clust = clst;
 2521              		.loc 1 561 0 is_stmt 1
 2522 001e 91B9     		cbnz	r1, .L254
 562:FATFS/src/ff.c **** 		if (idx >= dj->fs->n_rootdir)		/* Index is out of range */
 2523              		.loc 1 562 0
 2524 0020 E960     		str	r1, [r5, #12]
 563:FATFS/src/ff.c **** 			return FR_INT_ERR;
 2525              		.loc 1 563 0
